{"contracts/Final.sol":{"Final":{"abi":[{"anonymous":false,"inputs":[{"indexed":true,"internalType":"uint256","name":"candidateId","type":"uint256"},{"indexed":false,"internalType":"bytes32","name":"nameHash","type":"bytes32"},{"indexed":false,"internalType":"bytes32","name":"skillsHash","type":"bytes32"}],"name":"CandidateCreated","type":"event"},{"anonymous":false,"inputs":[{"indexed":true,"internalType":"uint256","name":"companyId","type":"uint256"},{"indexed":false,"internalType":"bytes32","name":"nameHash","type":"bytes32"},{"indexed":false,"internalType":"bytes32","name":"industryHash","type":"bytes32"}],"name":"CompanyCreated","type":"event"},{"anonymous":false,"inputs":[{"indexed":true,"internalType":"uint256","name":"candidateId","type":"uint256"},{"indexed":true,"internalType":"uint256","name":"jobId","type":"uint256"}],"name":"JobApplicationCreated","type":"event"},{"anonymous":false,"inputs":[{"indexed":true,"internalType":"uint256","name":"jobId","type":"uint256"},{"indexed":true,"internalType":"uint256","name":"companyId","type":"uint256"},{"indexed":false,"internalType":"string","name":"title","type":"string"},{"indexed":false,"internalType":"string","name":"description","type":"string"},{"indexed":false,"internalType":"string","name":"requirements","type":"string"},{"indexed":false,"internalType":"uint256","name":"salary","type":"uint256"}],"name":"JobPostingCreated","type":"event"},{"inputs":[{"internalType":"uint256","name":"_candidateId","type":"uint256"},{"internalType":"uint256","name":"_jobId","type":"uint256"}],"name":"applyToJobPosting","outputs":[],"stateMutability":"nonpayable","type":"function"},{"inputs":[{"internalType":"uint256","name":"","type":"uint256"}],"name":"candidates","outputs":[{"internalType":"uint256","name":"id","type":"uint256"},{"internalType":"bytes32","name":"nameHash","type":"bytes32"},{"internalType":"bytes32","name":"skillsHash","type":"bytes32"},{"internalType":"bool","name":"isActive","type":"bool"}],"stateMutability":"view","type":"function"},{"inputs":[],"name":"candidatesCount","outputs":[{"internalType":"uint256","name":"","type":"uint256"}],"stateMutability":"view","type":"function"},{"inputs":[{"internalType":"uint256","name":"","type":"uint256"}],"name":"companies","outputs":[{"internalType":"uint256","name":"id","type":"uint256"},{"internalType":"bytes32","name":"nameHash","type":"bytes32"},{"internalType":"bytes32","name":"industryHash","type":"bytes32"},{"internalType":"bool","name":"isActive","type":"bool"}],"stateMutability":"view","type":"function"},{"inputs":[],"name":"companiesCount","outputs":[{"internalType":"uint256","name":"","type":"uint256"}],"stateMutability":"view","type":"function"},{"inputs":[{"internalType":"bytes32","name":"_nameHash","type":"bytes32"},{"internalType":"bytes32","name":"_skillsHash","type":"bytes32"}],"name":"createCandidateProfile","outputs":[],"stateMutability":"nonpayable","type":"function"},{"inputs":[{"internalType":"bytes32","name":"_nameHash","type":"bytes32"},{"internalType":"bytes32","name":"_industryHash","type":"bytes32"}],"name":"createCompanyProfile","outputs":[],"stateMutability":"nonpayable","type":"function"},{"inputs":[{"internalType":"uint256","name":"_companyId","type":"uint256"},{"internalType":"string","name":"_title","type":"string"},{"internalType":"string","name":"_description","type":"string"},{"internalType":"string","name":"_requirements","type":"string"},{"internalType":"uint256","name":"_salary","type":"uint256"}],"name":"createJobPosting","outputs":[],"stateMutability":"nonpayable","type":"function"},{"inputs":[{"internalType":"bytes32","name":"_nameHash","type":"bytes32"},{"internalType":"bytes32","name":"_skillsHash","type":"bytes32"}],"name":"getCandidateId","outputs":[{"internalType":"uint256","name":"","type":"uint256"}],"stateMutability":"view","type":"function"},{"inputs":[{"internalType":"bytes32","name":"_nameHash","type":"bytes32"},{"internalType":"bytes32","name":"_industryHash","type":"bytes32"}],"name":"getCompanyId","outputs":[{"internalType":"uint256","name":"","type":"uint256"}],"stateMutability":"view","type":"function"},{"inputs":[{"internalType":"uint256","name":"","type":"uint256"},{"internalType":"uint256","name":"","type":"uint256"}],"name":"jobApplications","outputs":[{"internalType":"uint256","name":"candidateId","type":"uint256"},{"internalType":"uint256","name":"jobId","type":"uint256"},{"internalType":"bool","name":"isActive","type":"bool"}],"stateMutability":"view","type":"function"},{"inputs":[{"internalType":"uint256","name":"","type":"uint256"}],"name":"jobPostings","outputs":[{"internalType":"uint256","name":"id","type":"uint256"},{"internalType":"uint256","name":"companyId","type":"uint256"},{"internalType":"string","name":"title","type":"string"},{"internalType":"string","name":"description","type":"string"},{"internalType":"string","name":"requirements","type":"string"},{"internalType":"uint256","name":"salary","type":"uint256"},{"internalType":"bool","name":"isActive","type":"bool"}],"stateMutability":"view","type":"function"},{"inputs":[],"name":"jobPostingsCount","outputs":[{"internalType":"uint256","name":"","type":"uint256"}],"stateMutability":"view","type":"function"}],"evm":{"bytecode":{"linkReferences":{},"object":"608060405234801561001057600080fd5b50611582806100206000396000f3fe608060405234801561001057600080fd5b50600436106100cf5760003560e01c8063622359b91161008c5780639d5c9300116100665780639d5c930014610244578063dc5dfbe214610262578063ead39a111461027e578063f337278a146102b0576100cf565b8063622359b9146101d4578063651377571461020a578063835331e114610226576100cf565b806304a73a4a146100d45780631c0f8374146100f05780632813d19d146101205780632d35a8a2146101535780633477ee2e146101715780634ffd8141146101a4575b600080fd5b6100ee60048036038101906100e99190610b65565b6102cc565b005b61010a60048036038101906101059190610b65565b61039f565b6040516101179190610bbe565b60405180910390f35b61013a60048036038101906101359190610c05565b610415565b60405161014a9493929190610c5c565b60405180910390f35b61015b610452565b6040516101689190610bbe565b60405180910390f35b61018b60048036038101906101869190610c05565b610458565b60405161019b9493929190610c5c565b60405180910390f35b6101be60048036038101906101b99190610b65565b610495565b6040516101cb9190610bbe565b60405180910390f35b6101ee60048036038101906101e99190610c05565b61050d565b6040516102019796959493929190610d31565b60405180910390f35b610224600480360381019061021f9190610db5565b6106f4565b005b61022e610864565b60405161023b9190610bbe565b60405180910390f35b61024c61086a565b6040516102599190610bbe565b60405180910390f35b61027c60048036038101906102779190610b65565b610870565b005b61029860048036038101906102939190610db5565b610944565b6040516102a793929190610df5565b60405180910390f35b6102ca60048036038101906102c59190610f61565b610988565b005b600160008154809291906102df9061105f565b91905055506040518060800160405280600154815260200183815260200182815260200160011515815250600080600154815260200190815260200160002060008201518160000155602082015181600101556040820151816002015560608201518160030160006101000a81548160ff0219169083151502179055509050506001547f4455ed28ee39aaf03fb1a9a5dd8fc64fb3ad618f35b846ece64142e8b9e99ace83836040516103939291906110a7565b60405180910390a25050565b600080600190505b60015481116104095783600080838152602001908152602001600020600101541480156103e857508260008083815260200190815260200160002060020154145b156103f6578091505061040f565b80806104019061105f565b9150506103a7565b50600090505b92915050565b60026020528060005260406000206000915090508060000154908060010154908060020154908060030160009054906101000a900460ff16905084565b60015481565b60006020528060005260406000206000915090508060000154908060010154908060020154908060030160009054906101000a900460ff16905084565b600080600190505b6003548111610501578360026000838152602001908152602001600020600101541480156104e05750826002600083815260200190815260200160002060020154145b156104ee5780915050610507565b80806104f99061105f565b91505061049d565b50600090505b92915050565b600460205280600052604060002060009150905080600001549080600101549080600201805461053c906110ff565b80601f0160208091040260200160405190810160405280929190818152602001828054610568906110ff565b80156105b55780601f1061058a576101008083540402835291602001916105b5565b820191906000526020600020905b81548152906001019060200180831161059857829003601f168201915b5050505050908060030180546105ca906110ff565b80601f01602080910402602001604051908101604052809291908181526020018280546105f6906110ff565b80156106435780601f1061061857610100808354040283529160200191610643565b820191906000526020600020905b81548152906001019060200180831161062657829003601f168201915b505050505090806004018054610658906110ff565b80601f0160208091040260200160405190810160405280929190818152602001828054610684906110ff565b80156106d15780601f106106a6576101008083540402835291602001916106d1565b820191906000526020600020905b8154815290600101906020018083116106b457829003601f168201915b5050505050908060050154908060060160009054906101000a900460ff16905087565b60008083815260200190815260200160002060030160009054906101000a900460ff16610756576040517f08c379a000000000000000000000000000000000000000000000000000000000815260040161074d9061117c565b60405180910390fd5b6004600082815260200190815260200160002060060160009054906101000a900460ff166107b9576040517f08c379a00000000000000000000000000000000000000000000000000000000081526004016107b0906111e8565b60405180910390fd5b604051806060016040528083815260200182815260200160011515815250600660008381526020019081526020016000206000848152602001908152602001600020600082015181600001556020820151816001015560408201518160020160006101000a81548160ff02191690831515021790555090505080827f6b876628f8c5f4fcad632c8571a96a818e3efff910c878d073af50423e40468360405160405180910390a35050565b60035481565b60055481565b600360008154809291906108839061105f565b9190505550604051806080016040528060035481526020018381526020018281526020016001151581525060026000600354815260200190815260200160002060008201518160000155602082015181600101556040820151816002015560608201518160030160006101000a81548160ff0219169083151502179055509050506003547fc1782b21005548a37c32da9a3de550d523b74683defdf701c8f1bcba4133898783836040516109389291906110a7565b60405180910390a25050565b6006602052816000526040600020602052806000526040600020600091509150508060000154908060010154908060020160009054906101000a900460ff16905083565b6002600086815260200190815260200160002060030160009054906101000a900460ff166109eb576040517f08c379a00000000000000000000000000000000000000000000000000000000081526004016109e290611254565b60405180910390fd5b600560008154809291906109fe9061105f565b91905055506040518060e0016040528060055481526020018681526020018581526020018481526020018381526020018281526020016001151581525060046000600554815260200190815260200160002060008201518160000155602082015181600101556040820151816002019081610a799190611420565b506060820151816003019081610a8f9190611420565b506080820151816004019081610aa59190611420565b5060a0820151816005015560c08201518160060160006101000a81548160ff021916908315150217905550905050846005547fe3b4ed9d39bb2a31ded1d12d40d929ff7396ba2abffe35c8c51b1f17e6d7b7c386868686604051610b0c94939291906114f2565b60405180910390a35050505050565b6000604051905090565b600080fd5b600080fd5b6000819050919050565b610b4281610b2f565b8114610b4d57600080fd5b50565b600081359050610b5f81610b39565b92915050565b60008060408385031215610b7c57610b7b610b25565b5b6000610b8a85828601610b50565b9250506020610b9b85828601610b50565b9150509250929050565b6000819050919050565b610bb881610ba5565b82525050565b6000602082019050610bd36000830184610baf565b92915050565b610be281610ba5565b8114610bed57600080fd5b50565b600081359050610bff81610bd9565b92915050565b600060208284031215610c1b57610c1a610b25565b5b6000610c2984828501610bf0565b91505092915050565b610c3b81610b2f565b82525050565b60008115159050919050565b610c5681610c41565b82525050565b6000608082019050610c716000830187610baf565b610c7e6020830186610c32565b610c8b6040830185610c32565b610c986060830184610c4d565b95945050505050565b600081519050919050565b600082825260208201905092915050565b60005b83811015610cdb578082015181840152602081019050610cc0565b60008484015250505050565b6000601f19601f8301169050919050565b6000610d0382610ca1565b610d0d8185610cac565b9350610d1d818560208601610cbd565b610d2681610ce7565b840191505092915050565b600060e082019050610d46600083018a610baf565b610d536020830189610baf565b8181036040830152610d658188610cf8565b90508181036060830152610d798187610cf8565b90508181036080830152610d8d8186610cf8565b9050610d9c60a0830185610baf565b610da960c0830184610c4d565b98975050505050505050565b60008060408385031215610dcc57610dcb610b25565b5b6000610dda85828601610bf0565b9250506020610deb85828601610bf0565b9150509250929050565b6000606082019050610e0a6000830186610baf565b610e176020830185610baf565b610e246040830184610c4d565b949350505050565b600080fd5b600080fd5b7f4e487b7100000000000000000000000000000000000000000000000000000000600052604160045260246000fd5b610e6e82610ce7565b810181811067ffffffffffffffff82111715610e8d57610e8c610e36565b5b80604052505050565b6000610ea0610b1b565b9050610eac8282610e65565b919050565b600067ffffffffffffffff821115610ecc57610ecb610e36565b5b610ed582610ce7565b9050602081019050919050565b82818337600083830152505050565b6000610f04610eff84610eb1565b610e96565b905082815260208101848484011115610f2057610f1f610e31565b5b610f2b848285610ee2565b509392505050565b600082601f830112610f4857610f47610e2c565b5b8135610f58848260208601610ef1565b91505092915050565b600080600080600060a08688031215610f7d57610f7c610b25565b5b6000610f8b88828901610bf0565b955050602086013567ffffffffffffffff811115610fac57610fab610b2a565b5b610fb888828901610f33565b945050604086013567ffffffffffffffff811115610fd957610fd8610b2a565b5b610fe588828901610f33565b935050606086013567ffffffffffffffff81111561100657611005610b2a565b5b61101288828901610f33565b925050608061102388828901610bf0565b9150509295509295909350565b7f4e487b7100000000000000000000000000000000000000000000000000000000600052601160045260246000fd5b600061106a82610ba5565b91507fffffffffffffffffffffffffffffffffffffffffffffffffffffffffffffffff820361109c5761109b611030565b5b600182019050919050565b60006040820190506110bc6000830185610c32565b6110c96020830184610c32565b9392505050565b7f4e487b7100000000000000000000000000000000000000000000000000000000600052602260045260246000fd5b6000600282049050600182168061111757607f821691505b60208210810361112a576111296110d0565b5b50919050565b7f43616e646964617465206e6f7420616374697665000000000000000000000000600082015250565b6000611166601483610cac565b915061117182611130565b602082019050919050565b6000602082019050818103600083015261119581611159565b9050919050565b7f4a6f6220706f7374696e67206e6f742061637469766500000000000000000000600082015250565b60006111d2601683610cac565b91506111dd8261119c565b602082019050919050565b60006020820190508181036000830152611201816111c5565b9050919050565b7f436f6d70616e79206e6f74206163746976650000000000000000000000000000600082015250565b600061123e601283610cac565b915061124982611208565b602082019050919050565b6000602082019050818103600083015261126d81611231565b9050919050565b60008190508160005260206000209050919050565b60006020601f8301049050919050565b600082821b905092915050565b6000600883026112d67fffffffffffffffffffffffffffffffffffffffffffffffffffffffffffffffff82611299565b6112e08683611299565b95508019841693508086168417925050509392505050565b6000819050919050565b600061131d61131861131384610ba5565b6112f8565b610ba5565b9050919050565b6000819050919050565b61133783611302565b61134b61134382611324565b8484546112a6565b825550505050565b600090565b611360611353565b61136b81848461132e565b505050565b5b8181101561138f57611384600082611358565b600181019050611371565b5050565b601f8211156113d4576113a581611274565b6113ae84611289565b810160208510156113bd578190505b6113d16113c985611289565b830182611370565b50505b505050565b600082821c905092915050565b60006113f7600019846008026113d9565b1980831691505092915050565b600061141083836113e6565b9150826002028217905092915050565b61142982610ca1565b67ffffffffffffffff81111561144257611441610e36565b5b61144c82546110ff565b611457828285611393565b600060209050601f83116001811461148a5760008415611478578287015190505b6114828582611404565b8655506114ea565b601f19841661149886611274565b60005b828110156114c05784890151825560018201915060208501945060208101905061149b565b868310156114dd57848901516114d9601f8916826113e6565b8355505b6001600288020188555050505b505050505050565b6000608082019050818103600083015261150c8187610cf8565b905081810360208301526115208186610cf8565b905081810360408301526115348185610cf8565b90506115436060830184610baf565b9594505050505056fea2646970667358221220c82009503ec5b6b722050e35fd9510aaccfd3c47c5fc04822b4f5d1b5e725f9764736f6c63430008120033","opcodes":"PUSH1 0x80 PUSH1 0x40 MSTORE CALLVALUE DUP1 ISZERO PUSH2 0x10 JUMPI PUSH1 0x0 DUP1 REVERT JUMPDEST POP PUSH2 0x1582 DUP1 PUSH2 0x20 PUSH1 0x0 CODECOPY PUSH1 0x0 RETURN INVALID PUSH1 0x80 PUSH1 0x40 MSTORE CALLVALUE DUP1 ISZERO PUSH2 0x10 JUMPI PUSH1 0x0 DUP1 REVERT JUMPDEST POP PUSH1 0x4 CALLDATASIZE LT PUSH2 0xCF JUMPI PUSH1 0x0 CALLDATALOAD PUSH1 0xE0 SHR DUP1 PUSH4 0x622359B9 GT PUSH2 0x8C JUMPI DUP1 PUSH4 0x9D5C9300 GT PUSH2 0x66 JUMPI DUP1 PUSH4 0x9D5C9300 EQ PUSH2 0x244 JUMPI DUP1 PUSH4 0xDC5DFBE2 EQ PUSH2 0x262 JUMPI DUP1 PUSH4 0xEAD39A11 EQ PUSH2 0x27E JUMPI DUP1 PUSH4 0xF337278A EQ PUSH2 0x2B0 JUMPI PUSH2 0xCF JUMP JUMPDEST DUP1 PUSH4 0x622359B9 EQ PUSH2 0x1D4 JUMPI DUP1 PUSH4 0x65137757 EQ PUSH2 0x20A JUMPI DUP1 PUSH4 0x835331E1 EQ PUSH2 0x226 JUMPI PUSH2 0xCF JUMP JUMPDEST DUP1 PUSH4 0x4A73A4A EQ PUSH2 0xD4 JUMPI DUP1 PUSH4 0x1C0F8374 EQ PUSH2 0xF0 JUMPI DUP1 PUSH4 0x2813D19D EQ PUSH2 0x120 JUMPI DUP1 PUSH4 0x2D35A8A2 EQ PUSH2 0x153 JUMPI DUP1 PUSH4 0x3477EE2E EQ PUSH2 0x171 JUMPI DUP1 PUSH4 0x4FFD8141 EQ PUSH2 0x1A4 JUMPI JUMPDEST PUSH1 0x0 DUP1 REVERT JUMPDEST PUSH2 0xEE PUSH1 0x4 DUP1 CALLDATASIZE SUB DUP2 ADD SWAP1 PUSH2 0xE9 SWAP2 SWAP1 PUSH2 0xB65 JUMP JUMPDEST PUSH2 0x2CC JUMP JUMPDEST STOP JUMPDEST PUSH2 0x10A PUSH1 0x4 DUP1 CALLDATASIZE SUB DUP2 ADD SWAP1 PUSH2 0x105 SWAP2 SWAP1 PUSH2 0xB65 JUMP JUMPDEST PUSH2 0x39F JUMP JUMPDEST PUSH1 0x40 MLOAD PUSH2 0x117 SWAP2 SWAP1 PUSH2 0xBBE JUMP JUMPDEST PUSH1 0x40 MLOAD DUP1 SWAP2 SUB SWAP1 RETURN JUMPDEST PUSH2 0x13A PUSH1 0x4 DUP1 CALLDATASIZE SUB DUP2 ADD SWAP1 PUSH2 0x135 SWAP2 SWAP1 PUSH2 0xC05 JUMP JUMPDEST PUSH2 0x415 JUMP JUMPDEST PUSH1 0x40 MLOAD PUSH2 0x14A SWAP5 SWAP4 SWAP3 SWAP2 SWAP1 PUSH2 0xC5C JUMP JUMPDEST PUSH1 0x40 MLOAD DUP1 SWAP2 SUB SWAP1 RETURN JUMPDEST PUSH2 0x15B PUSH2 0x452 JUMP JUMPDEST PUSH1 0x40 MLOAD PUSH2 0x168 SWAP2 SWAP1 PUSH2 0xBBE JUMP JUMPDEST PUSH1 0x40 MLOAD DUP1 SWAP2 SUB SWAP1 RETURN JUMPDEST PUSH2 0x18B PUSH1 0x4 DUP1 CALLDATASIZE SUB DUP2 ADD SWAP1 PUSH2 0x186 SWAP2 SWAP1 PUSH2 0xC05 JUMP JUMPDEST PUSH2 0x458 JUMP JUMPDEST PUSH1 0x40 MLOAD PUSH2 0x19B SWAP5 SWAP4 SWAP3 SWAP2 SWAP1 PUSH2 0xC5C JUMP JUMPDEST PUSH1 0x40 MLOAD DUP1 SWAP2 SUB SWAP1 RETURN JUMPDEST PUSH2 0x1BE PUSH1 0x4 DUP1 CALLDATASIZE SUB DUP2 ADD SWAP1 PUSH2 0x1B9 SWAP2 SWAP1 PUSH2 0xB65 JUMP JUMPDEST PUSH2 0x495 JUMP JUMPDEST PUSH1 0x40 MLOAD PUSH2 0x1CB SWAP2 SWAP1 PUSH2 0xBBE JUMP JUMPDEST PUSH1 0x40 MLOAD DUP1 SWAP2 SUB SWAP1 RETURN JUMPDEST PUSH2 0x1EE PUSH1 0x4 DUP1 CALLDATASIZE SUB DUP2 ADD SWAP1 PUSH2 0x1E9 SWAP2 SWAP1 PUSH2 0xC05 JUMP JUMPDEST PUSH2 0x50D JUMP JUMPDEST PUSH1 0x40 MLOAD PUSH2 0x201 SWAP8 SWAP7 SWAP6 SWAP5 SWAP4 SWAP3 SWAP2 SWAP1 PUSH2 0xD31 JUMP JUMPDEST PUSH1 0x40 MLOAD DUP1 SWAP2 SUB SWAP1 RETURN JUMPDEST PUSH2 0x224 PUSH1 0x4 DUP1 CALLDATASIZE SUB DUP2 ADD SWAP1 PUSH2 0x21F SWAP2 SWAP1 PUSH2 0xDB5 JUMP JUMPDEST PUSH2 0x6F4 JUMP JUMPDEST STOP JUMPDEST PUSH2 0x22E PUSH2 0x864 JUMP JUMPDEST PUSH1 0x40 MLOAD PUSH2 0x23B SWAP2 SWAP1 PUSH2 0xBBE JUMP JUMPDEST PUSH1 0x40 MLOAD DUP1 SWAP2 SUB SWAP1 RETURN JUMPDEST PUSH2 0x24C PUSH2 0x86A JUMP JUMPDEST PUSH1 0x40 MLOAD PUSH2 0x259 SWAP2 SWAP1 PUSH2 0xBBE JUMP JUMPDEST PUSH1 0x40 MLOAD DUP1 SWAP2 SUB SWAP1 RETURN JUMPDEST PUSH2 0x27C PUSH1 0x4 DUP1 CALLDATASIZE SUB DUP2 ADD SWAP1 PUSH2 0x277 SWAP2 SWAP1 PUSH2 0xB65 JUMP JUMPDEST PUSH2 0x870 JUMP JUMPDEST STOP JUMPDEST PUSH2 0x298 PUSH1 0x4 DUP1 CALLDATASIZE SUB DUP2 ADD SWAP1 PUSH2 0x293 SWAP2 SWAP1 PUSH2 0xDB5 JUMP JUMPDEST PUSH2 0x944 JUMP JUMPDEST PUSH1 0x40 MLOAD PUSH2 0x2A7 SWAP4 SWAP3 SWAP2 SWAP1 PUSH2 0xDF5 JUMP JUMPDEST PUSH1 0x40 MLOAD DUP1 SWAP2 SUB SWAP1 RETURN JUMPDEST PUSH2 0x2CA PUSH1 0x4 DUP1 CALLDATASIZE SUB DUP2 ADD SWAP1 PUSH2 0x2C5 SWAP2 SWAP1 PUSH2 0xF61 JUMP JUMPDEST PUSH2 0x988 JUMP JUMPDEST STOP JUMPDEST PUSH1 0x1 PUSH1 0x0 DUP2 SLOAD DUP1 SWAP3 SWAP2 SWAP1 PUSH2 0x2DF SWAP1 PUSH2 0x105F JUMP JUMPDEST SWAP2 SWAP1 POP SSTORE POP PUSH1 0x40 MLOAD DUP1 PUSH1 0x80 ADD PUSH1 0x40 MSTORE DUP1 PUSH1 0x1 SLOAD DUP2 MSTORE PUSH1 0x20 ADD DUP4 DUP2 MSTORE PUSH1 0x20 ADD DUP3 DUP2 MSTORE PUSH1 0x20 ADD PUSH1 0x1 ISZERO ISZERO DUP2 MSTORE POP PUSH1 0x0 DUP1 PUSH1 0x1 SLOAD DUP2 MSTORE PUSH1 0x20 ADD SWAP1 DUP2 MSTORE PUSH1 0x20 ADD PUSH1 0x0 KECCAK256 PUSH1 0x0 DUP3 ADD MLOAD DUP2 PUSH1 0x0 ADD SSTORE PUSH1 0x20 DUP3 ADD MLOAD DUP2 PUSH1 0x1 ADD SSTORE PUSH1 0x40 DUP3 ADD MLOAD DUP2 PUSH1 0x2 ADD SSTORE PUSH1 0x60 DUP3 ADD MLOAD DUP2 PUSH1 0x3 ADD PUSH1 0x0 PUSH2 0x100 EXP DUP2 SLOAD DUP2 PUSH1 0xFF MUL NOT AND SWAP1 DUP4 ISZERO ISZERO MUL OR SWAP1 SSTORE POP SWAP1 POP POP PUSH1 0x1 SLOAD PUSH32 0x4455ED28EE39AAF03FB1A9A5DD8FC64FB3AD618F35B846ECE64142E8B9E99ACE DUP4 DUP4 PUSH1 0x40 MLOAD PUSH2 0x393 SWAP3 SWAP2 SWAP1 PUSH2 0x10A7 JUMP JUMPDEST PUSH1 0x40 MLOAD DUP1 SWAP2 SUB SWAP1 LOG2 POP POP JUMP JUMPDEST PUSH1 0x0 DUP1 PUSH1 0x1 SWAP1 POP JUMPDEST PUSH1 0x1 SLOAD DUP2 GT PUSH2 0x409 JUMPI DUP4 PUSH1 0x0 DUP1 DUP4 DUP2 MSTORE PUSH1 0x20 ADD SWAP1 DUP2 MSTORE PUSH1 0x20 ADD PUSH1 0x0 KECCAK256 PUSH1 0x1 ADD SLOAD EQ DUP1 ISZERO PUSH2 0x3E8 JUMPI POP DUP3 PUSH1 0x0 DUP1 DUP4 DUP2 MSTORE PUSH1 0x20 ADD SWAP1 DUP2 MSTORE PUSH1 0x20 ADD PUSH1 0x0 KECCAK256 PUSH1 0x2 ADD SLOAD EQ JUMPDEST ISZERO PUSH2 0x3F6 JUMPI DUP1 SWAP2 POP POP PUSH2 0x40F JUMP JUMPDEST DUP1 DUP1 PUSH2 0x401 SWAP1 PUSH2 0x105F JUMP JUMPDEST SWAP2 POP POP PUSH2 0x3A7 JUMP JUMPDEST POP PUSH1 0x0 SWAP1 POP JUMPDEST SWAP3 SWAP2 POP POP JUMP JUMPDEST PUSH1 0x2 PUSH1 0x20 MSTORE DUP1 PUSH1 0x0 MSTORE PUSH1 0x40 PUSH1 0x0 KECCAK256 PUSH1 0x0 SWAP2 POP SWAP1 POP DUP1 PUSH1 0x0 ADD SLOAD SWAP1 DUP1 PUSH1 0x1 ADD SLOAD SWAP1 DUP1 PUSH1 0x2 ADD SLOAD SWAP1 DUP1 PUSH1 0x3 ADD PUSH1 0x0 SWAP1 SLOAD SWAP1 PUSH2 0x100 EXP SWAP1 DIV PUSH1 0xFF AND SWAP1 POP DUP5 JUMP JUMPDEST PUSH1 0x1 SLOAD DUP2 JUMP JUMPDEST PUSH1 0x0 PUSH1 0x20 MSTORE DUP1 PUSH1 0x0 MSTORE PUSH1 0x40 PUSH1 0x0 KECCAK256 PUSH1 0x0 SWAP2 POP SWAP1 POP DUP1 PUSH1 0x0 ADD SLOAD SWAP1 DUP1 PUSH1 0x1 ADD SLOAD SWAP1 DUP1 PUSH1 0x2 ADD SLOAD SWAP1 DUP1 PUSH1 0x3 ADD PUSH1 0x0 SWAP1 SLOAD SWAP1 PUSH2 0x100 EXP SWAP1 DIV PUSH1 0xFF AND SWAP1 POP DUP5 JUMP JUMPDEST PUSH1 0x0 DUP1 PUSH1 0x1 SWAP1 POP JUMPDEST PUSH1 0x3 SLOAD DUP2 GT PUSH2 0x501 JUMPI DUP4 PUSH1 0x2 PUSH1 0x0 DUP4 DUP2 MSTORE PUSH1 0x20 ADD SWAP1 DUP2 MSTORE PUSH1 0x20 ADD PUSH1 0x0 KECCAK256 PUSH1 0x1 ADD SLOAD EQ DUP1 ISZERO PUSH2 0x4E0 JUMPI POP DUP3 PUSH1 0x2 PUSH1 0x0 DUP4 DUP2 MSTORE PUSH1 0x20 ADD SWAP1 DUP2 MSTORE PUSH1 0x20 ADD PUSH1 0x0 KECCAK256 PUSH1 0x2 ADD SLOAD EQ JUMPDEST ISZERO PUSH2 0x4EE JUMPI DUP1 SWAP2 POP POP PUSH2 0x507 JUMP JUMPDEST DUP1 DUP1 PUSH2 0x4F9 SWAP1 PUSH2 0x105F JUMP JUMPDEST SWAP2 POP POP PUSH2 0x49D JUMP JUMPDEST POP PUSH1 0x0 SWAP1 POP JUMPDEST SWAP3 SWAP2 POP POP JUMP JUMPDEST PUSH1 0x4 PUSH1 0x20 MSTORE DUP1 PUSH1 0x0 MSTORE PUSH1 0x40 PUSH1 0x0 KECCAK256 PUSH1 0x0 SWAP2 POP SWAP1 POP DUP1 PUSH1 0x0 ADD SLOAD SWAP1 DUP1 PUSH1 0x1 ADD SLOAD SWAP1 DUP1 PUSH1 0x2 ADD DUP1 SLOAD PUSH2 0x53C SWAP1 PUSH2 0x10FF JUMP JUMPDEST DUP1 PUSH1 0x1F ADD PUSH1 0x20 DUP1 SWAP2 DIV MUL PUSH1 0x20 ADD PUSH1 0x40 MLOAD SWAP1 DUP2 ADD PUSH1 0x40 MSTORE DUP1 SWAP3 SWAP2 SWAP1 DUP2 DUP2 MSTORE PUSH1 0x20 ADD DUP3 DUP1 SLOAD PUSH2 0x568 SWAP1 PUSH2 0x10FF JUMP JUMPDEST DUP1 ISZERO PUSH2 0x5B5 JUMPI DUP1 PUSH1 0x1F LT PUSH2 0x58A JUMPI PUSH2 0x100 DUP1 DUP4 SLOAD DIV MUL DUP4 MSTORE SWAP2 PUSH1 0x20 ADD SWAP2 PUSH2 0x5B5 JUMP JUMPDEST DUP3 ADD SWAP2 SWAP1 PUSH1 0x0 MSTORE PUSH1 0x20 PUSH1 0x0 KECCAK256 SWAP1 JUMPDEST DUP2 SLOAD DUP2 MSTORE SWAP1 PUSH1 0x1 ADD SWAP1 PUSH1 0x20 ADD DUP1 DUP4 GT PUSH2 0x598 JUMPI DUP3 SWAP1 SUB PUSH1 0x1F AND DUP3 ADD SWAP2 JUMPDEST POP POP POP POP POP SWAP1 DUP1 PUSH1 0x3 ADD DUP1 SLOAD PUSH2 0x5CA SWAP1 PUSH2 0x10FF JUMP JUMPDEST DUP1 PUSH1 0x1F ADD PUSH1 0x20 DUP1 SWAP2 DIV MUL PUSH1 0x20 ADD PUSH1 0x40 MLOAD SWAP1 DUP2 ADD PUSH1 0x40 MSTORE DUP1 SWAP3 SWAP2 SWAP1 DUP2 DUP2 MSTORE PUSH1 0x20 ADD DUP3 DUP1 SLOAD PUSH2 0x5F6 SWAP1 PUSH2 0x10FF JUMP JUMPDEST DUP1 ISZERO PUSH2 0x643 JUMPI DUP1 PUSH1 0x1F LT PUSH2 0x618 JUMPI PUSH2 0x100 DUP1 DUP4 SLOAD DIV MUL DUP4 MSTORE SWAP2 PUSH1 0x20 ADD SWAP2 PUSH2 0x643 JUMP JUMPDEST DUP3 ADD SWAP2 SWAP1 PUSH1 0x0 MSTORE PUSH1 0x20 PUSH1 0x0 KECCAK256 SWAP1 JUMPDEST DUP2 SLOAD DUP2 MSTORE SWAP1 PUSH1 0x1 ADD SWAP1 PUSH1 0x20 ADD DUP1 DUP4 GT PUSH2 0x626 JUMPI DUP3 SWAP1 SUB PUSH1 0x1F AND DUP3 ADD SWAP2 JUMPDEST POP POP POP POP POP SWAP1 DUP1 PUSH1 0x4 ADD DUP1 SLOAD PUSH2 0x658 SWAP1 PUSH2 0x10FF JUMP JUMPDEST DUP1 PUSH1 0x1F ADD PUSH1 0x20 DUP1 SWAP2 DIV MUL PUSH1 0x20 ADD PUSH1 0x40 MLOAD SWAP1 DUP2 ADD PUSH1 0x40 MSTORE DUP1 SWAP3 SWAP2 SWAP1 DUP2 DUP2 MSTORE PUSH1 0x20 ADD DUP3 DUP1 SLOAD PUSH2 0x684 SWAP1 PUSH2 0x10FF JUMP JUMPDEST DUP1 ISZERO PUSH2 0x6D1 JUMPI DUP1 PUSH1 0x1F LT PUSH2 0x6A6 JUMPI PUSH2 0x100 DUP1 DUP4 SLOAD DIV MUL DUP4 MSTORE SWAP2 PUSH1 0x20 ADD SWAP2 PUSH2 0x6D1 JUMP JUMPDEST DUP3 ADD SWAP2 SWAP1 PUSH1 0x0 MSTORE PUSH1 0x20 PUSH1 0x0 KECCAK256 SWAP1 JUMPDEST DUP2 SLOAD DUP2 MSTORE SWAP1 PUSH1 0x1 ADD SWAP1 PUSH1 0x20 ADD DUP1 DUP4 GT PUSH2 0x6B4 JUMPI DUP3 SWAP1 SUB PUSH1 0x1F AND DUP3 ADD SWAP2 JUMPDEST POP POP POP POP POP SWAP1 DUP1 PUSH1 0x5 ADD SLOAD SWAP1 DUP1 PUSH1 0x6 ADD PUSH1 0x0 SWAP1 SLOAD SWAP1 PUSH2 0x100 EXP SWAP1 DIV PUSH1 0xFF AND SWAP1 POP DUP8 JUMP JUMPDEST PUSH1 0x0 DUP1 DUP4 DUP2 MSTORE PUSH1 0x20 ADD SWAP1 DUP2 MSTORE PUSH1 0x20 ADD PUSH1 0x0 KECCAK256 PUSH1 0x3 ADD PUSH1 0x0 SWAP1 SLOAD SWAP1 PUSH2 0x100 EXP SWAP1 DIV PUSH1 0xFF AND PUSH2 0x756 JUMPI PUSH1 0x40 MLOAD PUSH32 0x8C379A000000000000000000000000000000000000000000000000000000000 DUP2 MSTORE PUSH1 0x4 ADD PUSH2 0x74D SWAP1 PUSH2 0x117C JUMP JUMPDEST PUSH1 0x40 MLOAD DUP1 SWAP2 SUB SWAP1 REVERT JUMPDEST PUSH1 0x4 PUSH1 0x0 DUP3 DUP2 MSTORE PUSH1 0x20 ADD SWAP1 DUP2 MSTORE PUSH1 0x20 ADD PUSH1 0x0 KECCAK256 PUSH1 0x6 ADD PUSH1 0x0 SWAP1 SLOAD SWAP1 PUSH2 0x100 EXP SWAP1 DIV PUSH1 0xFF AND PUSH2 0x7B9 JUMPI PUSH1 0x40 MLOAD PUSH32 0x8C379A000000000000000000000000000000000000000000000000000000000 DUP2 MSTORE PUSH1 0x4 ADD PUSH2 0x7B0 SWAP1 PUSH2 0x11E8 JUMP JUMPDEST PUSH1 0x40 MLOAD DUP1 SWAP2 SUB SWAP1 REVERT JUMPDEST PUSH1 0x40 MLOAD DUP1 PUSH1 0x60 ADD PUSH1 0x40 MSTORE DUP1 DUP4 DUP2 MSTORE PUSH1 0x20 ADD DUP3 DUP2 MSTORE PUSH1 0x20 ADD PUSH1 0x1 ISZERO ISZERO DUP2 MSTORE POP PUSH1 0x6 PUSH1 0x0 DUP4 DUP2 MSTORE PUSH1 0x20 ADD SWAP1 DUP2 MSTORE PUSH1 0x20 ADD PUSH1 0x0 KECCAK256 PUSH1 0x0 DUP5 DUP2 MSTORE PUSH1 0x20 ADD SWAP1 DUP2 MSTORE PUSH1 0x20 ADD PUSH1 0x0 KECCAK256 PUSH1 0x0 DUP3 ADD MLOAD DUP2 PUSH1 0x0 ADD SSTORE PUSH1 0x20 DUP3 ADD MLOAD DUP2 PUSH1 0x1 ADD SSTORE PUSH1 0x40 DUP3 ADD MLOAD DUP2 PUSH1 0x2 ADD PUSH1 0x0 PUSH2 0x100 EXP DUP2 SLOAD DUP2 PUSH1 0xFF MUL NOT AND SWAP1 DUP4 ISZERO ISZERO MUL OR SWAP1 SSTORE POP SWAP1 POP POP DUP1 DUP3 PUSH32 0x6B876628F8C5F4FCAD632C8571A96A818E3EFFF910C878D073AF50423E404683 PUSH1 0x40 MLOAD PUSH1 0x40 MLOAD DUP1 SWAP2 SUB SWAP1 LOG3 POP POP JUMP JUMPDEST PUSH1 0x3 SLOAD DUP2 JUMP JUMPDEST PUSH1 0x5 SLOAD DUP2 JUMP JUMPDEST PUSH1 0x3 PUSH1 0x0 DUP2 SLOAD DUP1 SWAP3 SWAP2 SWAP1 PUSH2 0x883 SWAP1 PUSH2 0x105F JUMP JUMPDEST SWAP2 SWAP1 POP SSTORE POP PUSH1 0x40 MLOAD DUP1 PUSH1 0x80 ADD PUSH1 0x40 MSTORE DUP1 PUSH1 0x3 SLOAD DUP2 MSTORE PUSH1 0x20 ADD DUP4 DUP2 MSTORE PUSH1 0x20 ADD DUP3 DUP2 MSTORE PUSH1 0x20 ADD PUSH1 0x1 ISZERO ISZERO DUP2 MSTORE POP PUSH1 0x2 PUSH1 0x0 PUSH1 0x3 SLOAD DUP2 MSTORE PUSH1 0x20 ADD SWAP1 DUP2 MSTORE PUSH1 0x20 ADD PUSH1 0x0 KECCAK256 PUSH1 0x0 DUP3 ADD MLOAD DUP2 PUSH1 0x0 ADD SSTORE PUSH1 0x20 DUP3 ADD MLOAD DUP2 PUSH1 0x1 ADD SSTORE PUSH1 0x40 DUP3 ADD MLOAD DUP2 PUSH1 0x2 ADD SSTORE PUSH1 0x60 DUP3 ADD MLOAD DUP2 PUSH1 0x3 ADD PUSH1 0x0 PUSH2 0x100 EXP DUP2 SLOAD DUP2 PUSH1 0xFF MUL NOT AND SWAP1 DUP4 ISZERO ISZERO MUL OR SWAP1 SSTORE POP SWAP1 POP POP PUSH1 0x3 SLOAD PUSH32 0xC1782B21005548A37C32DA9A3DE550D523B74683DEFDF701C8F1BCBA41338987 DUP4 DUP4 PUSH1 0x40 MLOAD PUSH2 0x938 SWAP3 SWAP2 SWAP1 PUSH2 0x10A7 JUMP JUMPDEST PUSH1 0x40 MLOAD DUP1 SWAP2 SUB SWAP1 LOG2 POP POP JUMP JUMPDEST PUSH1 0x6 PUSH1 0x20 MSTORE DUP2 PUSH1 0x0 MSTORE PUSH1 0x40 PUSH1 0x0 KECCAK256 PUSH1 0x20 MSTORE DUP1 PUSH1 0x0 MSTORE PUSH1 0x40 PUSH1 0x0 KECCAK256 PUSH1 0x0 SWAP2 POP SWAP2 POP POP DUP1 PUSH1 0x0 ADD SLOAD SWAP1 DUP1 PUSH1 0x1 ADD SLOAD SWAP1 DUP1 PUSH1 0x2 ADD PUSH1 0x0 SWAP1 SLOAD SWAP1 PUSH2 0x100 EXP SWAP1 DIV PUSH1 0xFF AND SWAP1 POP DUP4 JUMP JUMPDEST PUSH1 0x2 PUSH1 0x0 DUP7 DUP2 MSTORE PUSH1 0x20 ADD SWAP1 DUP2 MSTORE PUSH1 0x20 ADD PUSH1 0x0 KECCAK256 PUSH1 0x3 ADD PUSH1 0x0 SWAP1 SLOAD SWAP1 PUSH2 0x100 EXP SWAP1 DIV PUSH1 0xFF AND PUSH2 0x9EB JUMPI PUSH1 0x40 MLOAD PUSH32 0x8C379A000000000000000000000000000000000000000000000000000000000 DUP2 MSTORE PUSH1 0x4 ADD PUSH2 0x9E2 SWAP1 PUSH2 0x1254 JUMP JUMPDEST PUSH1 0x40 MLOAD DUP1 SWAP2 SUB SWAP1 REVERT JUMPDEST PUSH1 0x5 PUSH1 0x0 DUP2 SLOAD DUP1 SWAP3 SWAP2 SWAP1 PUSH2 0x9FE SWAP1 PUSH2 0x105F JUMP JUMPDEST SWAP2 SWAP1 POP SSTORE POP PUSH1 0x40 MLOAD DUP1 PUSH1 0xE0 ADD PUSH1 0x40 MSTORE DUP1 PUSH1 0x5 SLOAD DUP2 MSTORE PUSH1 0x20 ADD DUP7 DUP2 MSTORE PUSH1 0x20 ADD DUP6 DUP2 MSTORE PUSH1 0x20 ADD DUP5 DUP2 MSTORE PUSH1 0x20 ADD DUP4 DUP2 MSTORE PUSH1 0x20 ADD DUP3 DUP2 MSTORE PUSH1 0x20 ADD PUSH1 0x1 ISZERO ISZERO DUP2 MSTORE POP PUSH1 0x4 PUSH1 0x0 PUSH1 0x5 SLOAD DUP2 MSTORE PUSH1 0x20 ADD SWAP1 DUP2 MSTORE PUSH1 0x20 ADD PUSH1 0x0 KECCAK256 PUSH1 0x0 DUP3 ADD MLOAD DUP2 PUSH1 0x0 ADD SSTORE PUSH1 0x20 DUP3 ADD MLOAD DUP2 PUSH1 0x1 ADD SSTORE PUSH1 0x40 DUP3 ADD MLOAD DUP2 PUSH1 0x2 ADD SWAP1 DUP2 PUSH2 0xA79 SWAP2 SWAP1 PUSH2 0x1420 JUMP JUMPDEST POP PUSH1 0x60 DUP3 ADD MLOAD DUP2 PUSH1 0x3 ADD SWAP1 DUP2 PUSH2 0xA8F SWAP2 SWAP1 PUSH2 0x1420 JUMP JUMPDEST POP PUSH1 0x80 DUP3 ADD MLOAD DUP2 PUSH1 0x4 ADD SWAP1 DUP2 PUSH2 0xAA5 SWAP2 SWAP1 PUSH2 0x1420 JUMP JUMPDEST POP PUSH1 0xA0 DUP3 ADD MLOAD DUP2 PUSH1 0x5 ADD SSTORE PUSH1 0xC0 DUP3 ADD MLOAD DUP2 PUSH1 0x6 ADD PUSH1 0x0 PUSH2 0x100 EXP DUP2 SLOAD DUP2 PUSH1 0xFF MUL NOT AND SWAP1 DUP4 ISZERO ISZERO MUL OR SWAP1 SSTORE POP SWAP1 POP POP DUP5 PUSH1 0x5 SLOAD PUSH32 0xE3B4ED9D39BB2A31DED1D12D40D929FF7396BA2ABFFE35C8C51B1F17E6D7B7C3 DUP7 DUP7 DUP7 DUP7 PUSH1 0x40 MLOAD PUSH2 0xB0C SWAP5 SWAP4 SWAP3 SWAP2 SWAP1 PUSH2 0x14F2 JUMP JUMPDEST PUSH1 0x40 MLOAD DUP1 SWAP2 SUB SWAP1 LOG3 POP POP POP POP POP JUMP JUMPDEST PUSH1 0x0 PUSH1 0x40 MLOAD SWAP1 POP SWAP1 JUMP JUMPDEST PUSH1 0x0 DUP1 REVERT JUMPDEST PUSH1 0x0 DUP1 REVERT JUMPDEST PUSH1 0x0 DUP2 SWAP1 POP SWAP2 SWAP1 POP JUMP JUMPDEST PUSH2 0xB42 DUP2 PUSH2 0xB2F JUMP JUMPDEST DUP2 EQ PUSH2 0xB4D JUMPI PUSH1 0x0 DUP1 REVERT JUMPDEST POP JUMP JUMPDEST PUSH1 0x0 DUP2 CALLDATALOAD SWAP1 POP PUSH2 0xB5F DUP2 PUSH2 0xB39 JUMP JUMPDEST SWAP3 SWAP2 POP POP JUMP JUMPDEST PUSH1 0x0 DUP1 PUSH1 0x40 DUP4 DUP6 SUB SLT ISZERO PUSH2 0xB7C JUMPI PUSH2 0xB7B PUSH2 0xB25 JUMP JUMPDEST JUMPDEST PUSH1 0x0 PUSH2 0xB8A DUP6 DUP3 DUP7 ADD PUSH2 0xB50 JUMP JUMPDEST SWAP3 POP POP PUSH1 0x20 PUSH2 0xB9B DUP6 DUP3 DUP7 ADD PUSH2 0xB50 JUMP JUMPDEST SWAP2 POP POP SWAP3 POP SWAP3 SWAP1 POP JUMP JUMPDEST PUSH1 0x0 DUP2 SWAP1 POP SWAP2 SWAP1 POP JUMP JUMPDEST PUSH2 0xBB8 DUP2 PUSH2 0xBA5 JUMP JUMPDEST DUP3 MSTORE POP POP JUMP JUMPDEST PUSH1 0x0 PUSH1 0x20 DUP3 ADD SWAP1 POP PUSH2 0xBD3 PUSH1 0x0 DUP4 ADD DUP5 PUSH2 0xBAF JUMP JUMPDEST SWAP3 SWAP2 POP POP JUMP JUMPDEST PUSH2 0xBE2 DUP2 PUSH2 0xBA5 JUMP JUMPDEST DUP2 EQ PUSH2 0xBED JUMPI PUSH1 0x0 DUP1 REVERT JUMPDEST POP JUMP JUMPDEST PUSH1 0x0 DUP2 CALLDATALOAD SWAP1 POP PUSH2 0xBFF DUP2 PUSH2 0xBD9 JUMP JUMPDEST SWAP3 SWAP2 POP POP JUMP JUMPDEST PUSH1 0x0 PUSH1 0x20 DUP3 DUP5 SUB SLT ISZERO PUSH2 0xC1B JUMPI PUSH2 0xC1A PUSH2 0xB25 JUMP JUMPDEST JUMPDEST PUSH1 0x0 PUSH2 0xC29 DUP5 DUP3 DUP6 ADD PUSH2 0xBF0 JUMP JUMPDEST SWAP2 POP POP SWAP3 SWAP2 POP POP JUMP JUMPDEST PUSH2 0xC3B DUP2 PUSH2 0xB2F JUMP JUMPDEST DUP3 MSTORE POP POP JUMP JUMPDEST PUSH1 0x0 DUP2 ISZERO ISZERO SWAP1 POP SWAP2 SWAP1 POP JUMP JUMPDEST PUSH2 0xC56 DUP2 PUSH2 0xC41 JUMP JUMPDEST DUP3 MSTORE POP POP JUMP JUMPDEST PUSH1 0x0 PUSH1 0x80 DUP3 ADD SWAP1 POP PUSH2 0xC71 PUSH1 0x0 DUP4 ADD DUP8 PUSH2 0xBAF JUMP JUMPDEST PUSH2 0xC7E PUSH1 0x20 DUP4 ADD DUP7 PUSH2 0xC32 JUMP JUMPDEST PUSH2 0xC8B PUSH1 0x40 DUP4 ADD DUP6 PUSH2 0xC32 JUMP JUMPDEST PUSH2 0xC98 PUSH1 0x60 DUP4 ADD DUP5 PUSH2 0xC4D JUMP JUMPDEST SWAP6 SWAP5 POP POP POP POP POP JUMP JUMPDEST PUSH1 0x0 DUP2 MLOAD SWAP1 POP SWAP2 SWAP1 POP JUMP JUMPDEST PUSH1 0x0 DUP3 DUP3 MSTORE PUSH1 0x20 DUP3 ADD SWAP1 POP SWAP3 SWAP2 POP POP JUMP JUMPDEST PUSH1 0x0 JUMPDEST DUP4 DUP2 LT ISZERO PUSH2 0xCDB JUMPI DUP1 DUP3 ADD MLOAD DUP2 DUP5 ADD MSTORE PUSH1 0x20 DUP2 ADD SWAP1 POP PUSH2 0xCC0 JUMP JUMPDEST PUSH1 0x0 DUP5 DUP5 ADD MSTORE POP POP POP POP JUMP JUMPDEST PUSH1 0x0 PUSH1 0x1F NOT PUSH1 0x1F DUP4 ADD AND SWAP1 POP SWAP2 SWAP1 POP JUMP JUMPDEST PUSH1 0x0 PUSH2 0xD03 DUP3 PUSH2 0xCA1 JUMP JUMPDEST PUSH2 0xD0D DUP2 DUP6 PUSH2 0xCAC JUMP JUMPDEST SWAP4 POP PUSH2 0xD1D DUP2 DUP6 PUSH1 0x20 DUP7 ADD PUSH2 0xCBD JUMP JUMPDEST PUSH2 0xD26 DUP2 PUSH2 0xCE7 JUMP JUMPDEST DUP5 ADD SWAP2 POP POP SWAP3 SWAP2 POP POP JUMP JUMPDEST PUSH1 0x0 PUSH1 0xE0 DUP3 ADD SWAP1 POP PUSH2 0xD46 PUSH1 0x0 DUP4 ADD DUP11 PUSH2 0xBAF JUMP JUMPDEST PUSH2 0xD53 PUSH1 0x20 DUP4 ADD DUP10 PUSH2 0xBAF JUMP JUMPDEST DUP2 DUP2 SUB PUSH1 0x40 DUP4 ADD MSTORE PUSH2 0xD65 DUP2 DUP9 PUSH2 0xCF8 JUMP JUMPDEST SWAP1 POP DUP2 DUP2 SUB PUSH1 0x60 DUP4 ADD MSTORE PUSH2 0xD79 DUP2 DUP8 PUSH2 0xCF8 JUMP JUMPDEST SWAP1 POP DUP2 DUP2 SUB PUSH1 0x80 DUP4 ADD MSTORE PUSH2 0xD8D DUP2 DUP7 PUSH2 0xCF8 JUMP JUMPDEST SWAP1 POP PUSH2 0xD9C PUSH1 0xA0 DUP4 ADD DUP6 PUSH2 0xBAF JUMP JUMPDEST PUSH2 0xDA9 PUSH1 0xC0 DUP4 ADD DUP5 PUSH2 0xC4D JUMP JUMPDEST SWAP9 SWAP8 POP POP POP POP POP POP POP POP JUMP JUMPDEST PUSH1 0x0 DUP1 PUSH1 0x40 DUP4 DUP6 SUB SLT ISZERO PUSH2 0xDCC JUMPI PUSH2 0xDCB PUSH2 0xB25 JUMP JUMPDEST JUMPDEST PUSH1 0x0 PUSH2 0xDDA DUP6 DUP3 DUP7 ADD PUSH2 0xBF0 JUMP JUMPDEST SWAP3 POP POP PUSH1 0x20 PUSH2 0xDEB DUP6 DUP3 DUP7 ADD PUSH2 0xBF0 JUMP JUMPDEST SWAP2 POP POP SWAP3 POP SWAP3 SWAP1 POP JUMP JUMPDEST PUSH1 0x0 PUSH1 0x60 DUP3 ADD SWAP1 POP PUSH2 0xE0A PUSH1 0x0 DUP4 ADD DUP7 PUSH2 0xBAF JUMP JUMPDEST PUSH2 0xE17 PUSH1 0x20 DUP4 ADD DUP6 PUSH2 0xBAF JUMP JUMPDEST PUSH2 0xE24 PUSH1 0x40 DUP4 ADD DUP5 PUSH2 0xC4D JUMP JUMPDEST SWAP5 SWAP4 POP POP POP POP JUMP JUMPDEST PUSH1 0x0 DUP1 REVERT JUMPDEST PUSH1 0x0 DUP1 REVERT JUMPDEST PUSH32 0x4E487B7100000000000000000000000000000000000000000000000000000000 PUSH1 0x0 MSTORE PUSH1 0x41 PUSH1 0x4 MSTORE PUSH1 0x24 PUSH1 0x0 REVERT JUMPDEST PUSH2 0xE6E DUP3 PUSH2 0xCE7 JUMP JUMPDEST DUP2 ADD DUP2 DUP2 LT PUSH8 0xFFFFFFFFFFFFFFFF DUP3 GT OR ISZERO PUSH2 0xE8D JUMPI PUSH2 0xE8C PUSH2 0xE36 JUMP JUMPDEST JUMPDEST DUP1 PUSH1 0x40 MSTORE POP POP POP JUMP JUMPDEST PUSH1 0x0 PUSH2 0xEA0 PUSH2 0xB1B JUMP JUMPDEST SWAP1 POP PUSH2 0xEAC DUP3 DUP3 PUSH2 0xE65 JUMP JUMPDEST SWAP2 SWAP1 POP JUMP JUMPDEST PUSH1 0x0 PUSH8 0xFFFFFFFFFFFFFFFF DUP3 GT ISZERO PUSH2 0xECC JUMPI PUSH2 0xECB PUSH2 0xE36 JUMP JUMPDEST JUMPDEST PUSH2 0xED5 DUP3 PUSH2 0xCE7 JUMP JUMPDEST SWAP1 POP PUSH1 0x20 DUP2 ADD SWAP1 POP SWAP2 SWAP1 POP JUMP JUMPDEST DUP3 DUP2 DUP4 CALLDATACOPY PUSH1 0x0 DUP4 DUP4 ADD MSTORE POP POP POP JUMP JUMPDEST PUSH1 0x0 PUSH2 0xF04 PUSH2 0xEFF DUP5 PUSH2 0xEB1 JUMP JUMPDEST PUSH2 0xE96 JUMP JUMPDEST SWAP1 POP DUP3 DUP2 MSTORE PUSH1 0x20 DUP2 ADD DUP5 DUP5 DUP5 ADD GT ISZERO PUSH2 0xF20 JUMPI PUSH2 0xF1F PUSH2 0xE31 JUMP JUMPDEST JUMPDEST PUSH2 0xF2B DUP5 DUP3 DUP6 PUSH2 0xEE2 JUMP JUMPDEST POP SWAP4 SWAP3 POP POP POP JUMP JUMPDEST PUSH1 0x0 DUP3 PUSH1 0x1F DUP4 ADD SLT PUSH2 0xF48 JUMPI PUSH2 0xF47 PUSH2 0xE2C JUMP JUMPDEST JUMPDEST DUP2 CALLDATALOAD PUSH2 0xF58 DUP5 DUP3 PUSH1 0x20 DUP7 ADD PUSH2 0xEF1 JUMP JUMPDEST SWAP2 POP POP SWAP3 SWAP2 POP POP JUMP JUMPDEST PUSH1 0x0 DUP1 PUSH1 0x0 DUP1 PUSH1 0x0 PUSH1 0xA0 DUP7 DUP9 SUB SLT ISZERO PUSH2 0xF7D JUMPI PUSH2 0xF7C PUSH2 0xB25 JUMP JUMPDEST JUMPDEST PUSH1 0x0 PUSH2 0xF8B DUP9 DUP3 DUP10 ADD PUSH2 0xBF0 JUMP JUMPDEST SWAP6 POP POP PUSH1 0x20 DUP7 ADD CALLDATALOAD PUSH8 0xFFFFFFFFFFFFFFFF DUP2 GT ISZERO PUSH2 0xFAC JUMPI PUSH2 0xFAB PUSH2 0xB2A JUMP JUMPDEST JUMPDEST PUSH2 0xFB8 DUP9 DUP3 DUP10 ADD PUSH2 0xF33 JUMP JUMPDEST SWAP5 POP POP PUSH1 0x40 DUP7 ADD CALLDATALOAD PUSH8 0xFFFFFFFFFFFFFFFF DUP2 GT ISZERO PUSH2 0xFD9 JUMPI PUSH2 0xFD8 PUSH2 0xB2A JUMP JUMPDEST JUMPDEST PUSH2 0xFE5 DUP9 DUP3 DUP10 ADD PUSH2 0xF33 JUMP JUMPDEST SWAP4 POP POP PUSH1 0x60 DUP7 ADD CALLDATALOAD PUSH8 0xFFFFFFFFFFFFFFFF DUP2 GT ISZERO PUSH2 0x1006 JUMPI PUSH2 0x1005 PUSH2 0xB2A JUMP JUMPDEST JUMPDEST PUSH2 0x1012 DUP9 DUP3 DUP10 ADD PUSH2 0xF33 JUMP JUMPDEST SWAP3 POP POP PUSH1 0x80 PUSH2 0x1023 DUP9 DUP3 DUP10 ADD PUSH2 0xBF0 JUMP JUMPDEST SWAP2 POP POP SWAP3 SWAP6 POP SWAP3 SWAP6 SWAP1 SWAP4 POP JUMP JUMPDEST PUSH32 0x4E487B7100000000000000000000000000000000000000000000000000000000 PUSH1 0x0 MSTORE PUSH1 0x11 PUSH1 0x4 MSTORE PUSH1 0x24 PUSH1 0x0 REVERT JUMPDEST PUSH1 0x0 PUSH2 0x106A DUP3 PUSH2 0xBA5 JUMP JUMPDEST SWAP2 POP PUSH32 0xFFFFFFFFFFFFFFFFFFFFFFFFFFFFFFFFFFFFFFFFFFFFFFFFFFFFFFFFFFFFFFFF DUP3 SUB PUSH2 0x109C JUMPI PUSH2 0x109B PUSH2 0x1030 JUMP JUMPDEST JUMPDEST PUSH1 0x1 DUP3 ADD SWAP1 POP SWAP2 SWAP1 POP JUMP JUMPDEST PUSH1 0x0 PUSH1 0x40 DUP3 ADD SWAP1 POP PUSH2 0x10BC PUSH1 0x0 DUP4 ADD DUP6 PUSH2 0xC32 JUMP JUMPDEST PUSH2 0x10C9 PUSH1 0x20 DUP4 ADD DUP5 PUSH2 0xC32 JUMP JUMPDEST SWAP4 SWAP3 POP POP POP JUMP JUMPDEST PUSH32 0x4E487B7100000000000000000000000000000000000000000000000000000000 PUSH1 0x0 MSTORE PUSH1 0x22 PUSH1 0x4 MSTORE PUSH1 0x24 PUSH1 0x0 REVERT JUMPDEST PUSH1 0x0 PUSH1 0x2 DUP3 DIV SWAP1 POP PUSH1 0x1 DUP3 AND DUP1 PUSH2 0x1117 JUMPI PUSH1 0x7F DUP3 AND SWAP2 POP JUMPDEST PUSH1 0x20 DUP3 LT DUP2 SUB PUSH2 0x112A JUMPI PUSH2 0x1129 PUSH2 0x10D0 JUMP JUMPDEST JUMPDEST POP SWAP2 SWAP1 POP JUMP JUMPDEST PUSH32 0x43616E646964617465206E6F7420616374697665000000000000000000000000 PUSH1 0x0 DUP3 ADD MSTORE POP JUMP JUMPDEST PUSH1 0x0 PUSH2 0x1166 PUSH1 0x14 DUP4 PUSH2 0xCAC JUMP JUMPDEST SWAP2 POP PUSH2 0x1171 DUP3 PUSH2 0x1130 JUMP JUMPDEST PUSH1 0x20 DUP3 ADD SWAP1 POP SWAP2 SWAP1 POP JUMP JUMPDEST PUSH1 0x0 PUSH1 0x20 DUP3 ADD SWAP1 POP DUP2 DUP2 SUB PUSH1 0x0 DUP4 ADD MSTORE PUSH2 0x1195 DUP2 PUSH2 0x1159 JUMP JUMPDEST SWAP1 POP SWAP2 SWAP1 POP JUMP JUMPDEST PUSH32 0x4A6F6220706F7374696E67206E6F742061637469766500000000000000000000 PUSH1 0x0 DUP3 ADD MSTORE POP JUMP JUMPDEST PUSH1 0x0 PUSH2 0x11D2 PUSH1 0x16 DUP4 PUSH2 0xCAC JUMP JUMPDEST SWAP2 POP PUSH2 0x11DD DUP3 PUSH2 0x119C JUMP JUMPDEST PUSH1 0x20 DUP3 ADD SWAP1 POP SWAP2 SWAP1 POP JUMP JUMPDEST PUSH1 0x0 PUSH1 0x20 DUP3 ADD SWAP1 POP DUP2 DUP2 SUB PUSH1 0x0 DUP4 ADD MSTORE PUSH2 0x1201 DUP2 PUSH2 0x11C5 JUMP JUMPDEST SWAP1 POP SWAP2 SWAP1 POP JUMP JUMPDEST PUSH32 0x436F6D70616E79206E6F74206163746976650000000000000000000000000000 PUSH1 0x0 DUP3 ADD MSTORE POP JUMP JUMPDEST PUSH1 0x0 PUSH2 0x123E PUSH1 0x12 DUP4 PUSH2 0xCAC JUMP JUMPDEST SWAP2 POP PUSH2 0x1249 DUP3 PUSH2 0x1208 JUMP JUMPDEST PUSH1 0x20 DUP3 ADD SWAP1 POP SWAP2 SWAP1 POP JUMP JUMPDEST PUSH1 0x0 PUSH1 0x20 DUP3 ADD SWAP1 POP DUP2 DUP2 SUB PUSH1 0x0 DUP4 ADD MSTORE PUSH2 0x126D DUP2 PUSH2 0x1231 JUMP JUMPDEST SWAP1 POP SWAP2 SWAP1 POP JUMP JUMPDEST PUSH1 0x0 DUP2 SWAP1 POP DUP2 PUSH1 0x0 MSTORE PUSH1 0x20 PUSH1 0x0 KECCAK256 SWAP1 POP SWAP2 SWAP1 POP JUMP JUMPDEST PUSH1 0x0 PUSH1 0x20 PUSH1 0x1F DUP4 ADD DIV SWAP1 POP SWAP2 SWAP1 POP JUMP JUMPDEST PUSH1 0x0 DUP3 DUP3 SHL SWAP1 POP SWAP3 SWAP2 POP POP JUMP JUMPDEST PUSH1 0x0 PUSH1 0x8 DUP4 MUL PUSH2 0x12D6 PUSH32 0xFFFFFFFFFFFFFFFFFFFFFFFFFFFFFFFFFFFFFFFFFFFFFFFFFFFFFFFFFFFFFFFF DUP3 PUSH2 0x1299 JUMP JUMPDEST PUSH2 0x12E0 DUP7 DUP4 PUSH2 0x1299 JUMP JUMPDEST SWAP6 POP DUP1 NOT DUP5 AND SWAP4 POP DUP1 DUP7 AND DUP5 OR SWAP3 POP POP POP SWAP4 SWAP3 POP POP POP JUMP JUMPDEST PUSH1 0x0 DUP2 SWAP1 POP SWAP2 SWAP1 POP JUMP JUMPDEST PUSH1 0x0 PUSH2 0x131D PUSH2 0x1318 PUSH2 0x1313 DUP5 PUSH2 0xBA5 JUMP JUMPDEST PUSH2 0x12F8 JUMP JUMPDEST PUSH2 0xBA5 JUMP JUMPDEST SWAP1 POP SWAP2 SWAP1 POP JUMP JUMPDEST PUSH1 0x0 DUP2 SWAP1 POP SWAP2 SWAP1 POP JUMP JUMPDEST PUSH2 0x1337 DUP4 PUSH2 0x1302 JUMP JUMPDEST PUSH2 0x134B PUSH2 0x1343 DUP3 PUSH2 0x1324 JUMP JUMPDEST DUP5 DUP5 SLOAD PUSH2 0x12A6 JUMP JUMPDEST DUP3 SSTORE POP POP POP POP JUMP JUMPDEST PUSH1 0x0 SWAP1 JUMP JUMPDEST PUSH2 0x1360 PUSH2 0x1353 JUMP JUMPDEST PUSH2 0x136B DUP2 DUP5 DUP5 PUSH2 0x132E JUMP JUMPDEST POP POP POP JUMP JUMPDEST JUMPDEST DUP2 DUP2 LT ISZERO PUSH2 0x138F JUMPI PUSH2 0x1384 PUSH1 0x0 DUP3 PUSH2 0x1358 JUMP JUMPDEST PUSH1 0x1 DUP2 ADD SWAP1 POP PUSH2 0x1371 JUMP JUMPDEST POP POP JUMP JUMPDEST PUSH1 0x1F DUP3 GT ISZERO PUSH2 0x13D4 JUMPI PUSH2 0x13A5 DUP2 PUSH2 0x1274 JUMP JUMPDEST PUSH2 0x13AE DUP5 PUSH2 0x1289 JUMP JUMPDEST DUP2 ADD PUSH1 0x20 DUP6 LT ISZERO PUSH2 0x13BD JUMPI DUP2 SWAP1 POP JUMPDEST PUSH2 0x13D1 PUSH2 0x13C9 DUP6 PUSH2 0x1289 JUMP JUMPDEST DUP4 ADD DUP3 PUSH2 0x1370 JUMP JUMPDEST POP POP JUMPDEST POP POP POP JUMP JUMPDEST PUSH1 0x0 DUP3 DUP3 SHR SWAP1 POP SWAP3 SWAP2 POP POP JUMP JUMPDEST PUSH1 0x0 PUSH2 0x13F7 PUSH1 0x0 NOT DUP5 PUSH1 0x8 MUL PUSH2 0x13D9 JUMP JUMPDEST NOT DUP1 DUP4 AND SWAP2 POP POP SWAP3 SWAP2 POP POP JUMP JUMPDEST PUSH1 0x0 PUSH2 0x1410 DUP4 DUP4 PUSH2 0x13E6 JUMP JUMPDEST SWAP2 POP DUP3 PUSH1 0x2 MUL DUP3 OR SWAP1 POP SWAP3 SWAP2 POP POP JUMP JUMPDEST PUSH2 0x1429 DUP3 PUSH2 0xCA1 JUMP JUMPDEST PUSH8 0xFFFFFFFFFFFFFFFF DUP2 GT ISZERO PUSH2 0x1442 JUMPI PUSH2 0x1441 PUSH2 0xE36 JUMP JUMPDEST JUMPDEST PUSH2 0x144C DUP3 SLOAD PUSH2 0x10FF JUMP JUMPDEST PUSH2 0x1457 DUP3 DUP3 DUP6 PUSH2 0x1393 JUMP JUMPDEST PUSH1 0x0 PUSH1 0x20 SWAP1 POP PUSH1 0x1F DUP4 GT PUSH1 0x1 DUP2 EQ PUSH2 0x148A JUMPI PUSH1 0x0 DUP5 ISZERO PUSH2 0x1478 JUMPI DUP3 DUP8 ADD MLOAD SWAP1 POP JUMPDEST PUSH2 0x1482 DUP6 DUP3 PUSH2 0x1404 JUMP JUMPDEST DUP7 SSTORE POP PUSH2 0x14EA JUMP JUMPDEST PUSH1 0x1F NOT DUP5 AND PUSH2 0x1498 DUP7 PUSH2 0x1274 JUMP JUMPDEST PUSH1 0x0 JUMPDEST DUP3 DUP2 LT ISZERO PUSH2 0x14C0 JUMPI DUP5 DUP10 ADD MLOAD DUP3 SSTORE PUSH1 0x1 DUP3 ADD SWAP2 POP PUSH1 0x20 DUP6 ADD SWAP5 POP PUSH1 0x20 DUP2 ADD SWAP1 POP PUSH2 0x149B JUMP JUMPDEST DUP7 DUP4 LT ISZERO PUSH2 0x14DD JUMPI DUP5 DUP10 ADD MLOAD PUSH2 0x14D9 PUSH1 0x1F DUP10 AND DUP3 PUSH2 0x13E6 JUMP JUMPDEST DUP4 SSTORE POP JUMPDEST PUSH1 0x1 PUSH1 0x2 DUP9 MUL ADD DUP9 SSTORE POP POP POP JUMPDEST POP POP POP POP POP POP JUMP JUMPDEST PUSH1 0x0 PUSH1 0x80 DUP3 ADD SWAP1 POP DUP2 DUP2 SUB PUSH1 0x0 DUP4 ADD MSTORE PUSH2 0x150C DUP2 DUP8 PUSH2 0xCF8 JUMP JUMPDEST SWAP1 POP DUP2 DUP2 SUB PUSH1 0x20 DUP4 ADD MSTORE PUSH2 0x1520 DUP2 DUP7 PUSH2 0xCF8 JUMP JUMPDEST SWAP1 POP DUP2 DUP2 SUB PUSH1 0x40 DUP4 ADD MSTORE PUSH2 0x1534 DUP2 DUP6 PUSH2 0xCF8 JUMP JUMPDEST SWAP1 POP PUSH2 0x1543 PUSH1 0x60 DUP4 ADD DUP5 PUSH2 0xBAF JUMP JUMPDEST SWAP6 SWAP5 POP POP POP POP POP JUMP INVALID LOG2 PUSH5 0x6970667358 0x22 SLT KECCAK256 0xC8 KECCAK256 MULMOD POP RETURNDATACOPY 0xC5 0xB6 0xB7 0x22 SDIV 0xE CALLDATALOAD REVERT SWAP6 LT 0xAA 0xCC REVERT EXTCODECOPY SELFBALANCE 0xC5 0xFC DIV DUP3 0x2B 0x4F 0x5D SHL 0x5E PUSH19 0x5F9764736F6C63430008120033000000000000 "},"methodIdentifiers":{"applyToJobPosting(uint256,uint256)":"65137757","candidates(uint256)":"3477ee2e","candidatesCount()":"2d35a8a2","companies(uint256)":"2813d19d","companiesCount()":"835331e1","createCandidateProfile(bytes32,bytes32)":"04a73a4a","createCompanyProfile(bytes32,bytes32)":"dc5dfbe2","createJobPosting(uint256,string,string,string,uint256)":"f337278a","getCandidateId(bytes32,bytes32)":"1c0f8374","getCompanyId(bytes32,bytes32)":"4ffd8141","jobApplications(uint256,uint256)":"ead39a11","jobPostings(uint256)":"622359b9","jobPostingsCount()":"9d5c9300"}}}}}