{
  "_format": "hh-sol-artifact-1",
  "contractName": "JobPlatform",
  "sourceName": "contracts/JobPlatform.sol",
  "abi": [
    {
      "anonymous": false,
      "inputs": [
        {
          "indexed": false,
          "internalType": "uint256",
          "name": "jobPostingId",
          "type": "uint256"
        },
        {
          "indexed": false,
          "internalType": "address",
          "name": "owner",
          "type": "address"
        }
      ],
      "name": "JobPostingDeleted",
      "type": "event"
    },
    {
      "anonymous": false,
      "inputs": [
        {
          "indexed": false,
          "internalType": "uint256",
          "name": "jobPostingId",
          "type": "uint256"
        },
        {
          "indexed": false,
          "internalType": "address",
          "name": "owner",
          "type": "address"
        }
      ],
      "name": "NewJobPosting",
      "type": "event"
    },
    {
      "inputs": [
        {
          "internalType": "uint256",
          "name": "_jobPostingId",
          "type": "uint256"
        }
      ],
      "name": "applyToJobPosting",
      "outputs": [],
      "stateMutability": "nonpayable",
      "type": "function"
    },
    {
      "inputs": [
        {
          "internalType": "address",
          "name": "",
          "type": "address"
        }
      ],
      "name": "candidates",
      "outputs": [
        {
          "internalType": "address",
          "name": "account",
          "type": "address"
        },
        {
          "internalType": "string",
          "name": "name",
          "type": "string"
        },
        {
          "internalType": "string",
          "name": "email",
          "type": "string"
        },
        {
          "internalType": "string",
          "name": "resumeHash",
          "type": "string"
        },
        {
          "internalType": "uint256",
          "name": "numApplications",
          "type": "uint256"
        }
      ],
      "stateMutability": "view",
      "type": "function"
    },
    {
      "inputs": [
        {
          "internalType": "address",
          "name": "",
          "type": "address"
        }
      ],
      "name": "companies",
      "outputs": [
        {
          "internalType": "uint256",
          "name": "numJobPostings",
          "type": "uint256"
        },
        {
          "internalType": "address",
          "name": "account",
          "type": "address"
        },
        {
          "internalType": "string",
          "name": "name",
          "type": "string"
        },
        {
          "internalType": "string",
          "name": "email",
          "type": "string"
        },
        {
          "internalType": "string",
          "name": "industry",
          "type": "string"
        }
      ],
      "stateMutability": "view",
      "type": "function"
    },
    {
      "inputs": [
        {
          "internalType": "string",
          "name": "_name",
          "type": "string"
        },
        {
          "internalType": "string",
          "name": "_email",
          "type": "string"
        },
        {
          "internalType": "string",
          "name": "_resumeHash",
          "type": "string"
        }
      ],
      "name": "createCandidateProfile",
      "outputs": [],
      "stateMutability": "nonpayable",
      "type": "function"
    },
    {
      "inputs": [
        {
          "internalType": "string",
          "name": "_name",
          "type": "string"
        },
        {
          "internalType": "string",
          "name": "_email",
          "type": "string"
        },
        {
          "internalType": "string",
          "name": "_industry",
          "type": "string"
        }
      ],
      "name": "createCompanyProfile",
      "outputs": [],
      "stateMutability": "nonpayable",
      "type": "function"
    },
    {
      "inputs": [
        {
          "internalType": "string",
          "name": "_title",
          "type": "string"
        },
        {
          "internalType": "string",
          "name": "_description",
          "type": "string"
        }
      ],
      "name": "createJobPosting",
      "outputs": [],
      "stateMutability": "nonpayable",
      "type": "function"
    },
    {
      "inputs": [],
      "name": "deleteCandidateProfile",
      "outputs": [],
      "stateMutability": "nonpayable",
      "type": "function"
    },
    {
      "inputs": [],
      "name": "deleteCompanyProfile",
      "outputs": [],
      "stateMutability": "nonpayable",
      "type": "function"
    },
    {
      "inputs": [
        {
          "internalType": "uint256",
          "name": "_jobPostingId",
          "type": "uint256"
        }
      ],
      "name": "deleteJobPosting",
      "outputs": [],
      "stateMutability": "nonpayable",
      "type": "function"
    },
    {
      "inputs": [
        {
          "internalType": "address",
          "name": "_companyAddress",
          "type": "address"
        }
      ],
      "name": "expressInterestInCompany",
      "outputs": [],
      "stateMutability": "nonpayable",
      "type": "function"
    },
    {
      "inputs": [
        {
          "internalType": "address",
          "name": "_candidateAddress",
          "type": "address"
        }
      ],
      "name": "getAppliedJobPostingIds",
      "outputs": [
        {
          "internalType": "uint256[]",
          "name": "jobPostingIds",
          "type": "uint256[]"
        }
      ],
      "stateMutability": "view",
      "type": "function"
    },
    {
      "inputs": [],
      "name": "getAppliedJobPostings",
      "outputs": [
        {
          "internalType": "uint256[]",
          "name": "",
          "type": "uint256[]"
        }
      ],
      "stateMutability": "view",
      "type": "function"
    },
    {
      "inputs": [
        {
          "internalType": "address",
          "name": "_candidateAddress",
          "type": "address"
        }
      ],
      "name": "getCandidateProfile",
      "outputs": [
        {
          "internalType": "string",
          "name": "",
          "type": "string"
        },
        {
          "internalType": "string",
          "name": "",
          "type": "string"
        },
        {
          "internalType": "string",
          "name": "",
          "type": "string"
        },
        {
          "internalType": "uint256",
          "name": "",
          "type": "uint256"
        }
      ],
      "stateMutability": "view",
      "type": "function"
    },
    {
      "inputs": [
        {
          "internalType": "address",
          "name": "_companyAddress",
          "type": "address"
        }
      ],
      "name": "getCompanyDetails",
      "outputs": [
        {
          "internalType": "string",
          "name": "name",
          "type": "string"
        },
        {
          "internalType": "uint256",
          "name": "numJobPostings",
          "type": "uint256"
        }
      ],
      "stateMutability": "view",
      "type": "function"
    },
    {
      "inputs": [
        {
          "internalType": "address",
          "name": "_companyAddress",
          "type": "address"
        },
        {
          "internalType": "uint256",
          "name": "_jobPostingId",
          "type": "uint256"
        }
      ],
      "name": "getCompanyJobPostingDetails",
      "outputs": [
        {
          "internalType": "uint256",
          "name": "id",
          "type": "uint256"
        },
        {
          "internalType": "string",
          "name": "title",
          "type": "string"
        },
        {
          "internalType": "string",
          "name": "description",
          "type": "string"
        },
        {
          "internalType": "uint256",
          "name": "creationTimestamp",
          "type": "uint256"
        },
        {
          "internalType": "uint256",
          "name": "numApplications",
          "type": "uint256"
        }
      ],
      "stateMutability": "view",
      "type": "function"
    },
    {
      "inputs": [
        {
          "internalType": "address",
          "name": "_companyAddress",
          "type": "address"
        }
      ],
      "name": "getCompanyJobPostings",
      "outputs": [
        {
          "internalType": "uint256[]",
          "name": "",
          "type": "uint256[]"
        }
      ],
      "stateMutability": "view",
      "type": "function"
    },
    {
      "inputs": [
        {
          "internalType": "address",
          "name": "_companyAddress",
          "type": "address"
        }
      ],
      "name": "getCompanyProfile",
      "outputs": [
        {
          "internalType": "string",
          "name": "companyName",
          "type": "string"
        },
        {
          "internalType": "string",
          "name": "email",
          "type": "string"
        },
        {
          "internalType": "string",
          "name": "industry",
          "type": "string"
        },
        {
          "internalType": "uint256",
          "name": "numJobPostings",
          "type": "uint256"
        }
      ],
      "stateMutability": "view",
      "type": "function"
    },
    {
      "inputs": [
        {
          "internalType": "uint256",
          "name": "_jobPostingId",
          "type": "uint256"
        }
      ],
      "name": "getJobPostingDetails",
      "outputs": [
        {
          "internalType": "uint256",
          "name": "id",
          "type": "uint256"
        },
        {
          "internalType": "address",
          "name": "owner",
          "type": "address"
        },
        {
          "internalType": "string",
          "name": "title",
          "type": "string"
        },
        {
          "internalType": "string",
          "name": "description",
          "type": "string"
        },
        {
          "internalType": "uint256",
          "name": "creationTimestamp",
          "type": "uint256"
        },
        {
          "internalType": "uint256",
          "name": "numApplications",
          "type": "uint256"
        }
      ],
      "stateMutability": "view",
      "type": "function"
    },
    {
      "inputs": [
        {
          "internalType": "uint256",
          "name": "numIds",
          "type": "uint256"
        }
      ],
      "name": "getLastJobPostingIds",
      "outputs": [
        {
          "internalType": "uint256[]",
          "name": "",
          "type": "uint256[]"
        }
      ],
      "stateMutability": "view",
      "type": "function"
    },
    {
      "inputs": [
        {
          "internalType": "uint256",
          "name": "",
          "type": "uint256"
        }
      ],
      "name": "jobPostings",
      "outputs": [
        {
          "internalType": "uint256",
          "name": "id",
          "type": "uint256"
        },
        {
          "internalType": "address",
          "name": "owner",
          "type": "address"
        },
        {
          "internalType": "string",
          "name": "title",
          "type": "string"
        },
        {
          "internalType": "string",
          "name": "description",
          "type": "string"
        },
        {
          "internalType": "uint256",
          "name": "creationTimestamp",
          "type": "uint256"
        },
        {
          "internalType": "uint256",
          "name": "numApplications",
          "type": "uint256"
        }
      ],
      "stateMutability": "view",
      "type": "function"
    },
    {
      "inputs": [
        {
          "internalType": "address",
          "name": "_companyAddress",
          "type": "address"
        }
      ],
      "name": "removeInterestInCompany",
      "outputs": [],
      "stateMutability": "nonpayable",
      "type": "function"
    },
    {
      "inputs": [
        {
          "internalType": "uint256",
          "name": "_jobPostingId",
          "type": "uint256"
        },
        {
          "internalType": "string",
          "name": "_title",
          "type": "string"
        },
        {
          "internalType": "string",
          "name": "_description",
          "type": "string"
        }
      ],
      "name": "updateJobPosting",
      "outputs": [],
      "stateMutability": "nonpayable",
      "type": "function"
    },
    {
      "inputs": [],
      "name": "withdraw",
      "outputs": [],
      "stateMutability": "nonpayable",
      "type": "function"
    },
    {
      "inputs": [
        {
          "internalType": "uint256",
          "name": "_jobPostingId",
          "type": "uint256"
        }
      ],
      "name": "withdrawJobApplication",
      "outputs": [],
      "stateMutability": "nonpayable",
      "type": "function"
    }
  ],
  "bytecode": "0x608060405234801561001057600080fd5b50615264806100206000396000f3fe608060405234801561001057600080fd5b50600436106101585760003560e01c80638ab66a90116100c3578063debbd3201161007c578063debbd320146103c3578063e7690216146103f3578063eb3821e814610427578063f09af61614610457578063f1951bcf14610473578063fb1aac351461048f57610158565b80638ab66a90146102d85780638ad46b331461030c578063a26586951461033f578063ac90ab141461035b578063d33c1dbc1461038b578063dcf39ef2146103a757610158565b8063355e6ce811610115578063355e6ce8146101f65780633ccfd60b1461022a578063622359b914610234578063751922b41461026957806375e0776e146102875780638364639b146102a357610158565b806304f6a2141461015d5780630558d3e9146101795780630a8f8601146101aa5780630f8abbe7146101c65780630fe7fbf0146101e2578063315c9bd5146101ec575b600080fd5b61017760048036038101906101729190613769565b6104c2565b005b610193600480360381019061018e9190613769565b610617565b6040516101a192919061383f565b60405180910390f35b6101c460048036038101906101bf919061389b565b61078e565b005b6101e060048036038101906101db91906139fd565b610ada565b005b6101ea610c7c565b005b6101f4610df5565b005b610210600480360381019061020b9190613769565b610f6c565b604051610221959493929190613ab3565b60405180910390f35b61023261115a565b005b61024e6004803603810190610249919061389b565b6113f6565b60405161026096959493929190613b1b565b60405180910390f35b610271611562565b60405161027e9190613c48565b60405180910390f35b6102a1600480360381019061029c919061389b565b61170a565b005b6102bd60048036038101906102b8919061389b565b611bd6565b6040516102cf96959493929190613b1b565b60405180910390f35b6102f260048036038101906102ed9190613769565b611da6565b604051610303959493929190613c6a565b60405180910390f35b61032660048036038101906103219190613769565b611f94565b6040516103369493929190613cd2565b60405180910390f35b6103596004803603810190610354919061389b565b612233565b005b6103756004803603810190610370919061389b565b6124a4565b6040516103829190613c48565b60405180910390f35b6103a560048036038101906103a09190613d2c565b61259b565b005b6103c160048036038101906103bc9190613da4565b6129bc565b005b6103dd60048036038101906103d89190613769565b612b5e565b6040516103ea9190613c48565b60405180910390f35b61040d60048036038101906104089190613e2f565b612cf2565b60405161041e959493929190613e6f565b60405180910390f35b610441600480360381019061043c9190613769565b612ef1565b60405161044e9190613c48565b60405180910390f35b610471600480360381019061046c91906139fd565b6130f5565b005b61048d60048036038101906104889190613769565b61328c565b005b6104a960048036038101906104a49190613769565b6133e0565b6040516104b99493929190613cd2565b60405180910390f35b3373ffffffffffffffffffffffffffffffffffffffff166000803373ffffffffffffffffffffffffffffffffffffffff1673ffffffffffffffffffffffffffffffffffffffff16815260200190815260200160002060000160009054906101000a900473ffffffffffffffffffffffffffffffffffffffff1673ffffffffffffffffffffffffffffffffffffffff1614610591576040517f08c379a000000000000000000000000000000000000000000000000000000000815260040161058890613f42565b60405180910390fd5b426000803373ffffffffffffffffffffffffffffffffffffffff1673ffffffffffffffffffffffffffffffffffffffff16815260200190815260200160002060070160008373ffffffffffffffffffffffffffffffffffffffff1673ffffffffffffffffffffffffffffffffffffffff1681526020019081526020016000208190555050565b6060600080600160008573ffffffffffffffffffffffffffffffffffffffff1673ffffffffffffffffffffffffffffffffffffffff16815260200190815260200160002090508373ffffffffffffffffffffffffffffffffffffffff168160010160009054906101000a900473ffffffffffffffffffffffffffffffffffffffff1673ffffffffffffffffffffffffffffffffffffffff16146106ef576040517f08c379a00000000000000000000000000000000000000000000000000000000081526004016106e690613fae565b60405180910390fd5b80600201816000015481805461070490613ffd565b80601f016020809104026020016040519081016040528092919081815260200182805461073090613ffd565b801561077d5780601f106107525761010080835404028352916020019161077d565b820191906000526020600020905b81548152906001019060200180831161076057829003601f168201915b505050505091509250925050915091565b3373ffffffffffffffffffffffffffffffffffffffff166000803373ffffffffffffffffffffffffffffffffffffffff1673ffffffffffffffffffffffffffffffffffffffff16815260200190815260200160002060000160009054906101000a900473ffffffffffffffffffffffffffffffffffffffff1673ffffffffffffffffffffffffffffffffffffffff161461085d576040517f08c379a0000000000000000000000000000000000000000000000000000000008152600401610854906140a0565b60405180910390fd5b600060026000838152602001908152602001600020905060008160000154116108bb576040517f08c379a00000000000000000000000000000000000000000000000000000000081526004016108b29061410c565b60405180910390fd5b60008160060160008060003373ffffffffffffffffffffffffffffffffffffffff1673ffffffffffffffffffffffffffffffffffffffff16815260200190815260200160002060000160009054906101000a900473ffffffffffffffffffffffffffffffffffffffff1673ffffffffffffffffffffffffffffffffffffffff1673ffffffffffffffffffffffffffffffffffffffff16815260200190815260200160002054116109a0576040517f08c379a00000000000000000000000000000000000000000000000000000000081526004016109979061419e565b60405180910390fd5b8060050160008154809291906109b5906141ed565b91905055508060060160008060003373ffffffffffffffffffffffffffffffffffffffff1673ffffffffffffffffffffffffffffffffffffffff16815260200190815260200160002060000160009054906101000a900473ffffffffffffffffffffffffffffffffffffffff1673ffffffffffffffffffffffffffffffffffffffff1673ffffffffffffffffffffffffffffffffffffffff1681526020019081526020016000206000905560008060003373ffffffffffffffffffffffffffffffffffffffff1673ffffffffffffffffffffffffffffffffffffffff1681526020019081526020016000209050806004016000815480929190610ab7906141ed565b919050555080600501600084815260200190815260200160002060009055505050565b6000835111610b1e576040517f08c379a0000000000000000000000000000000000000000000000000000000008152600401610b1590614262565b60405180910390fd5b6000825111610b62576040517f08c379a0000000000000000000000000000000000000000000000000000000008152600401610b59906142ce565b60405180910390fd5b6000815111610ba6576040517f08c379a0000000000000000000000000000000000000000000000000000000008152600401610b9d9061433a565b60405180910390fd5b6000600160003373ffffffffffffffffffffffffffffffffffffffff1673ffffffffffffffffffffffffffffffffffffffff168152602001908152602001600020905060008160000181905550338160010160006101000a81548173ffffffffffffffffffffffffffffffffffffffff021916908373ffffffffffffffffffffffffffffffffffffffff16021790555083816002019081610c479190614506565b5082816003019081610c599190614506565b5081816004019081610c6b9190614506565b506000816000018190555050505050565b6000600160003373ffffffffffffffffffffffffffffffffffffffff1673ffffffffffffffffffffffffffffffffffffffff16815260200190815260200160002090508060010160009054906101000a900473ffffffffffffffffffffffffffffffffffffffff1673ffffffffffffffffffffffffffffffffffffffff163373ffffffffffffffffffffffffffffffffffffffff1614610d51576040517f08c379a0000000000000000000000000000000000000000000000000000000008152600401610d489061464a565b60405180910390fd5b600160003373ffffffffffffffffffffffffffffffffffffffff1673ffffffffffffffffffffffffffffffffffffffff1681526020019081526020016000206000808201600090556001820160006101000a81549073ffffffffffffffffffffffffffffffffffffffff0219169055600282016000610dd0919061369a565b600382016000610de0919061369a565b600482016000610df0919061369a565b505050565b60008060003373ffffffffffffffffffffffffffffffffffffffff1673ffffffffffffffffffffffffffffffffffffffff16815260200190815260200160002090508060000160009054906101000a900473ffffffffffffffffffffffffffffffffffffffff1673ffffffffffffffffffffffffffffffffffffffff163373ffffffffffffffffffffffffffffffffffffffff1614610ec9576040517f08c379a0000000000000000000000000000000000000000000000000000000008152600401610ec0906146dc565b60405180910390fd5b6000803373ffffffffffffffffffffffffffffffffffffffff1673ffffffffffffffffffffffffffffffffffffffff168152602001908152602001600020600080820160006101000a81549073ffffffffffffffffffffffffffffffffffffffff0219169055600182016000610f3f919061369a565b600282016000610f4f919061369a565b600382016000610f5f919061369a565b6004820160009055505050565b60016020528060005260406000206000915090508060000154908060010160009054906101000a900473ffffffffffffffffffffffffffffffffffffffff1690806002018054610fbb90613ffd565b80601f0160208091040260200160405190810160405280929190818152602001828054610fe790613ffd565b80156110345780601f1061100957610100808354040283529160200191611034565b820191906000526020600020905b81548152906001019060200180831161101757829003601f168201915b50505050509080600301805461104990613ffd565b80601f016020809104026020016040519081016040528092919081815260200182805461107590613ffd565b80156110c25780601f10611097576101008083540402835291602001916110c2565b820191906000526020600020905b8154815290600101906020018083116110a557829003601f168201915b5050505050908060040180546110d790613ffd565b80601f016020809104026020016040519081016040528092919081815260200182805461110390613ffd565b80156111505780601f1061112557610100808354040283529160200191611150565b820191906000526020600020905b81548152906001019060200180831161113357829003601f168201915b5050505050905085565b60008060003373ffffffffffffffffffffffffffffffffffffffff1673ffffffffffffffffffffffffffffffffffffffff16815260200190815260200160002090503373ffffffffffffffffffffffffffffffffffffffff168160000160009054906101000a900473ffffffffffffffffffffffffffffffffffffffff1673ffffffffffffffffffffffffffffffffffffffff161461122e576040517f08c379a000000000000000000000000000000000000000000000000000000000815260040161122590614748565b60405180910390fd5b6000816004015411611275576040517f08c379a000000000000000000000000000000000000000000000000000000000815260040161126c906147b4565b60405180910390fd5b600061128033612ef1565b905060005b81518110156113f15760008282815181106112a3576112a26147d4565b5b602002602001015190506002600082815260200190815260200160002060060160003373ffffffffffffffffffffffffffffffffffffffff1673ffffffffffffffffffffffffffffffffffffffff168152602001908152602001600020600090556000803373ffffffffffffffffffffffffffffffffffffffff1673ffffffffffffffffffffffffffffffffffffffff168152602001908152602001600020600501600082815260200190815260200160002060009055600260008281526020019081526020016000206005016000815480929190611381906141ed565b91905055506000803373ffffffffffffffffffffffffffffffffffffffff1673ffffffffffffffffffffffffffffffffffffffff16815260200190815260200160002060040160008154809291906113d8906141ed565b91905055505080806113e990614803565b915050611285565b505050565b60026020528060005260406000206000915090508060000154908060010160009054906101000a900473ffffffffffffffffffffffffffffffffffffffff169080600201805461144590613ffd565b80601f016020809104026020016040519081016040528092919081815260200182805461147190613ffd565b80156114be5780601f10611493576101008083540402835291602001916114be565b820191906000526020600020905b8154815290600101906020018083116114a157829003601f168201915b5050505050908060030180546114d390613ffd565b80601f01602080910402602001604051908101604052809291908181526020018280546114ff90613ffd565b801561154c5780601f106115215761010080835404028352916020019161154c565b820191906000526020600020905b81548152906001019060200180831161152f57829003601f168201915b5050505050908060040154908060050154905086565b606060008060003373ffffffffffffffffffffffffffffffffffffffff1673ffffffffffffffffffffffffffffffffffffffff16815260200190815260200160002090506000816004015467ffffffffffffffff8111156115c6576115c56138d2565b5b6040519080825280602002602001820160405280156115f45781602001602082028036833780820191505090505b509050600080600190505b6003548111611700576000600260008381526020019081526020016000206000015403156116ed5760006002600083815260200190815260200160002060060160008660000160009054906101000a900473ffffffffffffffffffffffffffffffffffffffff1673ffffffffffffffffffffffffffffffffffffffff1673ffffffffffffffffffffffffffffffffffffffff1681526020019081526020016000205411156116ec5760026000828152602001908152602001600020600001548383815181106116d1576116d06147d4565b5b60200260200101818152505081806116e890614803565b9250505b5b80806116f890614803565b9150506115ff565b5081935050505090565b3373ffffffffffffffffffffffffffffffffffffffff166000803373ffffffffffffffffffffffffffffffffffffffff1673ffffffffffffffffffffffffffffffffffffffff16815260200190815260200160002060000160009054906101000a900473ffffffffffffffffffffffffffffffffffffffff1673ffffffffffffffffffffffffffffffffffffffff16146117d9576040517f08c379a00000000000000000000000000000000000000000000000000000000081526004016117d0906148bd565b60405180910390fd5b600a6000803373ffffffffffffffffffffffffffffffffffffffff1673ffffffffffffffffffffffffffffffffffffffff168152602001908152602001600020600401541061185d576040517f08c379a00000000000000000000000000000000000000000000000000000000081526004016118549061494f565b60405180910390fd5b600060026000838152602001908152602001600020905060008160000154116118bb576040517f08c379a00000000000000000000000000000000000000000000000000000000081526004016118b29061410c565b60405180910390fd5b60008160060160008060003373ffffffffffffffffffffffffffffffffffffffff1673ffffffffffffffffffffffffffffffffffffffff16815260200190815260200160002060000160009054906101000a900473ffffffffffffffffffffffffffffffffffffffff1673ffffffffffffffffffffffffffffffffffffffff1673ffffffffffffffffffffffffffffffffffffffff16815260200190815260200160002054146119a0576040517f08c379a0000000000000000000000000000000000000000000000000000000008152600401611997906149e1565b60405180910390fd5b6000600160008360010160009054906101000a900473ffffffffffffffffffffffffffffffffffffffff1673ffffffffffffffffffffffffffffffffffffffff1673ffffffffffffffffffffffffffffffffffffffff16815260200190815260200160002090503373ffffffffffffffffffffffffffffffffffffffff168160010160009054906101000a900473ffffffffffffffffffffffffffffffffffffffff1673ffffffffffffffffffffffffffffffffffffffff1603611a99576040517f08c379a0000000000000000000000000000000000000000000000000000000008152600401611a9090614a73565b60405180910390fd5b816005016000815480929190611aae90614803565b9190505550428260060160008060003373ffffffffffffffffffffffffffffffffffffffff1673ffffffffffffffffffffffffffffffffffffffff16815260200190815260200160002060000160009054906101000a900473ffffffffffffffffffffffffffffffffffffffff1673ffffffffffffffffffffffffffffffffffffffff1673ffffffffffffffffffffffffffffffffffffffff1681526020019081526020016000208190555060008060003373ffffffffffffffffffffffffffffffffffffffff1673ffffffffffffffffffffffffffffffffffffffff1681526020019081526020016000209050806004016000815480929190611bb190614803565b9190505550428160050160008681526020019081526020016000208190555050505050565b600080606080600080600060026000898152602001908152602001600020905087816000015414611c3c576040517f08c379a0000000000000000000000000000000000000000000000000000000008152600401611c339061410c565b60405180910390fd5b80600001548160010160009054906101000a900473ffffffffffffffffffffffffffffffffffffffff16826002018360030184600401548560050154838054611c8490613ffd565b80601f0160208091040260200160405190810160405280929190818152602001828054611cb090613ffd565b8015611cfd5780601f10611cd257610100808354040283529160200191611cfd565b820191906000526020600020905b815481529060010190602001808311611ce057829003601f168201915b50505050509350828054611d1090613ffd565b80601f0160208091040260200160405190810160405280929190818152602001828054611d3c90613ffd565b8015611d895780601f10611d5e57610100808354040283529160200191611d89565b820191906000526020600020905b815481529060010190602001808311611d6c57829003601f168201915b505050505092509650965096509650965096505091939550919395565b60006020528060005260406000206000915090508060000160009054906101000a900473ffffffffffffffffffffffffffffffffffffffff1690806001018054611def90613ffd565b80601f0160208091040260200160405190810160405280929190818152602001828054611e1b90613ffd565b8015611e685780601f10611e3d57610100808354040283529160200191611e68565b820191906000526020600020905b815481529060010190602001808311611e4b57829003601f168201915b505050505090806002018054611e7d90613ffd565b80601f0160208091040260200160405190810160405280929190818152602001828054611ea990613ffd565b8015611ef65780601f10611ecb57610100808354040283529160200191611ef6565b820191906000526020600020905b815481529060010190602001808311611ed957829003601f168201915b505050505090806003018054611f0b90613ffd565b80601f0160208091040260200160405190810160405280929190818152602001828054611f3790613ffd565b8015611f845780601f10611f5957610100808354040283529160200191611f84565b820191906000526020600020905b815481529060010190602001808311611f6757829003601f168201915b5050505050908060040154905085565b60608060606000806000808773ffffffffffffffffffffffffffffffffffffffff1673ffffffffffffffffffffffffffffffffffffffff16815260200190815260200160002090508573ffffffffffffffffffffffffffffffffffffffff168160000160009054906101000a900473ffffffffffffffffffffffffffffffffffffffff1673ffffffffffffffffffffffffffffffffffffffff161461206e576040517f08c379a000000000000000000000000000000000000000000000000000000000815260040161206590614adf565b60405180910390fd5b806001018160020182600301836004015483805461208b90613ffd565b80601f01602080910402602001604051908101604052809291908181526020018280546120b790613ffd565b80156121045780601f106120d957610100808354040283529160200191612104565b820191906000526020600020905b8154815290600101906020018083116120e757829003601f168201915b5050505050935082805461211790613ffd565b80601f016020809104026020016040519081016040528092919081815260200182805461214390613ffd565b80156121905780601f1061216557610100808354040283529160200191612190565b820191906000526020600020905b81548152906001019060200180831161217357829003601f168201915b505050505092508180546121a390613ffd565b80601f01602080910402602001604051908101604052809291908181526020018280546121cf90613ffd565b801561221c5780601f106121f15761010080835404028352916020019161221c565b820191906000526020600020905b8154815290600101906020018083116121ff57829003601f168201915b505050505091509450945094509450509193509193565b60006002600083815260200190815260200160002090503373ffffffffffffffffffffffffffffffffffffffff168160010160009054906101000a900473ffffffffffffffffffffffffffffffffffffffff1673ffffffffffffffffffffffffffffffffffffffff16146122dc576040517f08c379a00000000000000000000000000000000000000000000000000000000081526004016122d390614b71565b60405180910390fd5b6000816005015414612323576040517f08c379a000000000000000000000000000000000000000000000000000000000815260040161231a90614c03565b60405180910390fd5b6000600160003373ffffffffffffffffffffffffffffffffffffffff1673ffffffffffffffffffffffffffffffffffffffff1681526020019081526020016000209050600081600501600085815260200190815260200160002054116123be576040517f08c379a00000000000000000000000000000000000000000000000000000000081526004016123b59061410c565b60405180910390fd5b8060000160008154809291906123d3906141ed565b919050555080600501600084815260200190815260200160002060009055600260008481526020019081526020016000206000808201600090556001820160006101000a81549073ffffffffffffffffffffffffffffffffffffffff0219169055600282016000612444919061369a565b600382016000612454919061369a565b6004820160009055600582016000905550507ffa2a178462e9e26ea694e99c0944e66973410a60bd10a516bc9a4309e128fa788333604051612497929190614c23565b60405180910390a1505050565b6060600082116124e9576040517f08c379a00000000000000000000000000000000000000000000000000000000081526004016124e090614cbe565b60405180910390fd5b6003548211156124f95760035491505b60008267ffffffffffffffff811115612515576125146138d2565b5b6040519080825280602002602001820160405280156125435781602001602082028036833780820191505090505b50905060005b83811015612591578060035461255f9190614cde565b828281518110612572576125716147d4565b5b602002602001018181525050808061258990614803565b915050612549565b5080915050919050565b6000600160003373ffffffffffffffffffffffffffffffffffffffff1673ffffffffffffffffffffffffffffffffffffffff16815260200190815260200160002090503373ffffffffffffffffffffffffffffffffffffffff168160010160009054906101000a900473ffffffffffffffffffffffffffffffffffffffff1673ffffffffffffffffffffffffffffffffffffffff1614612670576040517f08c379a000000000000000000000000000000000000000000000000000000000815260040161266790614d84565b60405180910390fd5b600a8160000154106126b7576040517f08c379a00000000000000000000000000000000000000000000000000000000081526004016126ae90614e16565b60405180910390fd5b60008351116126fb576040517f08c379a00000000000000000000000000000000000000000000000000000000081526004016126f290614e82565b60405180910390fd5b600082511161273f576040517f08c379a000000000000000000000000000000000000000000000000000000000815260040161273690614eee565b60405180910390fd5b6003600081548092919061275290614803565b91905055506000600354905081600001600081548092919061277390614803565b919050555042826005016000838152602001908152602001600020819055506000600260008381526020019081526020016000209050818160000181905550338160010160006101000a81548173ffffffffffffffffffffffffffffffffffffffff021916908373ffffffffffffffffffffffffffffffffffffffff160217905550848160020190816128069190614506565b50838160030190816128189190614506565b50428160040181905550600081600501819055506000600190505b60035481116129b45760008060003373ffffffffffffffffffffffffffffffffffffffff1673ffffffffffffffffffffffffffffffffffffffff1681526020019081526020016000206007016000600160006002600087815260200190815260200160002060010160009054906101000a900473ffffffffffffffffffffffffffffffffffffffff1673ffffffffffffffffffffffffffffffffffffffff1673ffffffffffffffffffffffffffffffffffffffff16815260200190815260200160002060010160009054906101000a900473ffffffffffffffffffffffffffffffffffffffff1673ffffffffffffffffffffffffffffffffffffffff1673ffffffffffffffffffffffffffffffffffffffff168152602001908152602001600020541180156129625750828114155b156129a1577f870e84b60ab6578cf58a392dd031cff88680cec5958a8d62d1a48e5aa913abc68133604051612998929190614c23565b60405180910390a15b80806129ac90614803565b915050612833565b505050505050565b60006002600085815260200190815260200160002090503373ffffffffffffffffffffffffffffffffffffffff168160010160009054906101000a900473ffffffffffffffffffffffffffffffffffffffff1673ffffffffffffffffffffffffffffffffffffffff1614612a65576040517f08c379a0000000000000000000000000000000000000000000000000000000008152600401612a5c90614f80565b60405180910390fd5b6000816005015414612aac576040517f08c379a0000000000000000000000000000000000000000000000000000000008152600401612aa390615012565b60405180910390fd5b6000835111612af0576040517f08c379a0000000000000000000000000000000000000000000000000000000008152600401612ae790614e82565b60405180910390fd5b6000825111612b34576040517f08c379a0000000000000000000000000000000000000000000000000000000008152600401612b2b90614eee565b60405180910390fd5b82816002019081612b459190614506565b5081816003019081612b579190614506565b5050505050565b60606000600160008473ffffffffffffffffffffffffffffffffffffffff1673ffffffffffffffffffffffffffffffffffffffff16815260200190815260200160002090506000816000015467ffffffffffffffff811115612bc357612bc26138d2565b5b604051908082528060200260200182016040528015612bf15781602001602082028036833780820191505090505b509050600080600190505b6003548111612ce657600060026000838152602001908152602001600020600001540315612cd3578573ffffffffffffffffffffffffffffffffffffffff166002600083815260200190815260200160002060010160009054906101000a900473ffffffffffffffffffffffffffffffffffffffff1673ffffffffffffffffffffffffffffffffffffffff1603612cd2576002600082815260200190815260200160002060000154838381518110612cb757612cb66147d4565b5b6020026020010181815250508180612cce90614803565b9250505b5b8080612cde90614803565b915050612bfc565b50819350505050919050565b60006060806000806000600160008973ffffffffffffffffffffffffffffffffffffffff1673ffffffffffffffffffffffffffffffffffffffff168152602001908152602001600020905060008160050160008981526020019081526020016000205411612d95576040517f08c379a0000000000000000000000000000000000000000000000000000000008152600401612d8c906150a4565b60405180910390fd5b60006002600089815260200190815260200160002090508060000154816002018260030183600401548460050154838054612dcf90613ffd565b80601f0160208091040260200160405190810160405280929190818152602001828054612dfb90613ffd565b8015612e485780601f10612e1d57610100808354040283529160200191612e48565b820191906000526020600020905b815481529060010190602001808311612e2b57829003601f168201915b50505050509350828054612e5b90613ffd565b80601f0160208091040260200160405190810160405280929190818152602001828054612e8790613ffd565b8015612ed45780601f10612ea957610100808354040283529160200191612ed4565b820191906000526020600020905b815481529060010190602001808311612eb757829003601f168201915b505050505092509650965096509650965050509295509295909350565b606060008060008473ffffffffffffffffffffffffffffffffffffffff1673ffffffffffffffffffffffffffffffffffffffff16815260200190815260200160002090508273ffffffffffffffffffffffffffffffffffffffff168160000160009054906101000a900473ffffffffffffffffffffffffffffffffffffffff1673ffffffffffffffffffffffffffffffffffffffff1614612fc7576040517f08c379a0000000000000000000000000000000000000000000000000000000008152600401612fbe90615110565b60405180910390fd5b6000816004015467ffffffffffffffff811115612fe757612fe66138d2565b5b6040519080825280602002602001820160405280156130155781602001602082028036833780820191505090505b509050600080600190505b60035481116130e957600060026000838152602001908152602001600020600001541180156130a2575060006002600083815260200190815260200160002060060160008873ffffffffffffffffffffffffffffffffffffffff1673ffffffffffffffffffffffffffffffffffffffff16815260200190815260200160002054115b156130d657808383815181106130bb576130ba6147d4565b5b60200260200101818152505081806130d290614803565b9250505b80806130e190614803565b915050613020565b50819350505050919050565b6000835111613139576040517f08c379a000000000000000000000000000000000000000000000000000000000815260040161313090614262565b60405180910390fd5b600082511161317d576040517f08c379a0000000000000000000000000000000000000000000000000000000008152600401613174906142ce565b60405180910390fd5b60008151116131c1576040517f08c379a00000000000000000000000000000000000000000000000000000000081526004016131b89061517c565b60405180910390fd5b60008060003373ffffffffffffffffffffffffffffffffffffffff1673ffffffffffffffffffffffffffffffffffffffff1681526020019081526020016000209050338160000160006101000a81548173ffffffffffffffffffffffffffffffffffffffff021916908373ffffffffffffffffffffffffffffffffffffffff160217905550838160010190816132579190614506565b50828160020190816132699190614506565b508181600301908161327b9190614506565b506000816004018190555050505050565b3373ffffffffffffffffffffffffffffffffffffffff166000803373ffffffffffffffffffffffffffffffffffffffff1673ffffffffffffffffffffffffffffffffffffffff16815260200190815260200160002060000160009054906101000a900473ffffffffffffffffffffffffffffffffffffffff1673ffffffffffffffffffffffffffffffffffffffff161461335b576040517f08c379a00000000000000000000000000000000000000000000000000000000081526004016133529061520e565b60405180910390fd5b6000803373ffffffffffffffffffffffffffffffffffffffff1673ffffffffffffffffffffffffffffffffffffffff16815260200190815260200160002060070160008273ffffffffffffffffffffffffffffffffffffffff1673ffffffffffffffffffffffffffffffffffffffff1681526020019081526020016000206000905550565b60608060606000600160008673ffffffffffffffffffffffffffffffffffffffff1673ffffffffffffffffffffffffffffffffffffffff168152602001908152602001600020600201805461343490613ffd565b80601f016020809104026020016040519081016040528092919081815260200182805461346090613ffd565b80156134ad5780601f10613482576101008083540402835291602001916134ad565b820191906000526020600020905b81548152906001019060200180831161349057829003601f168201915b50505050509350600160008673ffffffffffffffffffffffffffffffffffffffff1673ffffffffffffffffffffffffffffffffffffffff168152602001908152602001600020600301805461350190613ffd565b80601f016020809104026020016040519081016040528092919081815260200182805461352d90613ffd565b801561357a5780601f1061354f5761010080835404028352916020019161357a565b820191906000526020600020905b81548152906001019060200180831161355d57829003601f168201915b50505050509250600160008673ffffffffffffffffffffffffffffffffffffffff1673ffffffffffffffffffffffffffffffffffffffff16815260200190815260200160002060040180546135ce90613ffd565b80601f01602080910402602001604051908101604052809291908181526020018280546135fa90613ffd565b80156136475780601f1061361c57610100808354040283529160200191613647565b820191906000526020600020905b81548152906001019060200180831161362a57829003601f168201915b50505050509150600160008673ffffffffffffffffffffffffffffffffffffffff1673ffffffffffffffffffffffffffffffffffffffff1681526020019081526020016000206000015490509193509193565b5080546136a690613ffd565b6000825580601f106136b857506136d7565b601f0160209004906000526020600020908101906136d691906136da565b5b50565b5b808211156136f35760008160009055506001016136db565b5090565b6000604051905090565b600080fd5b600080fd5b600073ffffffffffffffffffffffffffffffffffffffff82169050919050565b60006137368261370b565b9050919050565b6137468161372b565b811461375157600080fd5b50565b6000813590506137638161373d565b92915050565b60006020828403121561377f5761377e613701565b5b600061378d84828501613754565b91505092915050565b600081519050919050565b600082825260208201905092915050565b60005b838110156137d05780820151818401526020810190506137b5565b60008484015250505050565b6000601f19601f8301169050919050565b60006137f882613796565b61380281856137a1565b93506138128185602086016137b2565b61381b816137dc565b840191505092915050565b6000819050919050565b61383981613826565b82525050565b6000604082019050818103600083015261385981856137ed565b90506138686020830184613830565b9392505050565b61387881613826565b811461388357600080fd5b50565b6000813590506138958161386f565b92915050565b6000602082840312156138b1576138b0613701565b5b60006138bf84828501613886565b91505092915050565b600080fd5b600080fd5b7f4e487b7100000000000000000000000000000000000000000000000000000000600052604160045260246000fd5b61390a826137dc565b810181811067ffffffffffffffff82111715613929576139286138d2565b5b80604052505050565b600061393c6136f7565b90506139488282613901565b919050565b600067ffffffffffffffff821115613968576139676138d2565b5b613971826137dc565b9050602081019050919050565b82818337600083830152505050565b60006139a061399b8461394d565b613932565b9050828152602081018484840111156139bc576139bb6138cd565b5b6139c784828561397e565b509392505050565b600082601f8301126139e4576139e36138c8565b5b81356139f484826020860161398d565b91505092915050565b600080600060608486031215613a1657613a15613701565b5b600084013567ffffffffffffffff811115613a3457613a33613706565b5b613a40868287016139cf565b935050602084013567ffffffffffffffff811115613a6157613a60613706565b5b613a6d868287016139cf565b925050604084013567ffffffffffffffff811115613a8e57613a8d613706565b5b613a9a868287016139cf565b9150509250925092565b613aad8161372b565b82525050565b600060a082019050613ac86000830188613830565b613ad56020830187613aa4565b8181036040830152613ae781866137ed565b90508181036060830152613afb81856137ed565b90508181036080830152613b0f81846137ed565b90509695505050505050565b600060c082019050613b306000830189613830565b613b3d6020830188613aa4565b8181036040830152613b4f81876137ed565b90508181036060830152613b6381866137ed565b9050613b726080830185613830565b613b7f60a0830184613830565b979650505050505050565b600081519050919050565b600082825260208201905092915050565b6000819050602082019050919050565b613bbf81613826565b82525050565b6000613bd18383613bb6565b60208301905092915050565b6000602082019050919050565b6000613bf582613b8a565b613bff8185613b95565b9350613c0a83613ba6565b8060005b83811015613c3b578151613c228882613bc5565b9750613c2d83613bdd565b925050600181019050613c0e565b5085935050505092915050565b60006020820190508181036000830152613c628184613bea565b905092915050565b600060a082019050613c7f6000830188613aa4565b8181036020830152613c9181876137ed565b90508181036040830152613ca581866137ed565b90508181036060830152613cb981856137ed565b9050613cc86080830184613830565b9695505050505050565b60006080820190508181036000830152613cec81876137ed565b90508181036020830152613d0081866137ed565b90508181036040830152613d1481856137ed565b9050613d236060830184613830565b95945050505050565b60008060408385031215613d4357613d42613701565b5b600083013567ffffffffffffffff811115613d6157613d60613706565b5b613d6d858286016139cf565b925050602083013567ffffffffffffffff811115613d8e57613d8d613706565b5b613d9a858286016139cf565b9150509250929050565b600080600060608486031215613dbd57613dbc613701565b5b6000613dcb86828701613886565b935050602084013567ffffffffffffffff811115613dec57613deb613706565b5b613df8868287016139cf565b925050604084013567ffffffffffffffff811115613e1957613e18613706565b5b613e25868287016139cf565b9150509250925092565b60008060408385031215613e4657613e45613701565b5b6000613e5485828601613754565b9250506020613e6585828601613886565b9150509250929050565b600060a082019050613e846000830188613830565b8181036020830152613e9681876137ed565b90508181036040830152613eaa81866137ed565b9050613eb96060830185613830565b613ec66080830184613830565b9695505050505050565b7f4f6e6c792063616e646964617465732063616e206578707265737320696e746560008201527f7265737420696e20636f6d70616e696573000000000000000000000000000000602082015250565b6000613f2c6031836137a1565b9150613f3782613ed0565b604082019050919050565b60006020820190508181036000830152613f5b81613f1f565b9050919050565b7f436f6d70616e7920646f6573206e6f7420657869737400000000000000000000600082015250565b6000613f986016836137a1565b9150613fa382613f62565b602082019050919050565b60006020820190508181036000830152613fc781613f8b565b9050919050565b7f4e487b7100000000000000000000000000000000000000000000000000000000600052602260045260246000fd5b6000600282049050600182168061401557607f821691505b60208210810361402857614027613fce565b5b50919050565b7f4f6e6c792063616e646964617465732063616e207769746864726177206a6f6260008201527f206170706c69636174696f6e7300000000000000000000000000000000000000602082015250565b600061408a602d836137a1565b91506140958261402e565b604082019050919050565b600060208201905081810360008301526140b98161407d565b9050919050565b7f4a6f6220706f7374696e6720646f6573206e6f74206578697374000000000000600082015250565b60006140f6601a836137a1565b9150614101826140c0565b602082019050919050565b60006020820190508181036000830152614125816140e9565b9050919050565b7f43616e64696461746520686173206e6f74206170706c69656420746f2074686960008201527f73206a6f6220706f7374696e6700000000000000000000000000000000000000602082015250565b6000614188602d836137a1565b91506141938261412c565b604082019050919050565b600060208201905081810360008301526141b78161417b565b9050919050565b7f4e487b7100000000000000000000000000000000000000000000000000000000600052601160045260246000fd5b60006141f882613826565b91506000820361420b5761420a6141be565b5b600182039050919050565b7f4e616d652063616e6e6f7420626520656d707479000000000000000000000000600082015250565b600061424c6014836137a1565b915061425782614216565b602082019050919050565b6000602082019050818103600083015261427b8161423f565b9050919050565b7f456d61696c2063616e6e6f7420626520656d7074790000000000000000000000600082015250565b60006142b86015836137a1565b91506142c382614282565b602082019050919050565b600060208201905081810360008301526142e7816142ab565b9050919050565b7f496e6475737472792063616e6e6f7420626520656d7074790000000000000000600082015250565b60006143246018836137a1565b915061432f826142ee565b602082019050919050565b6000602082019050818103600083015261435381614317565b9050919050565b60008190508160005260206000209050919050565b60006020601f8301049050919050565b600082821b905092915050565b6000600883026143bc7fffffffffffffffffffffffffffffffffffffffffffffffffffffffffffffffff8261437f565b6143c6868361437f565b95508019841693508086168417925050509392505050565b6000819050919050565b60006144036143fe6143f984613826565b6143de565b613826565b9050919050565b6000819050919050565b61441d836143e8565b6144316144298261440a565b84845461438c565b825550505050565b600090565b614446614439565b614451818484614414565b505050565b5b818110156144755761446a60008261443e565b600181019050614457565b5050565b601f8211156144ba5761448b8161435a565b6144948461436f565b810160208510156144a3578190505b6144b76144af8561436f565b830182614456565b50505b505050565b600082821c905092915050565b60006144dd600019846008026144bf565b1980831691505092915050565b60006144f683836144cc565b9150826002028217905092915050565b61450f82613796565b67ffffffffffffffff811115614528576145276138d2565b5b6145328254613ffd565b61453d828285614479565b600060209050601f831160018114614570576000841561455e578287015190505b61456885826144ea565b8655506145d0565b601f19841661457e8661435a565b60005b828110156145a657848901518255600182019150602085019450602081019050614581565b868310156145c357848901516145bf601f8916826144cc565b8355505b6001600288020188555050505b505050505050565b7f4f6e6c7920746865206f776e65722063616e207570646174652074686520636f60008201527f6d70616e792070726f66696c6500000000000000000000000000000000000000602082015250565b6000614634602d836137a1565b915061463f826145d8565b604082019050919050565b6000602082019050818103600083015261466381614627565b9050919050565b7f4f6e6c7920746865206f776e65722063616e207570646174652074686520707260008201527f6f66696c65000000000000000000000000000000000000000000000000000000602082015250565b60006146c66025836137a1565b91506146d18261466a565b604082019050919050565b600060208201905081810360008301526146f5816146b9565b9050919050565b7f4f6e6c792063616e646964617465732063616e20776974686472617700000000600082015250565b6000614732601c836137a1565b915061473d826146fc565b602082019050919050565b6000602082019050818103600083015261476181614725565b9050919050565b7f4e6f206a6f62206170706c69636174696f6e7320746f20776974686472617700600082015250565b600061479e601f836137a1565b91506147a982614768565b602082019050919050565b600060208201905081810360008301526147cd81614791565b9050919050565b7f4e487b7100000000000000000000000000000000000000000000000000000000600052603260045260246000fd5b600061480e82613826565b91507fffffffffffffffffffffffffffffffffffffffffffffffffffffffffffffffff82036148405761483f6141be565b5b600182019050919050565b7f4f6e6c792063616e646964617465732063616e206170706c7920746f206a6f6260008201527f20706f7374696e67730000000000000000000000000000000000000000000000602082015250565b60006148a76029836137a1565b91506148b28261484b565b604082019050919050565b600060208201905081810360008301526148d68161489a565b9050919050565b7f4d6178696d756d206e756d626572206f66206a6f62206170706c69636174696f60008201527f6e73207265616368656400000000000000000000000000000000000000000000602082015250565b6000614939602a836137a1565b9150614944826148dd565b604082019050919050565b600060208201905081810360008301526149688161492c565b9050919050565b7f43616e6469646174652068617320616c7265616479206170706c69656420746f60008201527f2074686973206a6f6220706f7374696e67000000000000000000000000000000602082015250565b60006149cb6031836137a1565b91506149d68261496f565b604082019050919050565b600060208201905081810360008301526149fa816149be565b9050919050565b7f43616e646964617465732063616e6e6f74206170706c7920746f20746865697260008201527f206f776e20636f6d70616e792773206a6f6220706f7374696e67730000000000602082015250565b6000614a5d603b836137a1565b9150614a6882614a01565b604082019050919050565b60006020820190508181036000830152614a8c81614a50565b9050919050565b7f43616e6469646174652070726f66696c6520646f6573206e6f74206578697374600082015250565b6000614ac96020836137a1565b9150614ad482614a93565b602082019050919050565b60006020820190508181036000830152614af881614abc565b9050919050565b7f4f6e6c7920746865206f776e65722063616e2064656c657465206a6f6220706f60008201527f7374696e67730000000000000000000000000000000000000000000000000000602082015250565b6000614b5b6026836137a1565b9150614b6682614aff565b604082019050919050565b60006020820190508181036000830152614b8a81614b4e565b9050919050565b7f43616e6e6f742064656c657465206a6f6220706f7374696e672077697468206160008201527f6374697665206170706c69636174696f6e730000000000000000000000000000602082015250565b6000614bed6032836137a1565b9150614bf882614b91565b604082019050919050565b60006020820190508181036000830152614c1c81614be0565b9050919050565b6000604082019050614c386000830185613830565b614c456020830184613aa4565b9392505050565b7f4e756d626572206f6620494473206d757374206265206772656174657220746860008201527f616e207a65726f00000000000000000000000000000000000000000000000000602082015250565b6000614ca86027836137a1565b9150614cb382614c4c565b604082019050919050565b60006020820190508181036000830152614cd781614c9b565b9050919050565b6000614ce982613826565b9150614cf483613826565b9250828203905081811115614d0c57614d0b6141be565b5b92915050565b7f4f6e6c7920746865206f776e65722063616e20637265617465206a6f6220706f60008201527f7374696e67730000000000000000000000000000000000000000000000000000602082015250565b6000614d6e6026836137a1565b9150614d7982614d12565b604082019050919050565b60006020820190508181036000830152614d9d81614d61565b9050919050565b7f4d6178696d756d206e756d626572206f66206a6f6220706f7374696e6773207260008201527f6561636865640000000000000000000000000000000000000000000000000000602082015250565b6000614e006026836137a1565b9150614e0b82614da4565b604082019050919050565b60006020820190508181036000830152614e2f81614df3565b9050919050565b7f5469746c652063616e6e6f7420626520656d7074790000000000000000000000600082015250565b6000614e6c6015836137a1565b9150614e7782614e36565b602082019050919050565b60006020820190508181036000830152614e9b81614e5f565b9050919050565b7f4465736372697074696f6e2063616e6e6f7420626520656d7074790000000000600082015250565b6000614ed8601b836137a1565b9150614ee382614ea2565b602082019050919050565b60006020820190508181036000830152614f0781614ecb565b9050919050565b7f4f6e6c7920746865206f776e65722063616e20757064617465206a6f6220706f60008201527f7374696e67730000000000000000000000000000000000000000000000000000602082015250565b6000614f6a6026836137a1565b9150614f7582614f0e565b604082019050919050565b60006020820190508181036000830152614f9981614f5d565b9050919050565b7f43616e6e6f7420757064617465206a6f6220706f7374696e672077697468206160008201527f6374697665206170706c69636174696f6e730000000000000000000000000000602082015250565b6000614ffc6032836137a1565b915061500782614fa0565b604082019050919050565b6000602082019050818103600083015261502b81614fef565b9050919050565b7f4a6f6220706f7374696e6720646f6573206e6f74206578697374206f7220697360008201527f206e6f74206f776e65642062792074686520636f6d70616e7900000000000000602082015250565b600061508e6039836137a1565b915061509982615032565b604082019050919050565b600060208201905081810360008301526150bd81615081565b9050919050565b7f43616e64696461746520646f6573206e6f742065786973740000000000000000600082015250565b60006150fa6018836137a1565b9150615105826150c4565b602082019050919050565b60006020820190508181036000830152615129816150ed565b9050919050565b7f526573756d6520686173682063616e6e6f7420626520656d7074790000000000600082015250565b6000615166601b836137a1565b915061517182615130565b602082019050919050565b6000602082019050818103600083015261519581615159565b9050919050565b7f4f6e6c792063616e646964617465732063616e2072656d6f766520696e74657260008201527f65737420696e20636f6d70616e69657300000000000000000000000000000000602082015250565b60006151f86030836137a1565b91506152038261519c565b604082019050919050565b60006020820190508181036000830152615227816151eb565b905091905056fea26469706673582212207bdafacc8b12484e1fc6d7fc76a40a48e765e8193b277d7d581f2bc81c42500b64736f6c63430008120033",
  "linkReferences": {},
  "deployedLinkReferences": {}
}