{
  "_format": "hh-sol-artifact-1",
  "contractName": "JobPlatform",
  "sourceName": "contracts/JobPlatform.sol",
  "abi": [
    {
      "anonymous": false,
      "inputs": [
        {
          "indexed": false,
          "internalType": "uint256",
          "name": "jobPostingId",
          "type": "uint256"
        },
        {
          "indexed": false,
          "internalType": "address",
          "name": "owner",
          "type": "address"
        }
      ],
      "name": "JobPostingDeleted",
      "type": "event"
    },
    {
      "anonymous": false,
      "inputs": [
        {
          "indexed": false,
          "internalType": "uint256",
          "name": "jobPostingId",
          "type": "uint256"
        },
        {
          "indexed": false,
          "internalType": "address",
          "name": "owner",
          "type": "address"
        }
      ],
      "name": "NewJobPosting",
      "type": "event"
    },
    {
      "anonymous": false,
      "inputs": [
        {
          "indexed": false,
          "internalType": "bytes32",
          "name": "candhash",
          "type": "bytes32"
        },
        {
          "indexed": false,
          "internalType": "string",
          "name": "jobname",
          "type": "string"
        }
      ],
      "name": "applied",
      "type": "event"
    },
    {
      "anonymous": false,
      "inputs": [
        {
          "indexed": false,
          "internalType": "uint256",
          "name": "lastJobPostingId",
          "type": "uint256"
        }
      ],
      "name": "countofjobs",
      "type": "event"
    },
    {
      "inputs": [
        {
          "internalType": "bytes32",
          "name": "candidatehash",
          "type": "bytes32"
        },
        {
          "internalType": "string",
          "name": "jobtitle",
          "type": "string"
        }
      ],
      "name": "applyToJobPosting",
      "outputs": [],
      "stateMutability": "nonpayable",
      "type": "function"
    },
    {
      "inputs": [
        {
          "internalType": "uint256",
          "name": "_jobPostingId",
          "type": "uint256"
        }
      ],
      "name": "applyToJobPosting1",
      "outputs": [],
      "stateMutability": "nonpayable",
      "type": "function"
    },
    {
      "inputs": [
        {
          "internalType": "address",
          "name": "",
          "type": "address"
        }
      ],
      "name": "candidates",
      "outputs": [
        {
          "internalType": "address",
          "name": "account",
          "type": "address"
        },
        {
          "internalType": "string",
          "name": "name",
          "type": "string"
        },
        {
          "internalType": "string",
          "name": "email",
          "type": "string"
        },
        {
          "internalType": "string",
          "name": "resumeHash",
          "type": "string"
        },
        {
          "internalType": "uint256",
          "name": "numApplications",
          "type": "uint256"
        }
      ],
      "stateMutability": "view",
      "type": "function"
    },
    {
      "inputs": [
        {
          "internalType": "address",
          "name": "",
          "type": "address"
        }
      ],
      "name": "companies",
      "outputs": [
        {
          "internalType": "uint256",
          "name": "numJobPostings",
          "type": "uint256"
        },
        {
          "internalType": "address",
          "name": "account",
          "type": "address"
        },
        {
          "internalType": "string",
          "name": "name",
          "type": "string"
        },
        {
          "internalType": "string",
          "name": "email",
          "type": "string"
        },
        {
          "internalType": "string",
          "name": "industry",
          "type": "string"
        }
      ],
      "stateMutability": "view",
      "type": "function"
    },
    {
      "inputs": [
        {
          "internalType": "string",
          "name": "_name",
          "type": "string"
        },
        {
          "internalType": "string",
          "name": "_email",
          "type": "string"
        },
        {
          "internalType": "string",
          "name": "_resumeHash",
          "type": "string"
        }
      ],
      "name": "createCandidateProfile",
      "outputs": [],
      "stateMutability": "nonpayable",
      "type": "function"
    },
    {
      "inputs": [
        {
          "internalType": "string",
          "name": "_name",
          "type": "string"
        },
        {
          "internalType": "string",
          "name": "_email",
          "type": "string"
        },
        {
          "internalType": "string",
          "name": "_industry",
          "type": "string"
        }
      ],
      "name": "createCompanyProfile",
      "outputs": [],
      "stateMutability": "nonpayable",
      "type": "function"
    },
    {
      "inputs": [
        {
          "internalType": "string",
          "name": "_title",
          "type": "string"
        },
        {
          "internalType": "string",
          "name": "_description",
          "type": "string"
        },
        {
          "internalType": "uint256",
          "name": "sal",
          "type": "uint256"
        }
      ],
      "name": "createJobPosting",
      "outputs": [],
      "stateMutability": "nonpayable",
      "type": "function"
    },
    {
      "inputs": [],
      "name": "deleteCandidateProfile",
      "outputs": [],
      "stateMutability": "nonpayable",
      "type": "function"
    },
    {
      "inputs": [],
      "name": "deleteCompanyProfile",
      "outputs": [],
      "stateMutability": "nonpayable",
      "type": "function"
    },
    {
      "inputs": [
        {
          "internalType": "uint256",
          "name": "_jobPostingId",
          "type": "uint256"
        }
      ],
      "name": "deleteJobPosting",
      "outputs": [],
      "stateMutability": "nonpayable",
      "type": "function"
    },
    {
      "inputs": [
        {
          "internalType": "address",
          "name": "_companyAddress",
          "type": "address"
        }
      ],
      "name": "expressInterestInCompany",
      "outputs": [],
      "stateMutability": "nonpayable",
      "type": "function"
    },
    {
      "inputs": [
        {
          "internalType": "address",
          "name": "_candidateAddress",
          "type": "address"
        }
      ],
      "name": "getAppliedJobPostingIds",
      "outputs": [
        {
          "internalType": "uint256[]",
          "name": "jobPostingIds",
          "type": "uint256[]"
        }
      ],
      "stateMutability": "view",
      "type": "function"
    },
    {
      "inputs": [],
      "name": "getAppliedJobPostings",
      "outputs": [
        {
          "internalType": "uint256[]",
          "name": "",
          "type": "uint256[]"
        }
      ],
      "stateMutability": "view",
      "type": "function"
    },
    {
      "inputs": [
        {
          "internalType": "address",
          "name": "_candidateAddress",
          "type": "address"
        }
      ],
      "name": "getCandidateProfile",
      "outputs": [
        {
          "internalType": "string",
          "name": "",
          "type": "string"
        },
        {
          "internalType": "string",
          "name": "",
          "type": "string"
        },
        {
          "internalType": "string",
          "name": "",
          "type": "string"
        },
        {
          "internalType": "uint256",
          "name": "",
          "type": "uint256"
        }
      ],
      "stateMutability": "view",
      "type": "function"
    },
    {
      "inputs": [
        {
          "internalType": "address",
          "name": "_companyAddress",
          "type": "address"
        }
      ],
      "name": "getCompanyDetails",
      "outputs": [
        {
          "internalType": "string",
          "name": "name",
          "type": "string"
        },
        {
          "internalType": "uint256",
          "name": "numJobPostings",
          "type": "uint256"
        }
      ],
      "stateMutability": "view",
      "type": "function"
    },
    {
      "inputs": [
        {
          "internalType": "address",
          "name": "_companyAddress",
          "type": "address"
        },
        {
          "internalType": "uint256",
          "name": "_jobPostingId",
          "type": "uint256"
        }
      ],
      "name": "getCompanyJobPostingDetails",
      "outputs": [
        {
          "internalType": "uint256",
          "name": "id",
          "type": "uint256"
        },
        {
          "internalType": "string",
          "name": "title",
          "type": "string"
        },
        {
          "internalType": "string",
          "name": "description",
          "type": "string"
        },
        {
          "internalType": "uint256",
          "name": "creationTimestamp",
          "type": "uint256"
        },
        {
          "internalType": "uint256",
          "name": "numApplications",
          "type": "uint256"
        }
      ],
      "stateMutability": "view",
      "type": "function"
    },
    {
      "inputs": [
        {
          "internalType": "address",
          "name": "_companyAddress",
          "type": "address"
        }
      ],
      "name": "getCompanyJobPostings",
      "outputs": [
        {
          "internalType": "uint256[]",
          "name": "",
          "type": "uint256[]"
        }
      ],
      "stateMutability": "view",
      "type": "function"
    },
    {
      "inputs": [
        {
          "internalType": "address",
          "name": "_companyAddress",
          "type": "address"
        }
      ],
      "name": "getCompanyProfile",
      "outputs": [
        {
          "internalType": "string",
          "name": "companyName",
          "type": "string"
        },
        {
          "internalType": "string",
          "name": "email",
          "type": "string"
        },
        {
          "internalType": "string",
          "name": "industry",
          "type": "string"
        },
        {
          "internalType": "uint256",
          "name": "numJobPostings",
          "type": "uint256"
        }
      ],
      "stateMutability": "view",
      "type": "function"
    },
    {
      "inputs": [],
      "name": "getCount",
      "outputs": [],
      "stateMutability": "nonpayable",
      "type": "function"
    },
    {
      "inputs": [
        {
          "internalType": "uint256",
          "name": "_jobPostingId",
          "type": "uint256"
        }
      ],
      "name": "getJobPostingDetails",
      "outputs": [
        {
          "internalType": "uint256",
          "name": "id",
          "type": "uint256"
        },
        {
          "internalType": "address",
          "name": "owner",
          "type": "address"
        },
        {
          "internalType": "string",
          "name": "title",
          "type": "string"
        },
        {
          "internalType": "string",
          "name": "description",
          "type": "string"
        },
        {
          "internalType": "uint256",
          "name": "creationTimestamp",
          "type": "uint256"
        },
        {
          "internalType": "uint256",
          "name": "numApplications",
          "type": "uint256"
        }
      ],
      "stateMutability": "view",
      "type": "function"
    },
    {
      "inputs": [
        {
          "internalType": "uint256",
          "name": "numIds",
          "type": "uint256"
        }
      ],
      "name": "getLastJobPostingIds",
      "outputs": [
        {
          "internalType": "uint256[]",
          "name": "",
          "type": "uint256[]"
        }
      ],
      "stateMutability": "view",
      "type": "function"
    },
    {
      "inputs": [
        {
          "internalType": "uint256",
          "name": "",
          "type": "uint256"
        }
      ],
      "name": "jobPostings",
      "outputs": [
        {
          "internalType": "uint256",
          "name": "id",
          "type": "uint256"
        },
        {
          "internalType": "address",
          "name": "owner",
          "type": "address"
        },
        {
          "internalType": "string",
          "name": "title",
          "type": "string"
        },
        {
          "internalType": "string",
          "name": "description",
          "type": "string"
        },
        {
          "internalType": "uint256",
          "name": "salary",
          "type": "uint256"
        },
        {
          "internalType": "uint256",
          "name": "creationTimestamp",
          "type": "uint256"
        },
        {
          "internalType": "uint256",
          "name": "numApplications",
          "type": "uint256"
        }
      ],
      "stateMutability": "view",
      "type": "function"
    },
    {
      "inputs": [],
      "name": "lastJobPostingId",
      "outputs": [
        {
          "internalType": "uint256",
          "name": "",
          "type": "uint256"
        }
      ],
      "stateMutability": "view",
      "type": "function"
    },
    {
      "inputs": [
        {
          "internalType": "address",
          "name": "_companyAddress",
          "type": "address"
        }
      ],
      "name": "removeInterestInCompany",
      "outputs": [],
      "stateMutability": "nonpayable",
      "type": "function"
    },
    {
      "inputs": [
        {
          "internalType": "uint256",
          "name": "_jobPostingId",
          "type": "uint256"
        },
        {
          "internalType": "string",
          "name": "_title",
          "type": "string"
        },
        {
          "internalType": "string",
          "name": "_description",
          "type": "string"
        }
      ],
      "name": "updateJobPosting",
      "outputs": [],
      "stateMutability": "nonpayable",
      "type": "function"
    },
    {
      "inputs": [],
      "name": "withdraw",
      "outputs": [],
      "stateMutability": "nonpayable",
      "type": "function"
    },
    {
      "inputs": [
        {
          "internalType": "uint256",
          "name": "_jobPostingId",
          "type": "uint256"
        }
      ],
      "name": "withdrawJobApplication",
      "outputs": [],
      "stateMutability": "nonpayable",
      "type": "function"
    }
  ],
  "bytecode": "0x608060405234801561001057600080fd5b506155aa80620000216000396000f3fe608060405234801561001057600080fd5b50600436106101a95760003560e01c80638ab66a90116100f9578063debbd32011610097578063eeac40be11610071578063eeac40be146104cf578063f09af616146104ed578063f1951bcf14610509578063fb1aac3514610525576101a9565b8063debbd3201461043b578063e76902161461046b578063eb3821e81461049f576101a9565b8063a87d942c116100d3578063a87d942c146103c9578063ac90ab14146103d3578063ca714dbd14610403578063dcf39ef21461041f576101a9565b80638ab66a90146103465780638ad46b331461037a578063a2658695146103ad576101a9565b8063355e6ce811610166578063622359b911610140578063622359b9146102a1578063751922b4146102d75780638364639b146102f557806387b09b671461032a576101a9565b8063355e6ce8146102475780633ccfd60b1461027b57806349895d9214610285576101a9565b806304f6a214146101ae5780630558d3e9146101ca5780630a8f8601146101fb5780630f8abbe7146102175780630fe7fbf014610233578063315c9bd51461023d575b600080fd5b6101c860048036038101906101c391906138af565b610558565b005b6101e460048036038101906101df91906138af565b6106ad565b6040516101f2929190613985565b60405180910390f35b610215600480360381019061021091906139e1565b610824565b005b610231600480360381019061022c9190613b43565b610b70565b005b61023b610d12565b005b610245610e8b565b005b610261600480360381019061025c91906138af565b611002565b604051610272959493929190613bf9565b60405180910390f35b6102836111f0565b005b61029f600480360381019061029a9190613c61565b61148c565b005b6102bb60048036038101906102b691906139e1565b6118b7565b6040516102ce9796959493929190613cec565b60405180910390f35b6102df611a29565b6040516102ec9190613e27565b60405180910390f35b61030f600480360381019061030a91906139e1565b611bd1565b60405161032196959493929190613e49565b60405180910390f35b610344600480360381019061033f91906139e1565b611da1565b005b610360600480360381019061035b91906138af565b61226d565b604051610371959493929190613eb8565b60405180910390f35b610394600480360381019061038f91906138af565b61245b565b6040516103a49493929190613f20565b60405180910390f35b6103c760048036038101906103c291906139e1565b6126fa565b005b6103d1612973565b005b6103ed60048036038101906103e891906139e1565b6129ae565b6040516103fa9190613e27565b60405180910390f35b61041d60048036038101906104189190613fb0565b612aa5565b005b6104396004803603810190610434919061400c565b612afc565b005b610455600480360381019061045091906138af565b612c9e565b6040516104629190613e27565b60405180910390f35b61048560048036038101906104809190614097565b612e32565b6040516104969594939291906140d7565b60405180910390f35b6104b960048036038101906104b491906138af565b613031565b6040516104c69190613e27565b60405180910390f35b6104d7613235565b6040516104e49190614138565b60405180910390f35b61050760048036038101906105029190613b43565b61323b565b005b610523600480360381019061051e91906138af565b6133d2565b005b61053f600480360381019061053a91906138af565b613526565b60405161054f9493929190613f20565b60405180910390f35b3373ffffffffffffffffffffffffffffffffffffffff166000803373ffffffffffffffffffffffffffffffffffffffff1673ffffffffffffffffffffffffffffffffffffffff16815260200190815260200160002060000160009054906101000a900473ffffffffffffffffffffffffffffffffffffffff1673ffffffffffffffffffffffffffffffffffffffff1614610627576040517f08c379a000000000000000000000000000000000000000000000000000000000815260040161061e906141c5565b60405180910390fd5b426000803373ffffffffffffffffffffffffffffffffffffffff1673ffffffffffffffffffffffffffffffffffffffff16815260200190815260200160002060070160008373ffffffffffffffffffffffffffffffffffffffff1673ffffffffffffffffffffffffffffffffffffffff1681526020019081526020016000208190555050565b6060600080600160008573ffffffffffffffffffffffffffffffffffffffff1673ffffffffffffffffffffffffffffffffffffffff16815260200190815260200160002090508373ffffffffffffffffffffffffffffffffffffffff168160010160009054906101000a900473ffffffffffffffffffffffffffffffffffffffff1673ffffffffffffffffffffffffffffffffffffffff1614610785576040517f08c379a000000000000000000000000000000000000000000000000000000000815260040161077c90614231565b60405180910390fd5b80600201816000015481805461079a90614280565b80601f01602080910402602001604051908101604052809291908181526020018280546107c690614280565b80156108135780601f106107e857610100808354040283529160200191610813565b820191906000526020600020905b8154815290600101906020018083116107f657829003601f168201915b505050505091509250925050915091565b3373ffffffffffffffffffffffffffffffffffffffff166000803373ffffffffffffffffffffffffffffffffffffffff1673ffffffffffffffffffffffffffffffffffffffff16815260200190815260200160002060000160009054906101000a900473ffffffffffffffffffffffffffffffffffffffff1673ffffffffffffffffffffffffffffffffffffffff16146108f3576040517f08c379a00000000000000000000000000000000000000000000000000000000081526004016108ea90614323565b60405180910390fd5b60006002600083815260200190815260200160002090506000816000015411610951576040517f08c379a00000000000000000000000000000000000000000000000000000000081526004016109489061438f565b60405180910390fd5b60008160070160008060003373ffffffffffffffffffffffffffffffffffffffff1673ffffffffffffffffffffffffffffffffffffffff16815260200190815260200160002060000160009054906101000a900473ffffffffffffffffffffffffffffffffffffffff1673ffffffffffffffffffffffffffffffffffffffff1673ffffffffffffffffffffffffffffffffffffffff1681526020019081526020016000205411610a36576040517f08c379a0000000000000000000000000000000000000000000000000000000008152600401610a2d90614421565b60405180910390fd5b806006016000815480929190610a4b90614470565b91905055508060070160008060003373ffffffffffffffffffffffffffffffffffffffff1673ffffffffffffffffffffffffffffffffffffffff16815260200190815260200160002060000160009054906101000a900473ffffffffffffffffffffffffffffffffffffffff1673ffffffffffffffffffffffffffffffffffffffff1673ffffffffffffffffffffffffffffffffffffffff1681526020019081526020016000206000905560008060003373ffffffffffffffffffffffffffffffffffffffff1673ffffffffffffffffffffffffffffffffffffffff1681526020019081526020016000209050806004016000815480929190610b4d90614470565b919050555080600501600084815260200190815260200160002060009055505050565b6000835111610bb4576040517f08c379a0000000000000000000000000000000000000000000000000000000008152600401610bab906144e5565b60405180910390fd5b6000825111610bf8576040517f08c379a0000000000000000000000000000000000000000000000000000000008152600401610bef90614551565b60405180910390fd5b6000815111610c3c576040517f08c379a0000000000000000000000000000000000000000000000000000000008152600401610c33906145bd565b60405180910390fd5b6000600160003373ffffffffffffffffffffffffffffffffffffffff1673ffffffffffffffffffffffffffffffffffffffff168152602001908152602001600020905060008160000181905550338160010160006101000a81548173ffffffffffffffffffffffffffffffffffffffff021916908373ffffffffffffffffffffffffffffffffffffffff16021790555083816002019081610cdd9190614789565b5082816003019081610cef9190614789565b5081816004019081610d019190614789565b506000816000018190555050505050565b6000600160003373ffffffffffffffffffffffffffffffffffffffff1673ffffffffffffffffffffffffffffffffffffffff16815260200190815260200160002090508060010160009054906101000a900473ffffffffffffffffffffffffffffffffffffffff1673ffffffffffffffffffffffffffffffffffffffff163373ffffffffffffffffffffffffffffffffffffffff1614610de7576040517f08c379a0000000000000000000000000000000000000000000000000000000008152600401610dde906148cd565b60405180910390fd5b600160003373ffffffffffffffffffffffffffffffffffffffff1673ffffffffffffffffffffffffffffffffffffffff1681526020019081526020016000206000808201600090556001820160006101000a81549073ffffffffffffffffffffffffffffffffffffffff0219169055600282016000610e6691906137e0565b600382016000610e7691906137e0565b600482016000610e8691906137e0565b505050565b60008060003373ffffffffffffffffffffffffffffffffffffffff1673ffffffffffffffffffffffffffffffffffffffff16815260200190815260200160002090508060000160009054906101000a900473ffffffffffffffffffffffffffffffffffffffff1673ffffffffffffffffffffffffffffffffffffffff163373ffffffffffffffffffffffffffffffffffffffff1614610f5f576040517f08c379a0000000000000000000000000000000000000000000000000000000008152600401610f569061495f565b60405180910390fd5b6000803373ffffffffffffffffffffffffffffffffffffffff1673ffffffffffffffffffffffffffffffffffffffff168152602001908152602001600020600080820160006101000a81549073ffffffffffffffffffffffffffffffffffffffff0219169055600182016000610fd591906137e0565b600282016000610fe591906137e0565b600382016000610ff591906137e0565b6004820160009055505050565b60016020528060005260406000206000915090508060000154908060010160009054906101000a900473ffffffffffffffffffffffffffffffffffffffff169080600201805461105190614280565b80601f016020809104026020016040519081016040528092919081815260200182805461107d90614280565b80156110ca5780601f1061109f576101008083540402835291602001916110ca565b820191906000526020600020905b8154815290600101906020018083116110ad57829003601f168201915b5050505050908060030180546110df90614280565b80601f016020809104026020016040519081016040528092919081815260200182805461110b90614280565b80156111585780601f1061112d57610100808354040283529160200191611158565b820191906000526020600020905b81548152906001019060200180831161113b57829003601f168201915b50505050509080600401805461116d90614280565b80601f016020809104026020016040519081016040528092919081815260200182805461119990614280565b80156111e65780601f106111bb576101008083540402835291602001916111e6565b820191906000526020600020905b8154815290600101906020018083116111c957829003601f168201915b5050505050905085565b60008060003373ffffffffffffffffffffffffffffffffffffffff1673ffffffffffffffffffffffffffffffffffffffff16815260200190815260200160002090503373ffffffffffffffffffffffffffffffffffffffff168160000160009054906101000a900473ffffffffffffffffffffffffffffffffffffffff1673ffffffffffffffffffffffffffffffffffffffff16146112c4576040517f08c379a00000000000000000000000000000000000000000000000000000000081526004016112bb906149cb565b60405180910390fd5b600081600401541161130b576040517f08c379a000000000000000000000000000000000000000000000000000000000815260040161130290614a37565b60405180910390fd5b600061131633613031565b905060005b815181101561148757600082828151811061133957611338614a57565b5b602002602001015190506002600082815260200190815260200160002060070160003373ffffffffffffffffffffffffffffffffffffffff1673ffffffffffffffffffffffffffffffffffffffff168152602001908152602001600020600090556000803373ffffffffffffffffffffffffffffffffffffffff1673ffffffffffffffffffffffffffffffffffffffff16815260200190815260200160002060050160008281526020019081526020016000206000905560026000828152602001908152602001600020600601600081548092919061141790614470565b91905055506000803373ffffffffffffffffffffffffffffffffffffffff1673ffffffffffffffffffffffffffffffffffffffff168152602001908152602001600020600401600081548092919061146e90614470565b919050555050808061147f90614a86565b91505061131b565b505050565b6000600160003373ffffffffffffffffffffffffffffffffffffffff1673ffffffffffffffffffffffffffffffffffffffff16815260200190815260200160002090503373ffffffffffffffffffffffffffffffffffffffff168160010160009054906101000a900473ffffffffffffffffffffffffffffffffffffffff1673ffffffffffffffffffffffffffffffffffffffff1614611561576040517f08c379a000000000000000000000000000000000000000000000000000000000815260040161155890614b40565b60405180910390fd5b600a8160000154106115a8576040517f08c379a000000000000000000000000000000000000000000000000000000000815260040161159f90614bd2565b60405180910390fd5b60008451116115ec576040517f08c379a00000000000000000000000000000000000000000000000000000000081526004016115e390614c3e565b60405180910390fd5b6000835111611630576040517f08c379a000000000000000000000000000000000000000000000000000000000815260040161162790614caa565b60405180910390fd5b6003600081548092919061164390614a86565b91905055506000600354905081600001600081548092919061166490614a86565b919050555042826005016000838152602001908152602001600020819055506000600260008381526020019081526020016000209050818160000181905550338160010160006101000a81548173ffffffffffffffffffffffffffffffffffffffff021916908373ffffffffffffffffffffffffffffffffffffffff160217905550858160020190816116f79190614789565b50848160030190816117099190614789565b50838160040181905550428160050181905550600081600601819055506000600190505b60035481116118ae5760008060003373ffffffffffffffffffffffffffffffffffffffff1673ffffffffffffffffffffffffffffffffffffffff1681526020019081526020016000206007016000600160006002600087815260200190815260200160002060010160009054906101000a900473ffffffffffffffffffffffffffffffffffffffff1673ffffffffffffffffffffffffffffffffffffffff1673ffffffffffffffffffffffffffffffffffffffff16815260200190815260200160002060010160009054906101000a900473ffffffffffffffffffffffffffffffffffffffff1673ffffffffffffffffffffffffffffffffffffffff1673ffffffffffffffffffffffffffffffffffffffff1681526020019081526020016000205411801561185c5750828114155b1561189b577f870e84b60ab6578cf58a392dd031cff88680cec5958a8d62d1a48e5aa913abc68133604051611892929190614cca565b60405180910390a15b80806118a690614a86565b91505061172d565b50505050505050565b60026020528060005260406000206000915090508060000154908060010160009054906101000a900473ffffffffffffffffffffffffffffffffffffffff169080600201805461190690614280565b80601f016020809104026020016040519081016040528092919081815260200182805461193290614280565b801561197f5780601f106119545761010080835404028352916020019161197f565b820191906000526020600020905b81548152906001019060200180831161196257829003601f168201915b50505050509080600301805461199490614280565b80601f01602080910402602001604051908101604052809291908181526020018280546119c090614280565b8015611a0d5780601f106119e257610100808354040283529160200191611a0d565b820191906000526020600020905b8154815290600101906020018083116119f057829003601f168201915b5050505050908060040154908060050154908060060154905087565b606060008060003373ffffffffffffffffffffffffffffffffffffffff1673ffffffffffffffffffffffffffffffffffffffff16815260200190815260200160002090506000816004015467ffffffffffffffff811115611a8d57611a8c613a18565b5b604051908082528060200260200182016040528015611abb5781602001602082028036833780820191505090505b509050600080600190505b6003548111611bc757600060026000838152602001908152602001600020600001540315611bb45760006002600083815260200190815260200160002060070160008660000160009054906101000a900473ffffffffffffffffffffffffffffffffffffffff1673ffffffffffffffffffffffffffffffffffffffff1673ffffffffffffffffffffffffffffffffffffffff168152602001908152602001600020541115611bb3576002600082815260200190815260200160002060000154838381518110611b9857611b97614a57565b5b6020026020010181815250508180611baf90614a86565b9250505b5b8080611bbf90614a86565b915050611ac6565b5081935050505090565b600080606080600080600060026000898152602001908152602001600020905087816000015414611c37576040517f08c379a0000000000000000000000000000000000000000000000000000000008152600401611c2e9061438f565b60405180910390fd5b80600001548160010160009054906101000a900473ffffffffffffffffffffffffffffffffffffffff16826002018360030184600501548560060154838054611c7f90614280565b80601f0160208091040260200160405190810160405280929190818152602001828054611cab90614280565b8015611cf85780601f10611ccd57610100808354040283529160200191611cf8565b820191906000526020600020905b815481529060010190602001808311611cdb57829003601f168201915b50505050509350828054611d0b90614280565b80601f0160208091040260200160405190810160405280929190818152602001828054611d3790614280565b8015611d845780601f10611d5957610100808354040283529160200191611d84565b820191906000526020600020905b815481529060010190602001808311611d6757829003601f168201915b505050505092509650965096509650965096505091939550919395565b3373ffffffffffffffffffffffffffffffffffffffff166000803373ffffffffffffffffffffffffffffffffffffffff1673ffffffffffffffffffffffffffffffffffffffff16815260200190815260200160002060000160009054906101000a900473ffffffffffffffffffffffffffffffffffffffff1673ffffffffffffffffffffffffffffffffffffffff1614611e70576040517f08c379a0000000000000000000000000000000000000000000000000000000008152600401611e6790614d65565b60405180910390fd5b600a6000803373ffffffffffffffffffffffffffffffffffffffff1673ffffffffffffffffffffffffffffffffffffffff1681526020019081526020016000206004015410611ef4576040517f08c379a0000000000000000000000000000000000000000000000000000000008152600401611eeb90614df7565b60405180910390fd5b60006002600083815260200190815260200160002090506000816000015411611f52576040517f08c379a0000000000000000000000000000000000000000000000000000000008152600401611f499061438f565b60405180910390fd5b60008160070160008060003373ffffffffffffffffffffffffffffffffffffffff1673ffffffffffffffffffffffffffffffffffffffff16815260200190815260200160002060000160009054906101000a900473ffffffffffffffffffffffffffffffffffffffff1673ffffffffffffffffffffffffffffffffffffffff1673ffffffffffffffffffffffffffffffffffffffff1681526020019081526020016000205414612037576040517f08c379a000000000000000000000000000000000000000000000000000000000815260040161202e90614e89565b60405180910390fd5b6000600160008360010160009054906101000a900473ffffffffffffffffffffffffffffffffffffffff1673ffffffffffffffffffffffffffffffffffffffff1673ffffffffffffffffffffffffffffffffffffffff16815260200190815260200160002090503373ffffffffffffffffffffffffffffffffffffffff168160010160009054906101000a900473ffffffffffffffffffffffffffffffffffffffff1673ffffffffffffffffffffffffffffffffffffffff1603612130576040517f08c379a000000000000000000000000000000000000000000000000000000000815260040161212790614f1b565b60405180910390fd5b81600601600081548092919061214590614a86565b9190505550428260070160008060003373ffffffffffffffffffffffffffffffffffffffff1673ffffffffffffffffffffffffffffffffffffffff16815260200190815260200160002060000160009054906101000a900473ffffffffffffffffffffffffffffffffffffffff1673ffffffffffffffffffffffffffffffffffffffff1673ffffffffffffffffffffffffffffffffffffffff1681526020019081526020016000208190555060008060003373ffffffffffffffffffffffffffffffffffffffff1673ffffffffffffffffffffffffffffffffffffffff168152602001908152602001600020905080600401600081548092919061224890614a86565b9190505550428160050160008681526020019081526020016000208190555050505050565b60006020528060005260406000206000915090508060000160009054906101000a900473ffffffffffffffffffffffffffffffffffffffff16908060010180546122b690614280565b80601f01602080910402602001604051908101604052809291908181526020018280546122e290614280565b801561232f5780601f106123045761010080835404028352916020019161232f565b820191906000526020600020905b81548152906001019060200180831161231257829003601f168201915b50505050509080600201805461234490614280565b80601f016020809104026020016040519081016040528092919081815260200182805461237090614280565b80156123bd5780601f10612392576101008083540402835291602001916123bd565b820191906000526020600020905b8154815290600101906020018083116123a057829003601f168201915b5050505050908060030180546123d290614280565b80601f01602080910402602001604051908101604052809291908181526020018280546123fe90614280565b801561244b5780601f106124205761010080835404028352916020019161244b565b820191906000526020600020905b81548152906001019060200180831161242e57829003601f168201915b5050505050908060040154905085565b60608060606000806000808773ffffffffffffffffffffffffffffffffffffffff1673ffffffffffffffffffffffffffffffffffffffff16815260200190815260200160002090508573ffffffffffffffffffffffffffffffffffffffff168160000160009054906101000a900473ffffffffffffffffffffffffffffffffffffffff1673ffffffffffffffffffffffffffffffffffffffff1614612535576040517f08c379a000000000000000000000000000000000000000000000000000000000815260040161252c90614f87565b60405180910390fd5b806001018160020182600301836004015483805461255290614280565b80601f016020809104026020016040519081016040528092919081815260200182805461257e90614280565b80156125cb5780601f106125a0576101008083540402835291602001916125cb565b820191906000526020600020905b8154815290600101906020018083116125ae57829003601f168201915b505050505093508280546125de90614280565b80601f016020809104026020016040519081016040528092919081815260200182805461260a90614280565b80156126575780601f1061262c57610100808354040283529160200191612657565b820191906000526020600020905b81548152906001019060200180831161263a57829003601f168201915b5050505050925081805461266a90614280565b80601f016020809104026020016040519081016040528092919081815260200182805461269690614280565b80156126e35780601f106126b8576101008083540402835291602001916126e3565b820191906000526020600020905b8154815290600101906020018083116126c657829003601f168201915b505050505091509450945094509450509193509193565b60006002600083815260200190815260200160002090503373ffffffffffffffffffffffffffffffffffffffff168160010160009054906101000a900473ffffffffffffffffffffffffffffffffffffffff1673ffffffffffffffffffffffffffffffffffffffff16146127a3576040517f08c379a000000000000000000000000000000000000000000000000000000000815260040161279a90615019565b60405180910390fd5b60008160060154146127ea576040517f08c379a00000000000000000000000000000000000000000000000000000000081526004016127e1906150ab565b60405180910390fd5b6000600160003373ffffffffffffffffffffffffffffffffffffffff1673ffffffffffffffffffffffffffffffffffffffff168152602001908152602001600020905060008160050160008581526020019081526020016000205411612885576040517f08c379a000000000000000000000000000000000000000000000000000000000815260040161287c9061438f565b60405180910390fd5b80600001600081548092919061289a90614470565b919050555080600501600084815260200190815260200160002060009055600260008481526020019081526020016000206000808201600090556001820160006101000a81549073ffffffffffffffffffffffffffffffffffffffff021916905560028201600061290b91906137e0565b60038201600061291b91906137e0565b60048201600090556005820160009055600682016000905550507ffa2a178462e9e26ea694e99c0944e66973410a60bd10a516bc9a4309e128fa788333604051612966929190614cca565b60405180910390a1505050565b7f0ca74920278ba79b4aa00aefb1518e2213f42ee95c8e6ed1ebabccdf357db9426003546040516129a49190614138565b60405180910390a1565b6060600082116129f3576040517f08c379a00000000000000000000000000000000000000000000000000000000081526004016129ea9061513d565b60405180910390fd5b600354821115612a035760035491505b60008267ffffffffffffffff811115612a1f57612a1e613a18565b5b604051908082528060200260200182016040528015612a4d5781602001602082028036833780820191505090505b50905060005b83811015612a9b5780600354612a69919061515d565b828281518110612a7c57612a7b614a57565b5b6020026020010181815250508080612a9390614a86565b915050612a53565b5080915050919050565b816004819055508060059081612abb9190614789565b507fefc42013332694623a2984919aa46cc89424b442c52c63d073c6b14de0d3fab16004546005604051612af0929190615224565b60405180910390a15050565b60006002600085815260200190815260200160002090503373ffffffffffffffffffffffffffffffffffffffff168160010160009054906101000a900473ffffffffffffffffffffffffffffffffffffffff1673ffffffffffffffffffffffffffffffffffffffff1614612ba5576040517f08c379a0000000000000000000000000000000000000000000000000000000008152600401612b9c906152c6565b60405180910390fd5b6000816006015414612bec576040517f08c379a0000000000000000000000000000000000000000000000000000000008152600401612be390615358565b60405180910390fd5b6000835111612c30576040517f08c379a0000000000000000000000000000000000000000000000000000000008152600401612c2790614c3e565b60405180910390fd5b6000825111612c74576040517f08c379a0000000000000000000000000000000000000000000000000000000008152600401612c6b90614caa565b60405180910390fd5b82816002019081612c859190614789565b5081816003019081612c979190614789565b5050505050565b60606000600160008473ffffffffffffffffffffffffffffffffffffffff1673ffffffffffffffffffffffffffffffffffffffff16815260200190815260200160002090506000816000015467ffffffffffffffff811115612d0357612d02613a18565b5b604051908082528060200260200182016040528015612d315781602001602082028036833780820191505090505b509050600080600190505b6003548111612e2657600060026000838152602001908152602001600020600001540315612e13578573ffffffffffffffffffffffffffffffffffffffff166002600083815260200190815260200160002060010160009054906101000a900473ffffffffffffffffffffffffffffffffffffffff1673ffffffffffffffffffffffffffffffffffffffff1603612e12576002600082815260200190815260200160002060000154838381518110612df757612df6614a57565b5b6020026020010181815250508180612e0e90614a86565b9250505b5b8080612e1e90614a86565b915050612d3c565b50819350505050919050565b60006060806000806000600160008973ffffffffffffffffffffffffffffffffffffffff1673ffffffffffffffffffffffffffffffffffffffff168152602001908152602001600020905060008160050160008981526020019081526020016000205411612ed5576040517f08c379a0000000000000000000000000000000000000000000000000000000008152600401612ecc906153ea565b60405180910390fd5b60006002600089815260200190815260200160002090508060000154816002018260030183600501548460060154838054612f0f90614280565b80601f0160208091040260200160405190810160405280929190818152602001828054612f3b90614280565b8015612f885780601f10612f5d57610100808354040283529160200191612f88565b820191906000526020600020905b815481529060010190602001808311612f6b57829003601f168201915b50505050509350828054612f9b90614280565b80601f0160208091040260200160405190810160405280929190818152602001828054612fc790614280565b80156130145780601f10612fe957610100808354040283529160200191613014565b820191906000526020600020905b815481529060010190602001808311612ff757829003601f168201915b505050505092509650965096509650965050509295509295909350565b606060008060008473ffffffffffffffffffffffffffffffffffffffff1673ffffffffffffffffffffffffffffffffffffffff16815260200190815260200160002090508273ffffffffffffffffffffffffffffffffffffffff168160000160009054906101000a900473ffffffffffffffffffffffffffffffffffffffff1673ffffffffffffffffffffffffffffffffffffffff1614613107576040517f08c379a00000000000000000000000000000000000000000000000000000000081526004016130fe90615456565b60405180910390fd5b6000816004015467ffffffffffffffff81111561312757613126613a18565b5b6040519080825280602002602001820160405280156131555781602001602082028036833780820191505090505b509050600080600190505b600354811161322957600060026000838152602001908152602001600020600001541180156131e2575060006002600083815260200190815260200160002060070160008873ffffffffffffffffffffffffffffffffffffffff1673ffffffffffffffffffffffffffffffffffffffff16815260200190815260200160002054115b1561321657808383815181106131fb576131fa614a57565b5b602002602001018181525050818061321290614a86565b9250505b808061322190614a86565b915050613160565b50819350505050919050565b60035481565b600083511161327f576040517f08c379a0000000000000000000000000000000000000000000000000000000008152600401613276906144e5565b60405180910390fd5b60008251116132c3576040517f08c379a00000000000000000000000000000000000000000000000000000000081526004016132ba90614551565b60405180910390fd5b6000815111613307576040517f08c379a00000000000000000000000000000000000000000000000000000000081526004016132fe906154c2565b60405180910390fd5b60008060003373ffffffffffffffffffffffffffffffffffffffff1673ffffffffffffffffffffffffffffffffffffffff1681526020019081526020016000209050338160000160006101000a81548173ffffffffffffffffffffffffffffffffffffffff021916908373ffffffffffffffffffffffffffffffffffffffff1602179055508381600101908161339d9190614789565b50828160020190816133af9190614789565b50818160030190816133c19190614789565b506000816004018190555050505050565b3373ffffffffffffffffffffffffffffffffffffffff166000803373ffffffffffffffffffffffffffffffffffffffff1673ffffffffffffffffffffffffffffffffffffffff16815260200190815260200160002060000160009054906101000a900473ffffffffffffffffffffffffffffffffffffffff1673ffffffffffffffffffffffffffffffffffffffff16146134a1576040517f08c379a000000000000000000000000000000000000000000000000000000000815260040161349890615554565b60405180910390fd5b6000803373ffffffffffffffffffffffffffffffffffffffff1673ffffffffffffffffffffffffffffffffffffffff16815260200190815260200160002060070160008273ffffffffffffffffffffffffffffffffffffffff1673ffffffffffffffffffffffffffffffffffffffff1681526020019081526020016000206000905550565b60608060606000600160008673ffffffffffffffffffffffffffffffffffffffff1673ffffffffffffffffffffffffffffffffffffffff168152602001908152602001600020600201805461357a90614280565b80601f01602080910402602001604051908101604052809291908181526020018280546135a690614280565b80156135f35780601f106135c8576101008083540402835291602001916135f3565b820191906000526020600020905b8154815290600101906020018083116135d657829003601f168201915b50505050509350600160008673ffffffffffffffffffffffffffffffffffffffff1673ffffffffffffffffffffffffffffffffffffffff168152602001908152602001600020600301805461364790614280565b80601f016020809104026020016040519081016040528092919081815260200182805461367390614280565b80156136c05780601f10613695576101008083540402835291602001916136c0565b820191906000526020600020905b8154815290600101906020018083116136a357829003601f168201915b50505050509250600160008673ffffffffffffffffffffffffffffffffffffffff1673ffffffffffffffffffffffffffffffffffffffff168152602001908152602001600020600401805461371490614280565b80601f016020809104026020016040519081016040528092919081815260200182805461374090614280565b801561378d5780601f106137625761010080835404028352916020019161378d565b820191906000526020600020905b81548152906001019060200180831161377057829003601f168201915b50505050509150600160008673ffffffffffffffffffffffffffffffffffffffff1673ffffffffffffffffffffffffffffffffffffffff1681526020019081526020016000206000015490509193509193565b5080546137ec90614280565b6000825580601f106137fe575061381d565b601f01602090049060005260206000209081019061381c9190613820565b5b50565b5b80821115613839576000816000905550600101613821565b5090565b6000604051905090565b600080fd5b600080fd5b600073ffffffffffffffffffffffffffffffffffffffff82169050919050565b600061387c82613851565b9050919050565b61388c81613871565b811461389757600080fd5b50565b6000813590506138a981613883565b92915050565b6000602082840312156138c5576138c4613847565b5b60006138d38482850161389a565b91505092915050565b600081519050919050565b600082825260208201905092915050565b60005b838110156139165780820151818401526020810190506138fb565b60008484015250505050565b6000601f19601f8301169050919050565b600061393e826138dc565b61394881856138e7565b93506139588185602086016138f8565b61396181613922565b840191505092915050565b6000819050919050565b61397f8161396c565b82525050565b6000604082019050818103600083015261399f8185613933565b90506139ae6020830184613976565b9392505050565b6139be8161396c565b81146139c957600080fd5b50565b6000813590506139db816139b5565b92915050565b6000602082840312156139f7576139f6613847565b5b6000613a05848285016139cc565b91505092915050565b600080fd5b600080fd5b7f4e487b7100000000000000000000000000000000000000000000000000000000600052604160045260246000fd5b613a5082613922565b810181811067ffffffffffffffff82111715613a6f57613a6e613a18565b5b80604052505050565b6000613a8261383d565b9050613a8e8282613a47565b919050565b600067ffffffffffffffff821115613aae57613aad613a18565b5b613ab782613922565b9050602081019050919050565b82818337600083830152505050565b6000613ae6613ae184613a93565b613a78565b905082815260208101848484011115613b0257613b01613a13565b5b613b0d848285613ac4565b509392505050565b600082601f830112613b2a57613b29613a0e565b5b8135613b3a848260208601613ad3565b91505092915050565b600080600060608486031215613b5c57613b5b613847565b5b600084013567ffffffffffffffff811115613b7a57613b7961384c565b5b613b8686828701613b15565b935050602084013567ffffffffffffffff811115613ba757613ba661384c565b5b613bb386828701613b15565b925050604084013567ffffffffffffffff811115613bd457613bd361384c565b5b613be086828701613b15565b9150509250925092565b613bf381613871565b82525050565b600060a082019050613c0e6000830188613976565b613c1b6020830187613bea565b8181036040830152613c2d8186613933565b90508181036060830152613c418185613933565b90508181036080830152613c558184613933565b90509695505050505050565b600080600060608486031215613c7a57613c79613847565b5b600084013567ffffffffffffffff811115613c9857613c9761384c565b5b613ca486828701613b15565b935050602084013567ffffffffffffffff811115613cc557613cc461384c565b5b613cd186828701613b15565b9250506040613ce2868287016139cc565b9150509250925092565b600060e082019050613d01600083018a613976565b613d0e6020830189613bea565b8181036040830152613d208188613933565b90508181036060830152613d348187613933565b9050613d436080830186613976565b613d5060a0830185613976565b613d5d60c0830184613976565b98975050505050505050565b600081519050919050565b600082825260208201905092915050565b6000819050602082019050919050565b613d9e8161396c565b82525050565b6000613db08383613d95565b60208301905092915050565b6000602082019050919050565b6000613dd482613d69565b613dde8185613d74565b9350613de983613d85565b8060005b83811015613e1a578151613e018882613da4565b9750613e0c83613dbc565b925050600181019050613ded565b5085935050505092915050565b60006020820190508181036000830152613e418184613dc9565b905092915050565b600060c082019050613e5e6000830189613976565b613e6b6020830188613bea565b8181036040830152613e7d8187613933565b90508181036060830152613e918186613933565b9050613ea06080830185613976565b613ead60a0830184613976565b979650505050505050565b600060a082019050613ecd6000830188613bea565b8181036020830152613edf8187613933565b90508181036040830152613ef38186613933565b90508181036060830152613f078185613933565b9050613f166080830184613976565b9695505050505050565b60006080820190508181036000830152613f3a8187613933565b90508181036020830152613f4e8186613933565b90508181036040830152613f628185613933565b9050613f716060830184613976565b95945050505050565b6000819050919050565b613f8d81613f7a565b8114613f9857600080fd5b50565b600081359050613faa81613f84565b92915050565b60008060408385031215613fc757613fc6613847565b5b6000613fd585828601613f9b565b925050602083013567ffffffffffffffff811115613ff657613ff561384c565b5b61400285828601613b15565b9150509250929050565b60008060006060848603121561402557614024613847565b5b6000614033868287016139cc565b935050602084013567ffffffffffffffff8111156140545761405361384c565b5b61406086828701613b15565b925050604084013567ffffffffffffffff8111156140815761408061384c565b5b61408d86828701613b15565b9150509250925092565b600080604083850312156140ae576140ad613847565b5b60006140bc8582860161389a565b92505060206140cd858286016139cc565b9150509250929050565b600060a0820190506140ec6000830188613976565b81810360208301526140fe8187613933565b905081810360408301526141128186613933565b90506141216060830185613976565b61412e6080830184613976565b9695505050505050565b600060208201905061414d6000830184613976565b92915050565b7f4f6e6c792063616e646964617465732063616e206578707265737320696e746560008201527f7265737420696e20636f6d70616e696573000000000000000000000000000000602082015250565b60006141af6031836138e7565b91506141ba82614153565b604082019050919050565b600060208201905081810360008301526141de816141a2565b9050919050565b7f436f6d70616e7920646f6573206e6f7420657869737400000000000000000000600082015250565b600061421b6016836138e7565b9150614226826141e5565b602082019050919050565b6000602082019050818103600083015261424a8161420e565b9050919050565b7f4e487b7100000000000000000000000000000000000000000000000000000000600052602260045260246000fd5b6000600282049050600182168061429857607f821691505b6020821081036142ab576142aa614251565b5b50919050565b7f4f6e6c792063616e646964617465732063616e207769746864726177206a6f6260008201527f206170706c69636174696f6e7300000000000000000000000000000000000000602082015250565b600061430d602d836138e7565b9150614318826142b1565b604082019050919050565b6000602082019050818103600083015261433c81614300565b9050919050565b7f4a6f6220706f7374696e6720646f6573206e6f74206578697374000000000000600082015250565b6000614379601a836138e7565b915061438482614343565b602082019050919050565b600060208201905081810360008301526143a88161436c565b9050919050565b7f43616e64696461746520686173206e6f74206170706c69656420746f2074686960008201527f73206a6f6220706f7374696e6700000000000000000000000000000000000000602082015250565b600061440b602d836138e7565b9150614416826143af565b604082019050919050565b6000602082019050818103600083015261443a816143fe565b9050919050565b7f4e487b7100000000000000000000000000000000000000000000000000000000600052601160045260246000fd5b600061447b8261396c565b91506000820361448e5761448d614441565b5b600182039050919050565b7f4e616d652063616e6e6f7420626520656d707479000000000000000000000000600082015250565b60006144cf6014836138e7565b91506144da82614499565b602082019050919050565b600060208201905081810360008301526144fe816144c2565b9050919050565b7f456d61696c2063616e6e6f7420626520656d7074790000000000000000000000600082015250565b600061453b6015836138e7565b915061454682614505565b602082019050919050565b6000602082019050818103600083015261456a8161452e565b9050919050565b7f496e6475737472792063616e6e6f7420626520656d7074790000000000000000600082015250565b60006145a76018836138e7565b91506145b282614571565b602082019050919050565b600060208201905081810360008301526145d68161459a565b9050919050565b60008190508160005260206000209050919050565b60006020601f8301049050919050565b600082821b905092915050565b60006008830261463f7fffffffffffffffffffffffffffffffffffffffffffffffffffffffffffffffff82614602565b6146498683614602565b95508019841693508086168417925050509392505050565b6000819050919050565b600061468661468161467c8461396c565b614661565b61396c565b9050919050565b6000819050919050565b6146a08361466b565b6146b46146ac8261468d565b84845461460f565b825550505050565b600090565b6146c96146bc565b6146d4818484614697565b505050565b5b818110156146f8576146ed6000826146c1565b6001810190506146da565b5050565b601f82111561473d5761470e816145dd565b614717846145f2565b81016020851015614726578190505b61473a614732856145f2565b8301826146d9565b50505b505050565b600082821c905092915050565b600061476060001984600802614742565b1980831691505092915050565b6000614779838361474f565b9150826002028217905092915050565b614792826138dc565b67ffffffffffffffff8111156147ab576147aa613a18565b5b6147b58254614280565b6147c08282856146fc565b600060209050601f8311600181146147f357600084156147e1578287015190505b6147eb858261476d565b865550614853565b601f198416614801866145dd565b60005b8281101561482957848901518255600182019150602085019450602081019050614804565b868310156148465784890151614842601f89168261474f565b8355505b6001600288020188555050505b505050505050565b7f4f6e6c7920746865206f776e65722063616e207570646174652074686520636f60008201527f6d70616e792070726f66696c6500000000000000000000000000000000000000602082015250565b60006148b7602d836138e7565b91506148c28261485b565b604082019050919050565b600060208201905081810360008301526148e6816148aa565b9050919050565b7f4f6e6c7920746865206f776e65722063616e207570646174652074686520707260008201527f6f66696c65000000000000000000000000000000000000000000000000000000602082015250565b60006149496025836138e7565b9150614954826148ed565b604082019050919050565b600060208201905081810360008301526149788161493c565b9050919050565b7f4f6e6c792063616e646964617465732063616e20776974686472617700000000600082015250565b60006149b5601c836138e7565b91506149c08261497f565b602082019050919050565b600060208201905081810360008301526149e4816149a8565b9050919050565b7f4e6f206a6f62206170706c69636174696f6e7320746f20776974686472617700600082015250565b6000614a21601f836138e7565b9150614a2c826149eb565b602082019050919050565b60006020820190508181036000830152614a5081614a14565b9050919050565b7f4e487b7100000000000000000000000000000000000000000000000000000000600052603260045260246000fd5b6000614a918261396c565b91507fffffffffffffffffffffffffffffffffffffffffffffffffffffffffffffffff8203614ac357614ac2614441565b5b600182019050919050565b7f4f6e6c7920746865206f776e65722063616e20637265617465206a6f6220706f60008201527f7374696e67730000000000000000000000000000000000000000000000000000602082015250565b6000614b2a6026836138e7565b9150614b3582614ace565b604082019050919050565b60006020820190508181036000830152614b5981614b1d565b9050919050565b7f4d6178696d756d206e756d626572206f66206a6f6220706f7374696e6773207260008201527f6561636865640000000000000000000000000000000000000000000000000000602082015250565b6000614bbc6026836138e7565b9150614bc782614b60565b604082019050919050565b60006020820190508181036000830152614beb81614baf565b9050919050565b7f5469746c652063616e6e6f7420626520656d7074790000000000000000000000600082015250565b6000614c286015836138e7565b9150614c3382614bf2565b602082019050919050565b60006020820190508181036000830152614c5781614c1b565b9050919050565b7f4465736372697074696f6e2063616e6e6f7420626520656d7074790000000000600082015250565b6000614c94601b836138e7565b9150614c9f82614c5e565b602082019050919050565b60006020820190508181036000830152614cc381614c87565b9050919050565b6000604082019050614cdf6000830185613976565b614cec6020830184613bea565b9392505050565b7f4f6e6c792063616e646964617465732063616e206170706c7920746f206a6f6260008201527f20706f7374696e67730000000000000000000000000000000000000000000000602082015250565b6000614d4f6029836138e7565b9150614d5a82614cf3565b604082019050919050565b60006020820190508181036000830152614d7e81614d42565b9050919050565b7f4d6178696d756d206e756d626572206f66206a6f62206170706c69636174696f60008201527f6e73207265616368656400000000000000000000000000000000000000000000602082015250565b6000614de1602a836138e7565b9150614dec82614d85565b604082019050919050565b60006020820190508181036000830152614e1081614dd4565b9050919050565b7f43616e6469646174652068617320616c7265616479206170706c69656420746f60008201527f2074686973206a6f6220706f7374696e67000000000000000000000000000000602082015250565b6000614e736031836138e7565b9150614e7e82614e17565b604082019050919050565b60006020820190508181036000830152614ea281614e66565b9050919050565b7f43616e646964617465732063616e6e6f74206170706c7920746f20746865697260008201527f206f776e20636f6d70616e792773206a6f6220706f7374696e67730000000000602082015250565b6000614f05603b836138e7565b9150614f1082614ea9565b604082019050919050565b60006020820190508181036000830152614f3481614ef8565b9050919050565b7f43616e6469646174652070726f66696c6520646f6573206e6f74206578697374600082015250565b6000614f716020836138e7565b9150614f7c82614f3b565b602082019050919050565b60006020820190508181036000830152614fa081614f64565b9050919050565b7f4f6e6c7920746865206f776e65722063616e2064656c657465206a6f6220706f60008201527f7374696e67730000000000000000000000000000000000000000000000000000602082015250565b60006150036026836138e7565b915061500e82614fa7565b604082019050919050565b6000602082019050818103600083015261503281614ff6565b9050919050565b7f43616e6e6f742064656c657465206a6f6220706f7374696e672077697468206160008201527f6374697665206170706c69636174696f6e730000000000000000000000000000602082015250565b60006150956032836138e7565b91506150a082615039565b604082019050919050565b600060208201905081810360008301526150c481615088565b9050919050565b7f4e756d626572206f6620494473206d757374206265206772656174657220746860008201527f616e207a65726f00000000000000000000000000000000000000000000000000602082015250565b60006151276027836138e7565b9150615132826150cb565b604082019050919050565b600060208201905081810360008301526151568161511a565b9050919050565b60006151688261396c565b91506151738361396c565b925082820390508181111561518b5761518a614441565b5b92915050565b61519a81613f7a565b82525050565b600081546151ad81614280565b6151b781866138e7565b945060018216600081146151d257600181146151e85761521b565b60ff19831686528115156020028601935061521b565b6151f1856145dd565b60005b83811015615213578154818901526001820191506020810190506151f4565b808801955050505b50505092915050565b60006040820190506152396000830185615191565b818103602083015261524b81846151a0565b90509392505050565b7f4f6e6c7920746865206f776e65722063616e20757064617465206a6f6220706f60008201527f7374696e67730000000000000000000000000000000000000000000000000000602082015250565b60006152b06026836138e7565b91506152bb82615254565b604082019050919050565b600060208201905081810360008301526152df816152a3565b9050919050565b7f43616e6e6f7420757064617465206a6f6220706f7374696e672077697468206160008201527f6374697665206170706c69636174696f6e730000000000000000000000000000602082015250565b60006153426032836138e7565b915061534d826152e6565b604082019050919050565b6000602082019050818103600083015261537181615335565b9050919050565b7f4a6f6220706f7374696e6720646f6573206e6f74206578697374206f7220697360008201527f206e6f74206f776e65642062792074686520636f6d70616e7900000000000000602082015250565b60006153d46039836138e7565b91506153df82615378565b604082019050919050565b60006020820190508181036000830152615403816153c7565b9050919050565b7f43616e64696461746520646f6573206e6f742065786973740000000000000000600082015250565b60006154406018836138e7565b915061544b8261540a565b602082019050919050565b6000602082019050818103600083015261546f81615433565b9050919050565b7f526573756d6520686173682063616e6e6f7420626520656d7074790000000000600082015250565b60006154ac601b836138e7565b91506154b782615476565b602082019050919050565b600060208201905081810360008301526154db8161549f565b9050919050565b7f4f6e6c792063616e646964617465732063616e2072656d6f766520696e74657260008201527f65737420696e20636f6d70616e69657300000000000000000000000000000000602082015250565b600061553e6030836138e7565b9150615549826154e2565b604082019050919050565b6000602082019050818103600083015261556d81615531565b905091905056fea2646970667358221220db606dac253a4fe16b9ffd8cfd4787367dc1014c1c4f247524b26e145ea7b25764736f6c63430008120033",
  "linkReferences": {},
  "deployedLinkReferences": {}
}