{
  "_format": "hh-sol-artifact-1",
  "contractName": "Final",
  "sourceName": "contracts/Final.sol",
  "abi": [
    {
      "anonymous": false,
      "inputs": [
        {
          "indexed": true,
          "internalType": "uint256",
          "name": "candidateId",
          "type": "uint256"
        },
        {
          "indexed": false,
          "internalType": "bytes32",
          "name": "nameHash",
          "type": "bytes32"
        },
        {
          "indexed": false,
          "internalType": "bytes32",
          "name": "skillsHash",
          "type": "bytes32"
        }
      ],
      "name": "CandidateCreated",
      "type": "event"
    },
    {
      "anonymous": false,
      "inputs": [
        {
          "indexed": true,
          "internalType": "uint256",
          "name": "companyId",
          "type": "uint256"
        },
        {
          "indexed": false,
          "internalType": "bytes32",
          "name": "nameHash",
          "type": "bytes32"
        },
        {
          "indexed": false,
          "internalType": "bytes32",
          "name": "industryHash",
          "type": "bytes32"
        }
      ],
      "name": "CompanyCreated",
      "type": "event"
    },
    {
      "anonymous": false,
      "inputs": [
        {
          "indexed": true,
          "internalType": "uint256",
          "name": "candidateId",
          "type": "uint256"
        },
        {
          "indexed": true,
          "internalType": "uint256",
          "name": "jobId",
          "type": "uint256"
        }
      ],
      "name": "JobApplicationCreated",
      "type": "event"
    },
    {
      "anonymous": false,
      "inputs": [
        {
          "indexed": true,
          "internalType": "uint256",
          "name": "jobId",
          "type": "uint256"
        },
        {
          "indexed": true,
          "internalType": "uint256",
          "name": "companyId",
          "type": "uint256"
        },
        {
          "indexed": false,
          "internalType": "string",
          "name": "title",
          "type": "string"
        },
        {
          "indexed": false,
          "internalType": "string",
          "name": "description",
          "type": "string"
        },
        {
          "indexed": false,
          "internalType": "string",
          "name": "requirements",
          "type": "string"
        },
        {
          "indexed": false,
          "internalType": "uint256",
          "name": "salary",
          "type": "uint256"
        }
      ],
      "name": "JobPostingCreated",
      "type": "event"
    },
    {
      "inputs": [
        {
          "internalType": "uint256",
          "name": "_candidateId",
          "type": "uint256"
        },
        {
          "internalType": "uint256",
          "name": "_jobId",
          "type": "uint256"
        }
      ],
      "name": "applyToJobPosting",
      "outputs": [],
      "stateMutability": "nonpayable",
      "type": "function"
    },
    {
      "inputs": [
        {
          "internalType": "uint256",
          "name": "",
          "type": "uint256"
        }
      ],
      "name": "candidates",
      "outputs": [
        {
          "internalType": "uint256",
          "name": "id",
          "type": "uint256"
        },
        {
          "internalType": "bytes32",
          "name": "nameHash",
          "type": "bytes32"
        },
        {
          "internalType": "bytes32",
          "name": "skillsHash",
          "type": "bytes32"
        },
        {
          "internalType": "bool",
          "name": "isActive",
          "type": "bool"
        }
      ],
      "stateMutability": "view",
      "type": "function"
    },
    {
      "inputs": [],
      "name": "candidatesCount",
      "outputs": [
        {
          "internalType": "uint256",
          "name": "",
          "type": "uint256"
        }
      ],
      "stateMutability": "view",
      "type": "function"
    },
    {
      "inputs": [
        {
          "internalType": "uint256",
          "name": "",
          "type": "uint256"
        }
      ],
      "name": "companies",
      "outputs": [
        {
          "internalType": "uint256",
          "name": "id",
          "type": "uint256"
        },
        {
          "internalType": "bytes32",
          "name": "nameHash",
          "type": "bytes32"
        },
        {
          "internalType": "bytes32",
          "name": "industryHash",
          "type": "bytes32"
        },
        {
          "internalType": "bool",
          "name": "isActive",
          "type": "bool"
        }
      ],
      "stateMutability": "view",
      "type": "function"
    },
    {
      "inputs": [],
      "name": "companiesCount",
      "outputs": [
        {
          "internalType": "uint256",
          "name": "",
          "type": "uint256"
        }
      ],
      "stateMutability": "view",
      "type": "function"
    },
    {
      "inputs": [
        {
          "internalType": "bytes32",
          "name": "_nameHash",
          "type": "bytes32"
        },
        {
          "internalType": "bytes32",
          "name": "_skillsHash",
          "type": "bytes32"
        }
      ],
      "name": "createCandidateProfile",
      "outputs": [],
      "stateMutability": "nonpayable",
      "type": "function"
    },
    {
      "inputs": [
        {
          "internalType": "bytes32",
          "name": "_nameHash",
          "type": "bytes32"
        },
        {
          "internalType": "bytes32",
          "name": "_industryHash",
          "type": "bytes32"
        }
      ],
      "name": "createCompanyProfile",
      "outputs": [],
      "stateMutability": "nonpayable",
      "type": "function"
    },
    {
      "inputs": [
        {
          "internalType": "uint256",
          "name": "_companyId",
          "type": "uint256"
        },
        {
          "internalType": "string",
          "name": "_title",
          "type": "string"
        },
        {
          "internalType": "string",
          "name": "_description",
          "type": "string"
        },
        {
          "internalType": "string",
          "name": "_requirements",
          "type": "string"
        },
        {
          "internalType": "uint256",
          "name": "_salary",
          "type": "uint256"
        }
      ],
      "name": "createJobPosting",
      "outputs": [],
      "stateMutability": "nonpayable",
      "type": "function"
    },
    {
      "inputs": [
        {
          "internalType": "bytes32",
          "name": "_nameHash",
          "type": "bytes32"
        },
        {
          "internalType": "bytes32",
          "name": "_skillsHash",
          "type": "bytes32"
        }
      ],
      "name": "getCandidateId",
      "outputs": [
        {
          "internalType": "uint256",
          "name": "",
          "type": "uint256"
        }
      ],
      "stateMutability": "view",
      "type": "function"
    },
    {
      "inputs": [
        {
          "internalType": "bytes32",
          "name": "_nameHash",
          "type": "bytes32"
        },
        {
          "internalType": "bytes32",
          "name": "_industryHash",
          "type": "bytes32"
        }
      ],
      "name": "getCompanyId",
      "outputs": [
        {
          "internalType": "uint256",
          "name": "",
          "type": "uint256"
        }
      ],
      "stateMutability": "view",
      "type": "function"
    },
    {
      "inputs": [
        {
          "internalType": "uint256",
          "name": "",
          "type": "uint256"
        },
        {
          "internalType": "uint256",
          "name": "",
          "type": "uint256"
        }
      ],
      "name": "jobApplications",
      "outputs": [
        {
          "internalType": "uint256",
          "name": "candidateId",
          "type": "uint256"
        },
        {
          "internalType": "uint256",
          "name": "jobId",
          "type": "uint256"
        },
        {
          "internalType": "bool",
          "name": "isActive",
          "type": "bool"
        }
      ],
      "stateMutability": "view",
      "type": "function"
    },
    {
      "inputs": [
        {
          "internalType": "uint256",
          "name": "",
          "type": "uint256"
        }
      ],
      "name": "jobPostings",
      "outputs": [
        {
          "internalType": "uint256",
          "name": "id",
          "type": "uint256"
        },
        {
          "internalType": "uint256",
          "name": "companyId",
          "type": "uint256"
        },
        {
          "internalType": "string",
          "name": "title",
          "type": "string"
        },
        {
          "internalType": "string",
          "name": "description",
          "type": "string"
        },
        {
          "internalType": "string",
          "name": "requirements",
          "type": "string"
        },
        {
          "internalType": "uint256",
          "name": "salary",
          "type": "uint256"
        },
        {
          "internalType": "bool",
          "name": "isActive",
          "type": "bool"
        }
      ],
      "stateMutability": "view",
      "type": "function"
    },
    {
      "inputs": [],
      "name": "jobPostingsCount",
      "outputs": [
        {
          "internalType": "uint256",
          "name": "",
          "type": "uint256"
        }
      ],
      "stateMutability": "view",
      "type": "function"
    }
  ],
  "bytecode": "0x608060405234801561001057600080fd5b50611582806100206000396000f3fe608060405234801561001057600080fd5b50600436106100cf5760003560e01c8063622359b91161008c5780639d5c9300116100665780639d5c930014610244578063dc5dfbe214610262578063ead39a111461027e578063f337278a146102b0576100cf565b8063622359b9146101d4578063651377571461020a578063835331e114610226576100cf565b806304a73a4a146100d45780631c0f8374146100f05780632813d19d146101205780632d35a8a2146101535780633477ee2e146101715780634ffd8141146101a4575b600080fd5b6100ee60048036038101906100e99190610b65565b6102cc565b005b61010a60048036038101906101059190610b65565b61039f565b6040516101179190610bbe565b60405180910390f35b61013a60048036038101906101359190610c05565b610415565b60405161014a9493929190610c5c565b60405180910390f35b61015b610452565b6040516101689190610bbe565b60405180910390f35b61018b60048036038101906101869190610c05565b610458565b60405161019b9493929190610c5c565b60405180910390f35b6101be60048036038101906101b99190610b65565b610495565b6040516101cb9190610bbe565b60405180910390f35b6101ee60048036038101906101e99190610c05565b61050d565b6040516102019796959493929190610d31565b60405180910390f35b610224600480360381019061021f9190610db5565b6106f4565b005b61022e610864565b60405161023b9190610bbe565b60405180910390f35b61024c61086a565b6040516102599190610bbe565b60405180910390f35b61027c60048036038101906102779190610b65565b610870565b005b61029860048036038101906102939190610db5565b610944565b6040516102a793929190610df5565b60405180910390f35b6102ca60048036038101906102c59190610f61565b610988565b005b600160008154809291906102df9061105f565b91905055506040518060800160405280600154815260200183815260200182815260200160011515815250600080600154815260200190815260200160002060008201518160000155602082015181600101556040820151816002015560608201518160030160006101000a81548160ff0219169083151502179055509050506001547f4455ed28ee39aaf03fb1a9a5dd8fc64fb3ad618f35b846ece64142e8b9e99ace83836040516103939291906110a7565b60405180910390a25050565b600080600190505b60015481116104095783600080838152602001908152602001600020600101541480156103e857508260008083815260200190815260200160002060020154145b156103f6578091505061040f565b80806104019061105f565b9150506103a7565b50600090505b92915050565b60026020528060005260406000206000915090508060000154908060010154908060020154908060030160009054906101000a900460ff16905084565b60015481565b60006020528060005260406000206000915090508060000154908060010154908060020154908060030160009054906101000a900460ff16905084565b600080600190505b6003548111610501578360026000838152602001908152602001600020600101541480156104e05750826002600083815260200190815260200160002060020154145b156104ee5780915050610507565b80806104f99061105f565b91505061049d565b50600090505b92915050565b600460205280600052604060002060009150905080600001549080600101549080600201805461053c906110ff565b80601f0160208091040260200160405190810160405280929190818152602001828054610568906110ff565b80156105b55780601f1061058a576101008083540402835291602001916105b5565b820191906000526020600020905b81548152906001019060200180831161059857829003601f168201915b5050505050908060030180546105ca906110ff565b80601f01602080910402602001604051908101604052809291908181526020018280546105f6906110ff565b80156106435780601f1061061857610100808354040283529160200191610643565b820191906000526020600020905b81548152906001019060200180831161062657829003601f168201915b505050505090806004018054610658906110ff565b80601f0160208091040260200160405190810160405280929190818152602001828054610684906110ff565b80156106d15780601f106106a6576101008083540402835291602001916106d1565b820191906000526020600020905b8154815290600101906020018083116106b457829003601f168201915b5050505050908060050154908060060160009054906101000a900460ff16905087565b60008083815260200190815260200160002060030160009054906101000a900460ff16610756576040517f08c379a000000000000000000000000000000000000000000000000000000000815260040161074d9061117c565b60405180910390fd5b6004600082815260200190815260200160002060060160009054906101000a900460ff166107b9576040517f08c379a00000000000000000000000000000000000000000000000000000000081526004016107b0906111e8565b60405180910390fd5b604051806060016040528083815260200182815260200160011515815250600660008381526020019081526020016000206000848152602001908152602001600020600082015181600001556020820151816001015560408201518160020160006101000a81548160ff02191690831515021790555090505080827f6b876628f8c5f4fcad632c8571a96a818e3efff910c878d073af50423e40468360405160405180910390a35050565b60035481565b60055481565b600360008154809291906108839061105f565b9190505550604051806080016040528060035481526020018381526020018281526020016001151581525060026000600354815260200190815260200160002060008201518160000155602082015181600101556040820151816002015560608201518160030160006101000a81548160ff0219169083151502179055509050506003547fc1782b21005548a37c32da9a3de550d523b74683defdf701c8f1bcba4133898783836040516109389291906110a7565b60405180910390a25050565b6006602052816000526040600020602052806000526040600020600091509150508060000154908060010154908060020160009054906101000a900460ff16905083565b6002600086815260200190815260200160002060030160009054906101000a900460ff166109eb576040517f08c379a00000000000000000000000000000000000000000000000000000000081526004016109e290611254565b60405180910390fd5b600560008154809291906109fe9061105f565b91905055506040518060e0016040528060055481526020018681526020018581526020018481526020018381526020018281526020016001151581525060046000600554815260200190815260200160002060008201518160000155602082015181600101556040820151816002019081610a799190611420565b506060820151816003019081610a8f9190611420565b506080820151816004019081610aa59190611420565b5060a0820151816005015560c08201518160060160006101000a81548160ff021916908315150217905550905050846005547fe3b4ed9d39bb2a31ded1d12d40d929ff7396ba2abffe35c8c51b1f17e6d7b7c386868686604051610b0c94939291906114f2565b60405180910390a35050505050565b6000604051905090565b600080fd5b600080fd5b6000819050919050565b610b4281610b2f565b8114610b4d57600080fd5b50565b600081359050610b5f81610b39565b92915050565b60008060408385031215610b7c57610b7b610b25565b5b6000610b8a85828601610b50565b9250506020610b9b85828601610b50565b9150509250929050565b6000819050919050565b610bb881610ba5565b82525050565b6000602082019050610bd36000830184610baf565b92915050565b610be281610ba5565b8114610bed57600080fd5b50565b600081359050610bff81610bd9565b92915050565b600060208284031215610c1b57610c1a610b25565b5b6000610c2984828501610bf0565b91505092915050565b610c3b81610b2f565b82525050565b60008115159050919050565b610c5681610c41565b82525050565b6000608082019050610c716000830187610baf565b610c7e6020830186610c32565b610c8b6040830185610c32565b610c986060830184610c4d565b95945050505050565b600081519050919050565b600082825260208201905092915050565b60005b83811015610cdb578082015181840152602081019050610cc0565b60008484015250505050565b6000601f19601f8301169050919050565b6000610d0382610ca1565b610d0d8185610cac565b9350610d1d818560208601610cbd565b610d2681610ce7565b840191505092915050565b600060e082019050610d46600083018a610baf565b610d536020830189610baf565b8181036040830152610d658188610cf8565b90508181036060830152610d798187610cf8565b90508181036080830152610d8d8186610cf8565b9050610d9c60a0830185610baf565b610da960c0830184610c4d565b98975050505050505050565b60008060408385031215610dcc57610dcb610b25565b5b6000610dda85828601610bf0565b9250506020610deb85828601610bf0565b9150509250929050565b6000606082019050610e0a6000830186610baf565b610e176020830185610baf565b610e246040830184610c4d565b949350505050565b600080fd5b600080fd5b7f4e487b7100000000000000000000000000000000000000000000000000000000600052604160045260246000fd5b610e6e82610ce7565b810181811067ffffffffffffffff82111715610e8d57610e8c610e36565b5b80604052505050565b6000610ea0610b1b565b9050610eac8282610e65565b919050565b600067ffffffffffffffff821115610ecc57610ecb610e36565b5b610ed582610ce7565b9050602081019050919050565b82818337600083830152505050565b6000610f04610eff84610eb1565b610e96565b905082815260208101848484011115610f2057610f1f610e31565b5b610f2b848285610ee2565b509392505050565b600082601f830112610f4857610f47610e2c565b5b8135610f58848260208601610ef1565b91505092915050565b600080600080600060a08688031215610f7d57610f7c610b25565b5b6000610f8b88828901610bf0565b955050602086013567ffffffffffffffff811115610fac57610fab610b2a565b5b610fb888828901610f33565b945050604086013567ffffffffffffffff811115610fd957610fd8610b2a565b5b610fe588828901610f33565b935050606086013567ffffffffffffffff81111561100657611005610b2a565b5b61101288828901610f33565b925050608061102388828901610bf0565b9150509295509295909350565b7f4e487b7100000000000000000000000000000000000000000000000000000000600052601160045260246000fd5b600061106a82610ba5565b91507fffffffffffffffffffffffffffffffffffffffffffffffffffffffffffffffff820361109c5761109b611030565b5b600182019050919050565b60006040820190506110bc6000830185610c32565b6110c96020830184610c32565b9392505050565b7f4e487b7100000000000000000000000000000000000000000000000000000000600052602260045260246000fd5b6000600282049050600182168061111757607f821691505b60208210810361112a576111296110d0565b5b50919050565b7f43616e646964617465206e6f7420616374697665000000000000000000000000600082015250565b6000611166601483610cac565b915061117182611130565b602082019050919050565b6000602082019050818103600083015261119581611159565b9050919050565b7f4a6f6220706f7374696e67206e6f742061637469766500000000000000000000600082015250565b60006111d2601683610cac565b91506111dd8261119c565b602082019050919050565b60006020820190508181036000830152611201816111c5565b9050919050565b7f436f6d70616e79206e6f74206163746976650000000000000000000000000000600082015250565b600061123e601283610cac565b915061124982611208565b602082019050919050565b6000602082019050818103600083015261126d81611231565b9050919050565b60008190508160005260206000209050919050565b60006020601f8301049050919050565b600082821b905092915050565b6000600883026112d67fffffffffffffffffffffffffffffffffffffffffffffffffffffffffffffffff82611299565b6112e08683611299565b95508019841693508086168417925050509392505050565b6000819050919050565b600061131d61131861131384610ba5565b6112f8565b610ba5565b9050919050565b6000819050919050565b61133783611302565b61134b61134382611324565b8484546112a6565b825550505050565b600090565b611360611353565b61136b81848461132e565b505050565b5b8181101561138f57611384600082611358565b600181019050611371565b5050565b601f8211156113d4576113a581611274565b6113ae84611289565b810160208510156113bd578190505b6113d16113c985611289565b830182611370565b50505b505050565b600082821c905092915050565b60006113f7600019846008026113d9565b1980831691505092915050565b600061141083836113e6565b9150826002028217905092915050565b61142982610ca1565b67ffffffffffffffff81111561144257611441610e36565b5b61144c82546110ff565b611457828285611393565b600060209050601f83116001811461148a5760008415611478578287015190505b6114828582611404565b8655506114ea565b601f19841661149886611274565b60005b828110156114c05784890151825560018201915060208501945060208101905061149b565b868310156114dd57848901516114d9601f8916826113e6565b8355505b6001600288020188555050505b505050505050565b6000608082019050818103600083015261150c8187610cf8565b905081810360208301526115208186610cf8565b905081810360408301526115348185610cf8565b90506115436060830184610baf565b9594505050505056fea2646970667358221220c82009503ec5b6b722050e35fd9510aaccfd3c47c5fc04822b4f5d1b5e725f9764736f6c63430008120033",
  "linkReferences": {},
  "deployedLinkReferences": {}
}